:1000000000410020492E00006B7600001D2E0000EC
:100010001D2E00001D2E00001D2E00001D2E0000B4
:10002000000000000000000000000000D5290000D2
:100030001D2E0000000000001D2E00001D2E0000DF
:10004000352A0000352A0000352A0000352A000034
:10005000352A0000352A0000352A0000352A000024
:10006000352A0000352A0000352A0000352A000014
:10007000352A0000352A0000352A0000352A000004
:10008000352A0000352A0000352A0000352A0000F4
:10009000352A0000352A0000352A0000352A0000E4
:1000A000352A0000352A0000352A0000352A0000D4
:1000B000352A0000352A0000352A0000352A0000C4
:1000C000352A0000352A0000352A0000352A0000B4
:1000D000352A0000352A0000352A0000352A0000A4
:1000E000352A0000352A0000352A0000352A000094
:1000F000352A0000352A0000352A0000352A000084
:10010000352A0000352A0000352A0000352A000073
:10011000352A0000352A0000352A0000352A000063
:10012000352A0000352A0000352A0000352A000053
:10013000352A0000352A0000352A0000352A000043
:04014000352A00005C
:1001440053B94AB9002908BF00281CBF4FF0FF313A
:100154004FF0FF3000F00CB8ADF1080C6DE904CE9F
:1001640000F008F8DDF804E0DDE9022304B070478C
:10017400704700BF2DE9F04F099E88468E4615460C
:1001840004461946002B40F0C6804245B2FA82F775
:1001940046D94FB1C7F1200C08FA07F3BD40BC4063
:1001A40020FA0CFC4CEA030E4FEA15481FFA85FCB2
:1001B400220CBEFBF8F908FB19E309FB0CFA42EA2E
:1001C40003439A4528D9EB1809F1FF3004D29A4524
:1001D40002D9A9F102002B44A3EB0A03A4B2B3FB96
:1001E400F8F208FB123302FB0CFC44EA0344A44576
:1001F40014D92C1902F1FF3303D2A44501D9931E5B
:100204002C44A4EB0C0443EA00401EB1FC40002340
:1002140034607360BDE8F08F4846DDE71346F0E7CD
:1002240002B9FFDE8FBBA8EB020301214FEA154E92
:10023400AAB2200CB3FBFEFC0EFB1C330CFB02F831
:1002440040EA0343984562D9EB180CF1FF3004D21D
:10025400984502D9ACF102002B44A3EB0803A4B2E5
:10026400B3FBFEFC0EFB1C330CFB02F244EA03441A
:10027400A2424ED92C190CF1FF3304D2A24202D966
:10028400ACF102032C44A41ABDE7C7F1200CBD4015
:1002940008FA07F3BC4028FA0CF94FEA154E20FA85
:1002A4000CFC4CEA0302ABB2B9FBFEFC110C0EFBD6
:1002B4001C900CFB03F841EA0040804523D9281820
:1002C4000CF1FF3104D2804502D9ACF1020128447B
:1002D400A0EB080092B2B0FBFEFC0EFB1C000CFB72
:1002E40003F842EA004398450FD9EB180CF1FF32AA
:1002F40004D2984502D9ACF102022B44A3EB0803C3
:1003040042EA014192E76146E2E76246F6E7604667
:10031400A3E76346B7E7434505D90EB1C6E900082C
:100324000021084676E7B3FA83FCBCF1000F10D134
:10033400434501D382420AD8841A68EB030301209F
:100344009E46002E68D0C6E9004E002162E7604652
:10035400F7E7CCF1200E03FA0CF302FA0CF500FADD
:100364000CF722FA0EF428FA0EFB20FA0EF11C43C5
:1003740008FA0CF34FEA14491943A3B20A0CBBFB65
:10038400F9F809FB18BB08FB03FA42EA0B42924551
:100394003ED9A21808F1FF3004D2924502D9A8F13F
:1003A40002002244A2EB0A0289B2B2FBF9F809FB6B
:1003B400182208FB03F341EA024293422AD9A21805
:1003C40008F1FF3104D2934202D9A8F10201224478
:1003D40041EA0040D21AA0FB059842454B464146EB
:1003E40002D306D14F4504D20138B9EB050368EBBB
:1003F40004018EB1FC1A62EB010707FA0EFE24FA1F
:100404000CF327FA0CF74EEA0303C6E900379CE71E
:100414004046C7E74146DBE73146FBE608B50B48F3
:1004240007F0D8FD28B9BDE808404521084806F082
:10043400EBBD4FF40031074806F06CF9BDE8084005
:1004440000220221014806F055B900BFC480000013
:1004540024870000A88300007FB53C4B3C4A492117
:10046400C3F800263B48C3F80426C3F80826C3F89B
:100474000C26C3F81026C3F81426C3F81826C3F8AC
:100484001C2606F0C1FDFFF7C9FF06F065F9324CE2
:10049400204607F09FFD28B34FF480312F4806F023
:1004A40039F92569A36820465B6801A9984720B9F2
:1004B4002A68019B53405A0614D54FF05023D3F8B1
:1004C40000340BB1DB070DD501220221224806F0CE
:1004D40011F94921224806F097FD01F025FD214834
:1004E40002F04EF801A800F065FC1F4B1B68834224
:1004F40004D045211D4806F087FDFEE7039A4921F3
:100504001B4806F081FD49211A4806F07DFD694625
:100514009DF8080000F032F8009B039C1C44019BEA
:100524001D8900F03FFF66194FF02002EFF311839D
:1005340082F31288BFF36F8F635983F3088873685B
:10054400984745210C4806F05FFDFEE70080015006
:100554003546526E5B870000C4800000A083000013
:100564007487000098830000C80100209887000069
:10057400BB870000EA8700000F88000008B540B17F
:10058400024600230448452106F03EFD6FF01500A5
:1005940008BD0860FCE700BF328800001FB50C46A8
:1005A400014601AA044807F0E8F918B9019B236041
:1005B400029B636004B010BDF48000002DE9F04F8D
:1005C4001D46834BDBB01746DDE966481E68DDF83F
:1005D40090B100F0B5FE01227E4B3AA8C3F8002585
:1005E40004F0C2FF3CB1B8F1000F04DD42462146DD
:1005F4003AA806F001FC4FF000097B89B7F808809F
:100604009844FB689844C8454ED80DA93AA805F00B
:100614001DF800226F4BC3F80025C3F80025689B22
:1006240023B1202218460DA907F05EF800232A46BC
:10063400009339464FF6FF7307A806F08EF8044678
:10064400002844D14FF0FF37DFF894A1DFF884810C
:1006540002900DF1160305AA06A907A806F0C9F829
:10066400041E34DB40F0A480BDF81690B9F1100FDD
:1006740038D1BDF81490B9F1200F40F0A3804B4657
:10068400284606993AAA06F0CDFC0446F8B94A462B
:100694003AA90DA806F024F904464F4B1B6883427F
:1006A40015D101230293D4E7659AA8EB09039A4272
:1006B40028BF1A4649461346924628465A4606F02B
:1006C400B1FC044638B10022424BC3F80025204651
:1006D4005BB0BDE8F08F524659463AA806F08CFB51
:1006E400D14490E7B9F1010F3ED1BDF81430202B6D
:1006F40068D8284606993AAA06F094FC04460028CD
:10070400E5D19DF814B0BBF1200F09D8DAF8003018
:10071400324F0393039B9C4205DB0023C8F800354A
:100724004FF0FF341CE000F00BFEC8F800951DA844
:1007340004F01AFF7A681DA8126857F8081B06F01F
:100744005BFB15A91DA804F081FF00223AA9C8F893
:10075400002515A85A4606F09EFF18B9C8F80005EA
:10076400274676E70134D5E7B9F1220F7FF471AF5C
:100774007B1C3FF46EAFDAF80030BB4215DDBDF8E8
:100784001430802B1ED8284606993AAA06F04AFC53
:10079400044600289BD1FFB22021BDF814300097F5
:1007A4003AAA0DA800F01EF806464FF0FF3750E7AE
:1007B400029B53B1084B1B68B34201D0044B1E6823
:1007C400344684E74FF0FF3481E701247FE700BF1C
:1007D4000000002000008450C8010020B483000001
:1007E400B08300002DE9F04196B017461D469DF8F0
:1007F4007020354B0E4653F8321003EBC2035B688E
:100804008046186801913023014402AA01A806F029
:1008140080FA10B14FF0FF3053E0DDE901431C448E
:10082400214606AB03AA01A806F09BFA0028F1D1E1
:10083400049A072AEED12549059806F02CFF0028D2
:10084400E8D1079A082AE5D12149089806F023FF40
:100854000028DFD1214602AA01A806F06EFA00287A
:10086400D8D1DDE9013213449C42D3D1412AD1D1FC
:100874003D443023294603AA02A8029706F049FA08
:100884000028C7D1DDE9023213449D42C2D32A466F
:1008940002A906A805F0F8FF0028BBD12A4602A940
:1008A4000EA805F0F1FF0028B4D1202EB2D1019991
:1008B4000B78042BAED13346404606AA013100F032
:1008C40057FD16B0BDE8F081B483000058880000DD
:1008D400608800002DE9F041012386B00D466F4683
:1008E4000026DFF86880ADF8003017F8010B01A985
:1008F40001F016FA0446A0B901981023816802AAEF
:10090400103906F08FFB0446019806F08AFB44B9BF
:100914001022414602A806F0BEFE40B12EB14FF0AF
:10092400FF34204606B0BDE8F0810126DDE70198DA
:1009340007F0F7F90423A0F108012A46019806F00C
:1009440071FB0446019806F06CFBEAE7148700008B
:100954002DE9F041384B88B0064600200D461C684E
:1009640005F0EFFE06A9C0B201F0DAF9002857D16C
:10097400294605F0E6FE2C2407A9C0B204FB056451
:1009840001F0CEF9002836D04FF02C0808FB05F80A
:1009940006EB0807396911F0100137D14FF4807361
:1009A4000193264B224600930846CDE90311069B8A
:1009B4000291FFF703FE0446214B56F808200698DF
:1009C4009A420CD13A89FB68D1438B4207D813442D
:1009D4008268934203D21B4B1B68A3421DD045B3CC
:1009E4008268002106F048FB174A4521174806F0A3
:1009F4000BFB012411E0079806F05CFB07460798FF
:100A040006F00FFB631EE21C93420DD1002DF0D0C3
:100A14003046069906F05CF82C46069806F001FB71
:100A2400204608B0BDE8F08113F8011FB942EBD0AD
:100A3400AAE7074AD9E700BF0000002056130020A8
:100A44003DB8F396C8010020698800007B88000047
:100A54007388000073B50D46002104462846CDE98D
:100A6400001105F0F4FF30B3164E2368B34203D1EE
:100A7400204601AA05F080FFE36AB34204D16A4626
:100A84000121204605F078FFDDE90032934288BF5A
:100A94000193019BAB60019A2946204600F034FB88
:100AA400094B1A68002A03DD5721084806F0ACFAFE
:100AB400002002B070BD05F10801FFF70BFFAB6821
:100AC4000193E8E73DB8F3962C0E0020A3880000BC
:100AD4002DE9F84F8A46904699460026DFF870B013
:100AE400194C1A4D0B9B9E4201D300200FE00B9B27
:100AF40050469F1BB7F5806F28BF4FF48067144A98
:100B04003B4606EB090106F08DFA10B10120BDE861
:100B1400F88F0A993B465A464046711806F097FAF0
:100B24000028F3D1C4F800563E44C4F80456C4F86F
:100B34000856C4F80C56C4F81056C4F81456C4F831
:100B44001856C4F81C56CDE7008001503546526E45
:100B54002C0200202DE9F0430F4600218D4B85B077
:100B64001E688D4B044643628C4B0365084605F0B2
:100B7400E8FD04F12001C0B201F0D2F80121002007
:100B840005F0DFFD04F14C01C0B201F0C9F80546DF
:100B9400204605F032FF804668B9002220461146FF
:100BA40005F0D1FE804600B3002257217C4806F0B0
:100BB4002BFA012391E0802257217A4806F024FA87
:100BC4000123984584F85830E7D194F85830042B21
:100BD4008DF8073000F28480012B00F2888000F049
:100BE4009F80FF2384F858309AE0204600F0A4F94F
:100BF4000028DED0684605F021FF6946204605F04E
:100C0400BCFF18B1424657216748D0E7684605F053
:100C14001EFF80F001006A46C1B2204605F093FE33
:100C240002460028C0D1684605F011FF804660BB2B
:100C340069462046FFF70EFF9DF8073084F85830C8
:100C4400033B012B06D8404605F0E6FF10B1FF2315
:100C540084F858309DF80730023B022B0BD8002053
:100C640005F0C8FF38B1FF2384F8583045214F48B8
:100C740006F0CAF9FEE794F85830FF2BF6D06A461E
:100C84000021204605F05FFE93E79DF80790B9F137
:100C9400010F17D1104603F0A9FA831E022B8046D8
:100CA4000DD849462046FFF753FE414B1B68984236
:100CB40005D001280CBF4FF001084FF0050884F857
:100CC400588082E701212046FFF742FE384B1B681B
:100CD400984214BF05239DF8073084F8583074E710
:100CE400052B7FF47EAF002005F096FF13E06946E4
:100CF4002046FFF7AFFE94F858300546DA1E012A65
:100D04000CD8002005F088FF054600287FF469AF61
:100D1400002005F06FFF054610B162E7022BF7D003
:100D240094F85830FF2B04D14521204806F06CF983
:100D3400FEE7012B06D06A460021204605F003FE9B
:100D44000546D0B900212046FFF702FE0646DFF82B
:100D54006080D8F8003098420FD1102200216846F4
:100D640006F0CDFC206A05F0F5FC00253871236AF5
:100D7400D8F800605B683C60BB60E06C06F051F939
:100D8400206A06F04EF9002D14BF2846304605B0FF
:100D9400BDE8F083000000202C0600202C0A00206F
:100DA40014890000D2880000408900006A8900008C
:100DB400C801002038B5064D0446602200212846AB
:100DC40006F09DFC21462846FFF7C4FE38BD00BF4F
:100DD400CC01002073B516461C4633B3436A5D68E4
:100DE4006379012B15D101BB1F4B22681B689A4202
:100DF40098BF0025002005F0A4FC01A9C0B200F0B2
:100E04008FFFF0B10125019806F00BF9284602B0D6
:100E140070BD022B09D12368012B08D9124A12682C
:100E2400934202D8B1FA81F149090025E2E7FCD1E5
:100E34000029DFD00129F8D12179023918BF012115
:100E4400F3E7294620233246019806F0EBF80546DD
:100E54000028D7D1002CD6D0356804482D1A18BFE5
:100E64004FF0FF35CFE700BF040000203DB8F396F4
:100E74002DE9F04F07460C4685B001460020164682
:100E840005F035FD051E51DB3846E46D05F039FDEE
:100E94005FFA84F94FF0000A4FF0010B4FF0FF3472
:100EA40005F1FF3809FB08089DB9BAF1010F03DD0C
:100EB4004521204806F0A8F8631C06D07F2C2ADCC4
:100EC40040F2011301343460B380284605B0BDE814
:100ED400F08F6B1E00934146012338460DF10F023B
:100EE40006F0A0F8031E019322DB012238460DF11F
:100EF4000F0106F02AFF019B40B15B4501D00AF1C6
:100F0400010A9B46009DA8EB0908CDE7B4F1FF3F19
:100F140008BF2C46F5E70223803C7371631004F08C
:100F240001040133013433603471CEE70725CCE783
:100F34000125CAE776890000816A426D38B591427D
:100F440008D0531C8B4205D05721134806F05CF897
:100F5400002038BD80291CD957211048F6E7446A7F
:100F6400056D04EBC30405EBC30564686D68AC420E
:100F740002D057210A48E9E701339A42EFD191425E
:100F840005D9436A03EBC2025368A342F1D101209D
:100F9400DFE700231C46F0E799890000D1890000AF
:100FA400008A000000B589B0012004A906F033FFCF
:100FB4009DF81020012A41D0254B2649032A18BF49
:100FC4000B469DF81320492102929DF812202248D5
:100FD40001929DF811200092204A06F015F8032092
:100FE40006A906F018FF9DF81820012A28D0184BEE
:100FF4001849032A18BF0B469DF81B204921029269
:101004009DF81A20144801929DF819200092144A60
:1010140005F0FAFF9DF81030012B13D19DF8123022
:10102400032B0FD19DF81830012B0BD00D4849210B
:1010340005F0EAFF022009B05DF804FB0A4BC0E7A3
:10104400094BD9E70948492105F0DEFF0020F2E702
:10105400318A0000378A0000498A00003B8A000078
:101064008A8A00009A8A00002C8A0000B98A00004B
:1010740070B54B6814461E4A03F0FF23934206469C
:101084000D4686B02FD10B68012B2CD1204604A924
:1010940003F058F89DF81020012A26D0154B164964
:1010A400032A18BF0B469DF81320492102929DF88C
:1010B4001220124801929DF811200092104A05F066
:1010C400A3FF9DF81030032B0DD12146304605F0C7
:1010D400FFFC204606F092FE2046A96805F024FC99
:1010E400204603F00FF806B070BD064BDBE700BFE7
:1010F40000010004318A0000378A0000498A000098
:101104008A8A00002C8A00002DE9F04F2DED028B15
:1011140005460C468548492189B0174605F074FFF9
:101124006B6A01225E6800233344BB42114602F11C
:101134000102F9D3DFF800B22046CBF8001005F025
:1011440086FC18B3E86D05F0CDFB0023AF6A013FC0
:101154003344834201D2013FFAE7DBF80030BB425B
:1011640014D35721724805F04FFFDBF8002007FB2A
:1011740006F3572102FB06626E4805F045FF012382
:10118400E37109B0BDEC028BBDE8F08F06A9012024
:1011940000F0C6FD07A9032000F0C2FD2146284641
:1011A400079AFFF765FF6379012B08D1DBF800701C
:1011B400DFF888A1DBF80030A7B9012323604FF0E2
:1011C40002030127DFF874816371DBF80030DDF876
:1011D40018909F424DD9484605F023FF079805F023
:1011E40020FFCEE7226801339B1A9F423FD86B6AE7
:1011F400012A196853F8370003EBC70353F8083C76
:10120400DDF81880A3EB010308EE103AA0EB010906
:1012140012D1E268079B022A0AD04146284602936B
:1012240005F056FC22464146284605F087FC029B01
:101234001946284605F04CFC32464946404605F01E
:1012440045FC18EE103A424641462846CDE9009640
:10125400FFF73EFC2146284605F006FC23680133CF
:10126400236020B1DAF800300133CAF80030013FBE
:10127400A0E723689F4257D3696A286D51F8373035
:10128400FA0003930B68083A50F802C0029303680B
:101294002079DDF81CA00128ACEB030342D1895866
:1012A4000593029B3246C91A4846049105F00EFC88
:1012B4000499059B4A460091284651460196049399
:1012C400FFF706FC2146284605F0CEFB4FF002034B
:1012D4002371049B20B1D8F800200132C8F8002003
:1012E400194632465046049305F0F0FB049B4946E8
:1012F40000932846DDE9022301969B1A5246FFF724
:10130400E7FB2146284605F0AFFB23680133236041
:101314004FF00103237138B1D8F800300133C8F815
:10132400003001E00228DBD001374EE7D08A00000C
:10133400F98A0000288B0000040000202C0E0020F5
:1013440070B5094D2B7853B90126084CC4F80065D3
:1013540004F0ACF928B92E70C4F8000570BD002063
:10136400FCE74FF0FF30F9E75614002000008450EA
:1013740070B5AEB01D460446CDE90221FFF7E0FF8B
:10138400DDE902210123064E05A8C6F800352346EF
:10139400009506F038FE0023C6F800352EB070BD67
:1013A4000000845010B501224FF0FF340021194B86
:1013B40019485A60C3F84843C3F8084303F58053F7
:1013C4005A60C3F84843C3F80843A3F55043C3F82D
:1013D40000158022C3F8084306F091F98022002109
:1013E4000E4806F08CF900210D4B8022C3F800153D
:1013F4000C48C3F8084306F082F9802200210A4809
:1014040006F07DF9094BC3F808454FF05023C3F8A3
:10141400084310BD0040015080800050808100507E
:101424000090005080900050809100500070015056
:101434002DE9F043079C1CB920461460BDE8F083F5
:101444000325B4FBF5F505EB4507BC4218BF013590
:10145400B5F1804F05D34FF0FF3313606FF00B00ED
:10146400ECE7AD0001358D4200D808B91560F5E709
:1014740006460025DFF8B4E0BD4231469C4606F13D
:10148400040603F1030329D3A54222D20135A54260
:1014940028BF00239CF80060244F38BF9CF801301B
:1014A4004FEAA60C17F80CC0A54281F800C007EB60
:1014B400131C2FBF3D239B0003F03C03FB5C360150
:1014C4008B703D2306F030061CF80660CB704E701E
:1014D4000431081A106000200870AFE713F803CC39
:1014E40013F8021C4FEAAC091EF809904FEA0C1CD1
:1014F40013F8018C0CF0300C06F8049C0EEB111957
:1015040019F80CC0890006F803CC01F03C010EEB7D
:10151400981C1CF8011008F03F0806F8021C1EF87D
:101524000810033506F8011CA6E700BF348C000040
:101534002DE9F04300273C463D46079EDFF8248111
:10154400B5420AD32E4604E00135AE420EF1010E37
:1015540005D1CCBB1460002058E04FF0000E13F806
:1015640005C0BCF1200FEFD0AE42F2D0A6EB0509C6
:10157400B9F1010F15D0BCF10D0F12D103EB050920
:1015840099F80190B9F10A0F1CD0BEF1000F05D1F2
:10159400BCF13D0F08D10137022F08D96FF01500B7
:1015A40034E0BCF10A0FEFE71CF0800FF6D118F815
:1015B4000CC0BCF17F0FF1D0BCF13F0F01D8002F5C
:1015C400ECD101340135BBE74FF0060C04F00705FC
:1015D400E4080CFB05F50CFB04F40735E41B04EBF1
:1015E400D50480B18C420ED800259C461E440324A9
:1015F40003462946DFF86CE0DFF86C80664507D1C6
:101604001B1A1360A7E76FF00B001460BDE8F083AA
:101614001CF8019BA9F10A07FFB2162F03D828FA78
:1016240007F7FF07EAD41EF809700131402F08BFFD
:10163400013C07F03F07042947EA8515DED17CB158
:10164400290C012C197002D101330021D6E7022C98
:101654004FEA1521597016BF9D7002330333F4E726
:101664002146CBE7B48B000009004000014B1B6806
:10167400184700BF0800002007B50B4600210246AA
:101684000091034800F0EAF803B05DF804FB00BFE2
:10169400711600002DE9F74FB0F81890044619F0C0
:1016A400080893460ED001290CBF49F0100949F0EF
:1016B4002009A0F818908BF31188BFF36F8F03B043
:1016C400BDE8F08FDFF890A109F00709022907D1DE
:1016D400204605F0ECFB0028EDD00128238B4BD1EC
:1016E4006769218B002F15DA256821F00701C4E909
:1016F400008841F0010121830026218B01F00702BB
:101704004A4502D0A368002B57D10DB9002E6FD0E3
:10171400002353E001F007035A1F012A1DD821F0CA
:101724000701062B256889B2C4E900880AD13DB1B6
:101734002A46638B126801339BB2002AFAD1638371
:1017440041F002012046218305F0B1FB0028D3D0EB
:10175400238B43F020032383CEE7042B0AD121F00B
:10176400070189B22046218305F0A1FB10B141F0A5
:10177400200121830025BFE7032809D1226923F032
:101784000703166843F00603002523832F46B4E7B6
:10179400042806D1226923F00703566843F00403A2
:1017A400F2E7052806D1226923F00703966843F07F
:1017B4000503E9E700252E46E8E7012341F0080187
:1017C40021838BF31188BFF36F8F03BB002D31D1BD
:1017D40016B151462046B0474FF02003EFF3118B6A
:1017E40083F31288BFF36F8F238B23F008032383C3
:1017F400238BDA0627D5012123F010032383B4F8C1
:10180400189009F0070900297FF460AF53E7A16835
:101814000029DBD0D1F800903B462046D1F804B033
:101824000192D847019AB9F1000FCFD04946D9F8AF
:101834000090F1E729463B46204601922D6805F0C9
:1018440052FB019AC2E713F020011EBF23F02003CC
:1018540002212383D3E700BF176F00002DE9F04F67
:101864008A464FF000098FB01D46531E0190029323
:10187400029B58785C1C252821D14FF0000C4FF0B6
:10188400FF37184661463C460A260230CDF80CC0A4
:1018940002780290392A00F1010059D81F2A18D879
:1018A400002A00F0F7815146019B25209847029BAE
:1018B40051461878019B984709F10209D8E7002896
:1018C40000F0E8815146019B984709F1010902940F
:1018D400CEE7A2F12003192BE5D80FF2080E5EF82B
:1018E40023F000BF51190000AB180000AB18000032
:1018F40051190000AB180000D5190000AB18000006
:10190400AB180000AB180000AB180000171A000059
:1019140051190000AB1800002B1A0000E319000055
:10192400AB180000EF1900000B1A00000B1A00009E
:101934000B1A00000B1A00000B1A00000B1A00000F
:101944000B1A00000B1A00000B1A000094469FE7C4
:10195400582A00F01B81A2F163035FFA83FEBEF1F3
:10196400170FA0D8172B9ED80FF2040E5EF823F0A1
:10197400F31B0000511A0000AB180000AB18000064
:10198400AB180000311A0000511A0000AB18000017
:10199400AB180000311A0000AB180000AB180000AF
:1019A400AB1800003B1B0000AB180000AB18000094
:1019B400D31B0000AB180000511A0000AB18000044
:1019C400AB1800003B1B0000AB180000311A0000EC
:1019D40051462520019B984709F1010948E7039BDB
:1019E400002703F0FE03039352E7002C0BDA002FC9
:1019F4000BDA039B002B00F0498124EAE47406FB14
:101A04000424303C44E7002FF7DB06FB0727303F74
:101A14003EE7002F55F8043B01DB1F4638E71C1E48
:101A2400BFF636AF64420223039331E7682A03D139
:101A3400682906D148212BE76C2A02D16C2900F0D1
:101A4400278100297FF42FAF114621E77A2907D196
:101A5400752A05F104062D6862D14FF000080DE0E7
:101A64006C29F5D04C29F3D1EB1D23F007031E4656
:101A7400752AF6E8020107D1D3E90058BCF1200F1A
:101A840051D1864B013C09E005468846B8F1000F68
:101A9400F4DA6D42824B68EB4808013C4FF0000BCE
:101AA40000930DAB0593284641460A220023CDF846
:101AB40010B0FEF745FB059B303203F80129CDE950
:101AC40005352846002341460A22CDF81C80FEF73E
:101AD40037FB069B05460A2B079B884673F10003D8
:101AE4000BF1FF3BDFD2049B049AC3F1010B0EAB55
:101AF4009D18002FA5F1040504DA039B13F0010FD0
:101B040018BF2746039BA7EB0B08B8F1000FD4BFFF
:101B1400A4EB0B04E41B9B0700F18180274677E0CC
:101B24004FEAE578B2E7BCF12B0F0ABF5D4B5E4B81
:101B340004F1FF34B2E7702A28D12E4656F8041B6C
:101B4400002300295CD059480090023C002502F093
:101B54006002A2F139080DF1340E01F00F02092AD6
:101B640088BF424430320EF8012910294FEA11127D
:101B740042EA03724FEA131073F1000305F1FF3CCC
:101B840021D20EABC5F1010B1D44B2E76C2904D17F
:101B94002E46002356F8041B08E04C29F8D10735DB
:101BA40025F007052E466B6856F8081BBCF1230F79
:101BB40006D13F4D12F0200F3C4808BF2846C3E72A
:101BC40039480090C2E7654611460346C5E72E46EC
:101BD40056F8045B284605F057FD002F834602DBC8
:101BE400B842A8BFBB46304B002700938AE72E4675
:101BF40056F8043B4FF0010B8DF8203008ADF2E7A6
:101C04004FF0050B2B4DEEE751462020019B9847E2
:101C1400013FF9D524EAE473013C9944E41A009B9A
:101C2400A9EB030904E000935146019B9847009BEC
:101C340009EB030713F8010B0028F4D1C146B9F1ED
:101C4400010913D5D94628EAE878B9F1010912D572
:101C5400BBF1000FA8BFD8442546013D11D5002C87
:101C6400A8BFA044354608EB070901E65146019B8D
:101C740030209847E3E7514615F8010B019B98473C
:101C8400E3E75146019B20209847E6E70123CBE692
:101C94004C21FDE548460FB0BDE8F08F7891000077
:101CA400748C0000768C00005A8700007B8C000046
:101CB400788C00007E8C000008B54FF02002EFF312
:101CC400118382F31288BFF36F8F01F0EBF803489E
:101CD40005F0E0F800F0D0FDFCE700BF848C0000C4
:101CE4004FF02002EFF3118382F31288BFF36F8F5A
:101CF4000121044AC2F8401583F31188BFF36F8FA2
:101D0400002070470090035020B1034B800143F042
:101D140001031847704700BF9083000002F0E6BA41
:101D2400114B70B51B680C468BB1104A1168002228
:101D34008A4202DB6FF0010070BD1D4613F8106B80
:101D4400864207D00132F3E700202560F4E76FF004
:101D54000C00F1E7E86818B106F03CF90028F3D16B
:101D64006FF01200E8E700BF0C0000203084000090
:101D740070B588B005460C46C0B269461646FFF7F2
:101D8400CFFF00281BDB0098C8B143682268029388
:101D940083680195CDE903360023C568CDE90623A0
:101DA400059305F03EF96DB12846084901AA05F0EE
:101DB400E8FD079808B9059B236008B070BD6FF073
:101DC4001500FAE76FF01200F7E700BFC7700000D4
:101DD400014803F021B900BF34840000F7B5244E54
:101DE400306883685B6C03B19847306883685B6BC9
:101DF400A3B9204C204D306883689B698BB10122C4
:101E04000DF10701984701280BD1236893B92B687A
:101E14004BB94521194805F0F7F802E09847002826
:101E2400E7D103B0F0BD69681A688B422A6000D11B
:101E34006A602360124A9DF807001188B1F5007F9B
:101E440004D223684F1C0B44178018720A28D2D17D
:101E5400002023681188186059600A494D6825B923
:101E6400C1E9003310802060C4E72B604B60F9E7C0
:101E740058120020380E0020300E0020B18C0000D3
:101E84005413002050120020044B10B50446186867
:101E94008368E1B25B689847204610BD5812002061
:101EA400F8B50646154608464FF02003EFF3118CAB
:101EB40083F31288BFF36F8F18490B6843B1184A34
:101EC40054689C4204D000271F609CB9C2E90033C7
:101ED400144A13682BB157681C68BB42146008BFCE
:101EE40054608CF31188BFF36F8F0B602BB91846C5
:101EF4002B60F8BD23605360EAE75C6803F10801D6
:101F0400A042D8BF00F1FF342246304605F0ECFB76
:101F14000023335501232B60E018EAE73C0E002030
:101F2400300E00205012002037B500251C4B1D4AEE
:101F3400C3E900551C4B1D4C1D4803F50271136089
:101F4400C3F8085219605160206006F043F810B3DA
:101F54002068836823B19B6C13B12A4615499847BE
:101F6400206883685B6B0BB1984748B1206883682D
:101F74009B6903B9FEE701220DF107019847F4E7D5
:101F840000250D4B20681D8083689B6A33B19847F8
:101F9400284603B030BD4FF0FF30FAE71846F8E7A3
:101FA40050120020300E0020400E00205812002055
:101FB400DC800000E11D00005413002040F60613ED
:101FC40000202DE9F043DFF8FC90D9B0D9F80010D7
:101FD400ADF80830374BDFF8F0801E680B78A6EBBD
:101FE400080601330B7073BA4B808B8808225BBAE6
:101FF4008B80487004F01BFF32464146ADF80C005C
:1020040004F015FF02272C4D40BA2B68B4B2ADF88A
:102014000C00022102A85B68984704F10A035BBA2A
:102024000DF10E01022205A8ADF80E3005F05CFB9F
:10203400D9F8001008220DF11600ADF80E7005F065
:1020440053FBBDF80E0005AB083080B23246414662
:10205400ADF80E00184405F047FBBDF80E0005ABC3
:10206400204480B23A46ADF80E0003A9184405F0A6
:102074003BFBBDF80E3004AA3B449BB2ADF80E30D6
:102084000093BD2105AB28A8FFF7D2F904992B686A
:10209400ADF80E1028A85B6889B298472B68012117
:1020A4005B68064898474921054804F0ADFF59B0DC
:1020B400BDE8F083641200205C1200205987000000
:1020C400EF8C00006012002058140020F7B506467B
:1020D400B3680C469A4210461AD291421CDC6946F7
:1020E400FEF75CFAA0B9DDE900531D4422464921FC
:1020F4000B486B1E2F1B04F087FF3A4621463046DF
:1021040004F0BAFF024630B14521064804F07CFFD2
:102114006FF0150400E02C46204603B0F0BD00BF6C
:10212400F78C0000148D0000F0B50C68164F85B0D4
:1021340002380D46C4F500710090144B381903AAF7
:102144000131FFF7F5F90446D8B92B68039A134413
:10215400022B2B6012D93E88023B76BAB6B29E425D
:102164000CD13246B91C04F062FE38B9022E05D9EE
:102174002B68023B1F442B60BC700124204605B031
:10218400F0BD4FF0FF34F9E7D8140020DB1600202F
:1021940007B5CDE900016946024805F0A1F903B08D
:1021A4005DF804FB6412002038B505460A4C0A2188
:1021B400204605F0A7F902210848FFF7E9FF294660
:1021C400204605F089F920460A2105F0B9F9BDE851
:1021D4003840FFF7F3BE00BF64120020368D0000C4
:1021E400002307B5054A0093022102F18003044845
:1021F40005F0B5F903B05DF804FB00BF58140020E6
:10220400641200202DE9F04307290446A3B040F2EC
:102214008380037813F0FD067ED14388A1F108057D
:102224005BBA9BB2AB4277D3A84B186083885BBA86
:102234008380FFF7D5FFA088012840F08A81E779E1
:102244003FB1012F7CD0082023B0BDE8F043FFF755
:10225400ABBF01469E4805F055F906219D48FFF79E
:1022640097FF05219A4805F03EF93C46DFF8A08225
:10227400994F974E2146002004F063FA09A9C0B291
:10228400FFF74EFD054600283BD1202301460AAA4C
:10229400099804F0C7FE0A9BBB4242D08F4B1D68CD
:1022A400099804F0BEFED8F80030AB4229D11421BD
:1022B400304605F027F904218948FFF769FF2146D4
:1022C400304605F009F907218648FFF761FF109BA6
:1022D40040210293BDF83E30834A01939DF83D307E
:1022E40012A800939DF83C3000F078FF12A805F086
:1022F400CBF9014612A8FFF74BFF1421304605F035
:102304001FF964B10521724805F00BF921467048A4
:1023140005F016F9FFF752FE23B0BDE8F08301245F
:10232400A8E74023019312AB2946CDE90355029552
:1023340000932846099B0AAAFEF740F90546AFE731
:10234400294609AB12AA04F10800089600F0F8F92E
:1023540028B3032422464921644804F055FE0A2187
:102364005B4805F0CFF802216148FFF711FF2146D1
:10237400574805F0B1F844B903215E48FFF708FF58
:102384005D4B5348196805F0A7F80A21504805F039
:10239400D7F8FFF713FE089804F043FEBCE7099B47
:1023A4009D42D6D14FF0FF3902464E4605460746B8
:1023B400219C12AB944221D1731CCAD0002FC8D0E7
:1023C400002104F0BEF908A9C0B2FFF7A9FC044635
:1023D4000028BED1DFF82081002E6CD10898C8F8FF
:1023E4000040866804F08DFA4449FEF7D7F8C0B17E
:1023F4004521434804F008FE0124ABE7197A032978
:1024040004D8DFE801F00206090C186801320C3325
:10241400D0E7D3E90075F9E7D3F80090F6E71E6832
:10242400F4E74E4595D3374B1C60374BC3F8009007
:10243400D8F80020334E013A316808982A44FFF74F
:1024440045FE0028306084DB089804F02CFEB5FBC0
:10245400F0F303FB1050C1B2A5EB0109D8F800203A
:10246400294D09EB02032E681944B14238BF0020FC
:102474004921C6B2254804F0C7FD4B463A46D8F870
:102484000010089804F0E3FD00287FF462AF002EEA
:1024940040D1D8F800002B68484430449842C8F82A
:1024A40000007FF457AF154B08981A681146FFF7E0
:1024B4000DFEC40F4EE7D8F80030B3427FF44AAFA4
:1024C400114AAB1912689342B2D942E76012002054
:1024D40064120020398D00003DB8F39600000020FE
:1024E400408D0000458D00004D8D0000B78D00002B
:1024F400368D0000C58D000094120020A01200202B
:102504005C8D00009C12002098120020978D000022
:10251400C8010020089804F0CDFD082201460AA84D
:1025240005F0EDF8324607EB09010AA805F0DCF8DE
:10253400089FD8F8001038464944079104F0B3FDC9
:10254400079903460AAA384604F081FD0028A0D062
:10255400FFE600287FF477AEE379012B3FF474AEF5
:10256400052B03D0002B7FF46EAED5E6FFF71CFEDF
:10257400024805F043FD0120FFF79EFB90D00300C5
:1025840001232DE9F34100240646DFF8B080264DEF
:1025940088F80030254B264F0094186000F06CF941
:1025A400244BC4F50071C3F8005601AAC3F80456BD
:1025B4000131C3F808563819C3F80C56C3F810563D
:1025C400C3F81456C3F81856C3F81C563368984712
:1025D4000028019B00DC33B104445BB940F20123C1
:1025E4009C4200D1002498F80030002BD6D102B0D0
:1025F400BDE8F0813B78062B09D17B78092B0BD100
:10260400002300936946A01EFFF78EFD04E0042B0F
:1026140002D17B78142BF5D00128E3D10099064828
:102624000239FFF7EFFDDDE73546526E5C120020FC
:10263400D916002000800150DA140020571400201D
:1026440073B504460E4604F0DBFF00286BD0374B0D
:102654006946009305232046019304F0B0FE38B187
:102664003146204604F08DFE10B10023337240E061
:10267400204604F0C8FFA8B12D4B694600930423FB
:102684002046019304F09BFE60B13146204604F0DD
:1026940093FE38B101253572204604F0B8FF284670
:1026A40002B070BD204604F0AEFF78B1214B6946FC
:1026B400009303232046019304F081FE30B1314698
:1026C400204604F05EFE08B10223CFE7204604F062
:1026D4009AFF80B10325184B694620460093019563
:1026E40004F06DFE38B13146204604F04AFE10B1C4
:1026F40035720125D0E7204604F085FF08B900258E
:10270400CAE70E4B6946009303232046019304F065
:1027140056FE0028F3D03146204604F04DFE002832
:10272400EDD00423A2E70546B9E700BF948A000070
:10273400C98D0000CE8D0000C58D0000D28D000033
:102744002DE9F0434FF001099DB004AD07460E4654
:1027540090461C4602460B4628460421CDF80090BC
:1027640004F059FF284604F02DFE70B10C23052116
:10277400CDE901834846114B009508F13C0204F071
:1027840042FE50B9284604F039FE0022099BD8685D
:10279400DA60904208BF1F200CE0284604F02CFEAB
:1027A4000028F2D02CB10498C01BB04294BF206022
:1027B400266000201DB0BDE8F08300BF4526000060
:1027C4000B460139425C1AB90029F9D10846704711
:1027D400022B85BF0121044A19469B1882BF13F8B6
:1027E400020C8140C9B2F1E7D68D0000F8B5054668
:1027F4000F46104619461646FFF7E2FF012804D19A
:102804003078172894BF002001202A68E968431C07
:102814001344994204D2082200206B69DA60F8BD9F
:10282400337840B1831E062B8EBF00230E4CE35C2D
:1028340003F11804E3B28A42EDD203F01F0444EA20
:102844004713511C2960137033189E4204D1AB689E
:1028540001200133AB60E2E72A68511C296013F8B8
:10286400011D1170F1E700BFD68D0000014910224F
:102874000A60704710ED00E072B6404080F31188A2
:10288400BFF36F8FBFF34F8F30BF62B6BFF36F8F4D
:10289400704700BF72B6494081F3118820BF80F3AE
:1028A400118862B6704700BF37B505460C46C9B1FA
:1028B4008B6810480093D1E90023452104F0A4FB60
:1028C400636945210093D4E903230B4804F09CFB7E
:1028D4004521E269094804F097FB4521A2690848AB
:1028E40004F092FB2146284603B0BDE8304002F0D4
:1028F400EDB900BFDD8D0000118E0000458E000093
:10290400598E000043B2002B08DB012200F01F00A7
:1029140002FA00F0024A5B0942F82300704700BF44
:1029240000E100E0054B420953F82220012300F0A6
:102934001F0003FA00F01040704700BF00E100E000
:1029440043B2002B01F10101ACBF03F16043064B1C
:102954004FEA4111C9B2ABBF03F5614300F00F0068
:1029640083F800131954704714ED00E030BFFFF7EB
:10297400FDBF00BF144A08B5144B22F07F029A60D1
:10298400BFF34F8FBFF36F8FD3F8882022F4700208
:10299400C3F88820D3F8882042F4A002C3F8882022
:1029A4004FF04042C3F83422BFF34F8FBFF36F8F11
:1029B4000023E1EE103A02F0DFF902F023FA00F00E
:1029C40035FA02F0E5F900BF0000000000ED00E078
:1029D4001EF0040F0CBFEFF30880EFF30980816948
:1029E40011F8021C0229FFD001B504F034FE01BD28
:1029F4000446084611461A460023E1EE103A83F3D2
:102A04000B880A4B2025A3F5205686F30B8883F305
:102A1400098863B64FF0000383F31188BFF36F8F07
:102A2400A04785F31188BFF36F8FFEE700410020B4
:102A340001B5EFF30580A0F110004FEAC00004498E
:102A4400014409C99847BDE801400249084700000C
:102A54000C8100005D2A0000704700BF38B5214C8E
:102A64004521214804F0D0FAA36A9D0103D54521EC
:102A74001E4804F0C9FAA36ADC0103D545211C48A9
:102A840004F0C2FA174DAC6A14F4801404D0452142
:102A9400184804F0B9FA0224AB6A180303D5452197
:102AA400154804F0B1FA0F4DAB6A590303D545211B
:102AB400124804F0A9FAAB6A9A0303D545211048D9
:102AC40004F0A2FA074DAB6ADB0303D545210D4898
:102AD40004F09AFAAB6A20466FEA03436FEA1343A1
:102AE400AB6238BD00ED00E08C8E0000A98E0000C2
:102AF400C18E0000E08E00000F8F0000328F0000B6
:102B04005C8F00007B8F000070B5234C06460D4699
:102B14002248452104F078FAA36AD90403D5452153
:102B24001F4804F071FAA36A1A0503D545211D480C
:102B340004F06AFA184CA36A9B0510D51A4845217B
:102B440004F062FAA26BA36A180408D54521174859
:102B540004F05AFA1EB1A36A23F40043A3620E4C94
:102B6400A36A590503D54521114804F04DFAA36A17
:102B7400DA050BD545210F4804F046FA0020064A31
:102B8400936A43F47F439362287070BDA36A9B04E5
:102B9400F4D545210848EFE700ED00E0AB8F0000D5
:102BA400C68F0000DC8F0000F48F0000129000003C
:102BB4002C9000004C9000006990000070B5264CE9
:102BC40006460D462548452104F01EFAA36AD80698
:102BD40003D54521224804F017FAA36A190703D53F
:102BE4004521204804F010FA1B4CA36A9A0710D51B
:102BF40045211D4804F008FA626BA36A1B0608D538
:102C040045211A4804F000FA1EB1A36A23F0800398
:102C1400A362114CA36ADE0703D54521144804F0CE
:102C2400F3F9A36A980603D54521124804F0ECF998
:102C34000020094B9A6AD10658BF9A6A9A6A92068A
:102C440042BF5A6A22F400525A62034A936A43F01A
:102C5400FF039362287070BD00ED00E09D900000BA
:102C6400B8900000DC8F0000F09000000D9100008F
:102C740028910000699000002DE9F041554B002592
:102C84005E688AB0C6F3080485F31188BFF36F8FBA
:102C940002F07F43B3F17F4F07D102F00C03082BFE
:102CA40005D145214C4804F0AFF92F4604E0120742
:102CB4004EBF0F46074601254FF00008E31E8DF86E
:102CC4000780092B74D8DFE803F005686C6573731B
:102CD400737373703F4E4521404804F095F9F46ACC
:102CE4008DF8078014F0020405D045213C4804F017
:102CF4008BF9002406E0F36A002B1DDA45213948DC
:102D040004F082F99DF807309BB92022394602A8C5
:102D140004F0EAFC099B002D57D0C3F3080222B942
:102D24006FEA53236FEA43230993204602A9FFF76E
:102D3400BBFD0AB0BDE8F081F36A5B00E2D5452132
:102D4400294804F061F9BB6933F8022C4DF602738B
:102D54009A4209D0B36ADBB26BB101200DF10701CD
:102D6400FFF72CFF0446CDE745213A681F4804F0DD
:102D74004BF93C68C6E7B36A13F47F4F05D00120D2
:102D84000DF10701FFF7C0FEECE7B36A1B0C1B044F
:102D9400002BB7D0FFF762FEE4E700200DF1070136
:102DA400DEE700200DF10701ECE7452110489EE71E
:102DB400104916F4F87F104A104808BF0A46A4F1D7
:102DC4001003452104F020F993E723F4FF7323F063
:102DD4000103A9E700ED00E07A910000AA91000048
:102DE400C6910000EC910000FF91000023920000C6
:102DF400449200004C910000619100006D9200002B
:102E0400044B5A6942F010025A615A6942F48062D2
:102E14005A61704700ED00E0EFF30880EFF3098199
:102E240001B57246FFF728FF01BD00BF0023202132
:102E34000348C2180133412B82F80013F9D17047BB
:102E440000E100E0002080F31488BFF36F8F0020BE
:102E540080F30A8880F30B88FEF760FF00200E4998
:102E64000860BFF34F8F0D4880F3088800F03EF8E8
:102E7400202080F311880A484FF40061401880F341
:102E84000988EFF314800221084380F31488BFF308
:102E94006F8FFFF76FFD000094ED00E0004100200C
:102EA40000410020BFF34F8F0549064BCA6802F466
:102EB400E0621343CB60BFF34F8F00BFFDE700BF59
:102EC40000ED00E00400FA05002318460649D1F895
:102ED4009020C2F30722934200D17047C1F8983082
:102EE400C1F8A0000133F6E700ED00E010B572B6BA
:102EF400002484F31388FFF7E7FF23464FF0FF30E5
:102F04000B4A03F120010133102B42F82100F8D1C0
:102F140000234FF0FF3003F160010133102B42F81E
:102F24002100F8D162B6BFF34F8FBFF36F8F10BD8E
:102F340000E100E00121024B024A034800F01EB9FF
:102F440000600120000000203C84000010B50B68E4
:102F54000C7A23F01F0204F01F031A43CB686409A0
:102F640023F01F03054943EA440343F00103C1F876
:102F74009800C1F89C20C1F8A03010BD00ED00E01D
:102F840030B54B680C6885B00A894D890094013BC3
:102F940024F01F04234402F01F0242EA451223F0E6
:102FA4001F030F2804468DF80820039309D902460D
:102FB4004521064804F028F86FF01504204605B0B2
:102FC40030BD6946FFF7C2FFF8E700BF89920000F1
:102FD4002DE9F04F8946144606464FF00008584D37
:102FE40085B0C84527DAD6F804A0BAF1000F44D05A
:102FF400BAF11F0F18D91AF01F0F15D1D6F800B067
:103004001BF01F0F10D1584604F034FB07460AEB9F
:103014000B00013804F02EFB874210D06FF0150727
:103024003A464521474802E042464521464803F0D6
:10303400EBFF6FF01504204605B0BDE8F08F17F1E3
:10304400160FEDD0BC42EBDDC5F89870D5F89C1096
:10305400C5F89870D5F8A03021F01F0143F01F0B7C
:10306400D6E900321A44994202F1FF3A1DD1D34500
:1030740007D13146F8B2FFF783FF08F101080C3697
:10308400AFE73146C5F89870D5F89C3022F01F029E
:1030940003F01F031A43C5F89C20E0B2FFF770FF4A
:1030A40010F1160FC5D0441CE7E7013BD345E0B24D
:1030B40023F01F03C5F8987008D1D5F8A020314635
:1030C40002F01F021343C5F8A030E7E7D5F8A010BB
:1030D40001F01F010B43C5F8A0303146FFF750FF44
:1030E40010F1160FA5D0C5F89870D5F89C209DF85E
:1030F40008300BF1FF3B62F304038DF80830D5F878
:10310400A0309DF808205B0863F34712D6E900312C
:103114000B44009323F01F0301305B44A3EB0A0329
:10312400C0B223F01F030F288DF80820039303D99E
:103134000246452105487AE76946FFF707FFB2E7EB
:1031440000ED00E0DC920000B492000089920000DF
:103154000522044BC3F89420BFF34F8FBFF36F8F46
:10316400704700BF00ED00E0BFF35F8F0022024B09
:10317400C3F89420704700BF00ED00E010B5034C85
:103184002278FFF725FF207010BD00BFDA18002059
:1031940038B50E4D2C68102C15D80020FFF7E4FF2D
:1031A4000B4B0C4AC3F8C020844205D10A4B0020C3
:1031B4001C70FFF7CDFF38BD696801EB0011FFF704
:1031C400C5FE0130F0E74FF0FF30F4E7488400001B
:1031D40000ED00E0AAFF4400DA1800200CB410B59A
:1031E40086B009B90DF10B000024CDE9040109AB47
:1031F400089A009404A905480393FEF72FFB049B47
:103204001C7006B0BDE8104002B07047157700008E
:10321400084B70B5C31A0D4607499B100446594321
:103224004022064804F09DFA2B4601462046BDE89C
:1032340070401847B8120020B76DDBB6AC800000B0
:10324400402373B50B4C0093041B0B460D460A49EF
:10325400A41061430646094A094804F0AFFA011E66
:1032640005DA30462B4602B0BDE87040184702B07C
:1032740070BD00BFB8120020B76DDBB63378000014
:10328400AC80000070B50022012104460520FFF740
:1032940057FB0F4801F034F90E4B984215D104F056
:1032A4003EFE26690C49304603F051FE00280BDB34
:1032B400012524690849356404F11C0003F047FE24
:1032C400002801DB0020E56470BD6FF00400FBE71B
:1032D4001D3300000000AD0BA484000073B50C2363
:1032E400014600264B430A48C4184033D4E90E5221
:1032F4001844A663019204F021FA35B12B46019AD1
:10330400044802B0BDE87040184702B070BD00BF69
:10331400B8120020AC80000010B1012804D070471E
:10332400034B1B6C5B0701D1FFF7D8BF704700BF8D
:10333400B812002008B54FF02003EFF3118183F396
:103344001288BFF36F8F124A136843F0020013F020
:10335400010310600CD04FF05022D2F80C34D2F894
:103364000C2413F0010303D00A4804F0E7F9012305
:1033740081F31188BFF36F8F23B1BDE808400020AB
:10338400FFF7ACBF0120BDE8084004F0D6BD00BF84
:1033940008130020F8120020074BD3E8EF2F22F087
:1033A4000201C3E8E01F0028F7D1D30702D40120AB
:1033B40004F004BE704700BF081300202DE9F84351
:1033C400012207463549D1E8EF3FC1E8E02F002844
:1033D400F9D133B9324933484B60CB608A6003F08A
:1033E400C9FD7B1E012B31D8012F07D14FF050238B
:1033F400D3F81C3403F00303022B27D004F0F8FDA8
:10340400044618B9284B1B78002B3FD14FF02003FA
:10341400EFF3118683F31288BFF36F8F01244FF00B
:1034240050254FF00008DFF88490D5F81834D5F80B
:103434001824D2030CD503F00303022B01D0012F6F
:1034440006D1ECB186F31188BFF36F8FBDE8F88322
:103454003046FFF71FFAD5F81835DBB2012BE4D15B
:10346400D5F80421002AE0D0C5F80481D5F8042158
:103474000222C5F818252022C9F88021AB60D4E7C0
:103484004FF050230222C3F80423DFE74FF0502308
:1034940002220646C3F80823C1E700BF0C1300202C
:1034A400A8120020D4120020FD18002000E100E042
:1034B40030B5406801F01F05047BB2F5001F45EAF2
:1034C400441585B04FF0000405D1284601F0A6FA52
:1034D400002005B030BDB2F5800FCDE902442ED1F5
:1034E400B3F1007F0CBF042305238DF808308368F3
:1034F40023FA01F1C90714D4B2F1A07F11D11B4AF8
:1035040005F01F03803352F82330DB0709D40DF193
:1035140007042146284601F0E9F9154B984219D0D1
:10352400039400232846194602AA01F0B5F8114B6A
:10353400984218D10121284601F02CFAC8E7B3F1CA
:10354400C06F05D0B3F1007F0CBF02230123CCE789
:103554000323CAE7204601F017FA064B9842DFD04E
:103564006FF00B00B5E76FF01500B2E7002584504B
:103574000400AD0B0000AD0B10B501F0F5F90446E5
:1035840068B901F0C9F9084B98420AD121460748A5
:1035940001F0A6F9224605210D20FFF7D1F90020FC
:1035A40010BD6FF00400FBE70000AD0BB535000063
:1035B400430970B511D1094B596871B101230C68E5
:1035C400074E03FA00F58A682A4002D030464B6859
:1035D400984714B121462468F5E770BD1013002004
:1035E400C48000002DE9F043D0F8048001F01F06E8
:1035F40098F80C3085B046EA431614460F46304618
:103604000DF1030101F072F914F4403581460BD138
:10361400304601F02BFA424B994503D19DF8030043
:1036240001F0ACF9002056E000233046194602AA06
:10363400CDE9023301F030F8394B984202D06FF0F3
:10364400150048E0814503D19DF8030001F096F987
:10365400A50352D540F206332340B3F5837F3DD012
:103664000CD8062B15D004D89BB1022BE7D1042328
:103674000FE0B3F5807FE2D101230AE040F2022299
:1036840093422DD0B3F5407F2CD0B3F5007FD6D133
:1036940002238DF8043084F48033C3F30043E0063E
:1036A4008DF805304CBF0323C4F3401321038DF878
:1036B400063019D50121D8F8043001FA07F79F60C4
:1036C4000022304601A901F091F8154B984214BF2D
:1036D4006FF01500002005B0BDE8F0830723D8E79C
:1036E4000523D6E70323D4E7620341BF0121D8F8B9
:1036F400043001FA07F7DF60E2E7E3064FF0000366
:103704004CBF0324C4F340141A46304601A98DF873
:10371400044000F0C1FF024B984283D08FE700BF02
:103724000000AD0B024B0B6001231360704700BF18
:103734001C13002000487047F884000010B504F002
:1037440045FC034C206004F03EFC6060002010BD8A
:103754001C130020F8B50E46144604F034FC214630
:103764000546304604F0C1F83746F8B1B6FBF5F328
:1037740005FB136323B9B4FBF5F305FB134040B118
:103784002346324645210C4803F03EFC6FF01500F9
:103794000BE0A54209D804F016FC0546384601F0B2
:1037A40047FA641B2F44F9D12046F8BD234632461C
:1037B40045210248E8E700BF4493000068930000F5
:1037C400F8B50E461946304617461C4604F08DF8E7
:1037D40040B9234632464521124803F015FC6FF0E8
:1037E4001500F8BD44EA060515F0030504D0234688
:1037F400324645210C48F0E78CB124F00304AC4276
:1038040005EB060006D1094AD2F80034DB07FBD5E4
:103814000020E6E7795901F029FA0435EFE720465C
:10382400DFE700BF689300008A9300000090035014
:1038340037B50C46194620460193154604F055F851
:10384400019B40B909482246452103F0DDFB6FF096
:10385400150003B030BD33B11A462146284603F0A3
:1038640043FF0020F5E71846F3E700BF6893000024
:103874002DE9F04104460D46076904F0B9FB10B97F
:103884001F4B1B78ABB94FF02003EFF3118883F380
:103894001288BFF36F8F6068464604F066F908BB70
:1038A40088F31188BFF36F8FEDE788F31188BFF3B6
:1038B4006F8F6426606804F058F928B9012004F079
:1038C400E0FA013EF6D1F4E74FF02003EFF311885C
:1038D40083F31288BFF36F8F6068464604F045F99E
:1038E4000028E2D07B6901221D707969606804F0C8
:1038F40021F986F31188BFF36F8FBDE8F08100BF13
:10390400FD180020F0B54B79012B26D0032B21D1D3
:1039140010268B79032B1DD1CC790CB1012C19D134
:103924000A7912B1022A15D10E220B684568B3F543
:10393400164F2D6865D02DD8B3F5165F64D016D810
:10394400B3F5966F62D00AD8B3F5967F61D0B3F51C
:10395400167F61D06FF0850052E00026D9E7B3F5F9
:10396400166F5CD0B3F5965FF4D1374B3CE0B3F5FA
:10397400E14F57D007D8B3F5615F55D0B3F5964FF3
:10398400E8D1324B30E047F61227BB42E2D14FF484
:10399400000329E0B3F5613F48D013D8B3F5963F4F
:1039A40047D009D84DF6C027BB4244D0B3F5614F88
:1039B400D0D14FF46B0317E0B3F5E13FCAD14FF018
:1039C400EB7311E0B3F5612F38D008D8204FBB4218
:1039D40037D0B3F5E12FBDD14FF0E86304E01D4FBC
:1039E400BB42B7D14FF0805300693443C5F8243546
:1039F4002243031DC5F86C2503C983E80300002096
:103A0400F0BD4FF41D03EFE7134BEDE74FF49E2396
:103A1400EAE74FF4A033E7E74FF41C33E4E74FF44D
:103A24001D23E1E70D4BDFE70D4BDDE74FF06C7332
:103A3400DAE70C4BD8E74FF46503D5E74FF0706332
:103A4400D2E74FF08063CFE700B0130000A04E0030
:103A540090D0030040420F000050270000C07500C2
:103A640000F03A0000903A012DE9F743074600229E
:103A740001210820FEF764FF0820FEF743FF002120
:103A8400D7F804803E69D8F80040D8F80C90C4F800
:103A940000154846376001AA04F00FF9051E1FDB24
:103AA400019BD9F800201979186800F0B9FA051EAD
:103AB40016DB3846311DFFF725FF054680B9D8F8D7
:103AC400043099071CD506F11C0000F05DFD214B64
:103AD400984209D04521204803F096FA6FF0040576
:103AE400284603B0BDE8F083327F42F00043C4F8B7
:103AF400A031C4F88C3001239340184AC2F804352D
:103B04000823C4F8003598F8083053B9C4F81031C4
:103B1400D4F81031B369C4F834350123C4F8383506
:103B24002360D8F804309A075CBF4FF48072C4F85D
:103B34000423DB0644BF4FF48003C4F804337369E1
:103B4400C4F844350023C4F848350123A360E36076
:103B5400C6E700BF0000AD0BCE930000007001501B
:103B64000123834010B5DC430D4AD2E8EF1F01EA7C
:103B7400040CC2E8EECFBEF1000FF6D14FF4803250
:103B840002FA00F002F15022C2F80803BFF35F8F7B
:103B9400BFF36F8F0B4214BF0120002010BD00BF84
:103BA400281300201949F8B5044622F07F45086817
:103BB400C1E90023A5F50013101AB3F5400F22D272
:103BC400134B1B681A0A1B065E19124B42F10007BD
:103BD400C3E90067012601F071F9A30003F1502342
:103BE40003F58033D3F84025AA420BD11EB94FF414
:103BF4000002C3F840254FF48030074B00FA04F468
:103C0400C3F84443F8BD0026E5E700BF38010020AF
:103C14002C1300202001002000500150E1B10123A9
:103C24000E4A8340D2E8EF1F1943C2E8EC1FBCF1EF
:103C3400000FF7D14FF48033094A8340C2F80433AC
:103C4400084BD3E8AF3F23FA00F0C30742BF4FF459
:103C54000012054BC3F80021704700BF2813002051
:103C6400005001502413002000E100E00D4B1868BF
:103C7400010A0006BFF35F8F0B4BD3F80435181805
:103C840041F10001B3F5801F0AD2084BD3E90023A8
:103C9400904271EB030303D210F1807041F10001F3
:103CA400704700BF2C130020005001502001002059
:103CB4002DE9F04F2DED028B85B01646984605464A
:103CC400FFF74EFF08EE100AFFF7D0FFB04271EB8A
:103CD400080379D2444B301A68EB0101984271F120
:103CE40000037ED2414B03EB0513D3E902ABD84565
:103CF40008BF564550D04FF4803326F07F42144617
:103D04004FEA850905F1500709F15029BF00AB407E
:103D140009F58039BFB207F150270193D9F840055E
:103D2400334B07F58037D3F80415401A20F07F4051
:103D340021F07F4C0128C9F840C507D1CDE9022103
:103D4400132004F05BF9DDE90221294B01F1020C97
:103D5400A4EB0C0020F07F40B0F5000F88BF644650
:103D64000020386038680198C3F8440324F07F4089
:103D7400C9F84005D3F80405814206D0201A023858
:103D840020F07F40B0F5000F1CD8A41A24F07F4423
:103D940014EB060A48F1000B0024144910982B0177
:103DA40001EB0512C850C2E902AB119B53602846CF
:103DB40018EE101AFFF732FF204605B0BDEC028B57
:103DC400BDE8F08F2046AEE701230A4AAB40D2E8B3
:103DD400EF1F1943C2E8E01F0028F8D1B246C346DA
:103DE400DAE76FF01504E2E7010000012801002082
:103DF400005001502413002073B500244FF0FF300D
:103E04004FF0FF31164D174BC5F80845C3E90201C1
:103E14004FF4803302264FF40012C5F80433124BDA
:103E24000121C5F804631520C3F880212246FEF75A
:103E340087FD1520FEF766FD01230C4AAB602B605D
:103E440013600B4B0B4A0093204600230194FFF7A9
:103E54002FFF3046FFF7B2FA204602B070BD00BF14
:103E6400005001502801002000E100E02813002048
:103E7400A93B0000FFFF7F00354B2DE9F743D3F842
:103E8400042391070BD5D3F8042142B10022C3F8CF
:103E94000421304AD3F804311368013313604FF01E
:103EA4002003EFF3118183F31288BFF36F8F284B44
:103EB400D3F80423D2030DD5274AD2E8EF0F20F01C
:103EC4000104C2E8E54F002DF7D1002836D1D3F81C
:103ED40040219ABB002381F31188BFF36F8F53B342
:103EE400FFF7C4FE4FF02003EFF3118783F312882A
:103EF400BFF36F8F194BD3E90245A04271EB050262
:103F04004FF0000221D3D3E900164FF0FF384FF0F1
:103F1400FF391A604FF48032C3E902890C4BC3F8AD
:103F2400482387F31188BFF36F8F21B122462B46B4
:103F340000200096884703B0BDE8F0830022C3F850
:103F44004021D3F840310123C5E71146E9E700BF1A
:103F5400005001502C1300202413002028010020BD
:103F6400431C13B520D0012820DDB0F5000F1FDA63
:103F7400441EFFF77BFE0F4BD3E90013401AB0F544
:103F8400000F28BF0024013002190B48824228BFC9
:103F940002460020521809490190009143F10003A0
:103FA400FFF786FE02B010BD0348E1E70024E0E716
:103FB400014CDEE738010020FFFF7F00A93B000031
:103FC40008B5FFF753FE024B1B68C01A08BD00BFBB
:103FD40038010020012300F01F0003FA00F0034B16
:103FE40009B9D86070479860704700BF00258450B5
:103FF40010B500F48054002C1CBF0021012200F0F5
:104004001F041B02C0F3811043EA80030B4343EAFD
:104014004202024B803443F8242010BD0025845012
:104024002DE9F341154604460127DFF8C08000EB73
:104034008106B44203D1002002B0BDE8F0812068BB
:10404400B0F5802FC0F303234FEA10420ED2013A99
:1040540000F03F00022A0FD8DFE802F01922250001
:10406400032A06D8DFE802F02230363C163A032A47
:10407400F6D96FF08500DFE7C5F80C05226802F079
:104084001F0207FA02F2C8F80820012202E0C5F86C
:104094001405002220681146FFF7AAFF0434C8E77C
:1040A400C5F80805EAE7C5F81005F2E700F03F0097
:1040B4000193C5F860052068C0F3403100F03F006B
:1040C400FFF788FF019BE0E700F03F000193C5F88C
:1040D4006405F0E700F03F000193C5F86805EAE7DE
:1040E40000F03F000193C5F86C05E4E70025845017
:1040F4000348452108B502F087FF0020FEF7D2FEF1
:104104000C94000030B5816885B0103921F00704A3
:10411400054602F0CFFF10220146684603F0EFFA8D
:1041240010226846064903F0DFFA10236A46214646
:10413400284602F08CFF003818BF012005B030BDBE
:104144001487000030B50C46816887B0102302AA9A
:104154001039054602F066FF002802DA012007B094
:1041640030BD1022284602A903F0CAFD90B30323F0
:104174002370284603F0D5FD012301460DF1070203
:10418400284602F04FFF0028E8DB9DF80730284658
:1041940003F00F021B096270237101220DF1070164
:1041A40003F0AEFD10B96378042B03D901236370C7
:1041B40000232371AA682846183A22F00702083A15
:1041C400A11C03F0C8FD0028C8D12846E11C03F057
:1041D4001CFEC4E71022044902A803F05CFA00287C
:1041E40014BF02230123C3E7148700002DE9F04321
:1041F40085B006466946012003F00DFE054618B158
:10420400FF2005B0BDE8F083032002A903F003FEFC
:10421400012804463FD1324649212C4802F0F4FEDD
:1042240003238DF809408DF808308DF80A308DF895
:104234000B308DF80C5000229DF800509DF808605A
:104244009DF803709DF80B809DF80290204C294640
:10425400207803F06CFD18B33146607803F067FDF5
:10426400F0B1A378042B01D0BB4219D1E378042B1D
:1042740001D0434514D12379042B0FD16379022B48
:1042840019D1144A1448492102F0BEFE6079831EF4
:10429400022BB6D9B4E70028CDD0B1E74B45EDD019
:1042A4000132032A04F10604D1D10C48492102F059
:1042B400ABFE0120A5E7032B05D0094A0949042BCD
:1042C40018BF0A46DEE7084ADCE700BF5194000045
:1042D400C4940000359400009C940000AF94000046
:1042E4002E9400003F9400003A94000008B54FF467
:1042F4007F03D3F83021D3F83431BFF34F8F092A29
:1043040001BF4FF050230022C3F81421C3F8182131
:1043140003F0A6FD28B10122514BC3F8382AC3F893
:1043240078254FF47F03D3F83021D3F83431BFF329
:104334004F8F092A05D1012B1EBF0122484BC3F818
:10434400782503F08DFD18B10E22464BC3F8E42EF8
:104354004FF47F03D3F83021D3F83431BFF34F8FB8
:10436400092A06D100223E4BC3F80C270122C3F8C8
:1043740010270022D30003F57F03D3F80013BFF303
:104384004F8F013108D0D3F800130132D3F804332E
:10439400B2F5807F0B60EDD1334BDA69BFF34F8FF9
:1043A400D10743D5314BD3F80024012AFBD1C3F8FC
:1043B4000425D3F80024012AFBD12B4BDA69BFF37F
:1043C4004F8FD2070AD5DA6922F00102DA61BFF30E
:1043D4004F8F264AD2F80034012BFBD1224A136AAC
:1043E400BFF34F8F01330CD1136A23F0FF0343F063
:1043F40020031362BFF34F8F1C4AD2F80034012B01
:10440400FBD10022194BC3F80425D3F80024012A58
:10441400FBD1BFF34F8F1649164BCA6802F4E06212
:104424001343CB60BFF34F8F00BFFDE71B6ABFF39D
:104434004F8F0133B6D00E4BD3F88C2042F4406238
:10444400C3F88C20D3F8882042F47002C3F8882083
:10445400BFF34F8FBFF36F8F074B084A1A6008BD35
:104464000040005000A003500080FF000090035063
:1044740000ED00E00400FA05440000200090D003A1
:1044840070B501250268B2FA82F3C3F11F035E1C02
:10449400DCB210D005FA03F322EA0303D0E8EF6F8D
:1044A400964204D1C0E8EC3FBCF1000FF6D1E9D14B
:1044B40002480C7070BD0248FCE700BF0000AD0B61
:1044C4000200AD0B036810B5CB40DB0711D4012308
:1044D40003FA01F1036841EA0302D0E8EF4F9C427A
:1044E40004D1C0E8EC2FBCF1000FF6D1F2D10248A0
:1044F40010BD0248FCE700BF0000AD0B0400AD0B8B
:10450400044B1A7922B9012218601A7102487047C3
:1045140002487047301300200000AD0B0C00AD0BB7
:104524004FF05023D3F8002110B552B10020C3F846
:104534000001D3F800210122C3F80823114B1B68A2
:1045440098474FF05023D3F804218AB10022C3F8CE
:104554000421D3F80421D3F81824D3F8181402F052
:104564000302012A4FF0020103D1C3F818159A601F
:1045740010BDC3F80813034B0120BDE810401B68AD
:10458400184700BF3013002001460148FFF778BFE9
:1045940048000020064A00F01F0002EB8000D0F81B
:1045A400003223F4403343EA0141C0F8001270475B
:1045B40000258450034B083033F81000C0F340103A
:1045C400704700BF4C00002070B50D4C00F108038B
:1045D40034F813300546DA050E4607D5C3F34323F2
:1045E40004EBC302526854F833309847A3682BB1E4
:1045F40031462846E268BDE87040184770BD00BFE8
:104604004C000020134A083032F8103010B4D90599
:104614001CD5C3F3432123F4F85322F810300020AF
:1046240002F1100434F8023B13F4807F03D0C3F387
:10463400432399420AD001302028F3D100230648AD
:104644005DF8044B42F83130FFF73CBF5DF8044B92
:10465400704700BF4C000020A000002038B502467F
:10466400FFF7A8FF0B4C02F1080560B1002134F8F4
:1046740015305B0B9B0003F1A04303F55043C3F8D3
:104684001015C3F810151046FFF7BCFF002324F8DB
:10469400153038BD4C0000202DE9F34104461D4679
:1046A40009B34D4F00F1080837F81860B30706D571
:1046B400FFF780FF18B1494802B0BDE8F081484BCC
:1046C40004F01F0003EB8000D0F80032097823F0D7
:1046D4000F0326F0020643EA810346F00106C0F800
:1046E400003227F8186092B13B4B04F1080633F806
:1046F400161010788F0752680CD5002ADBD133F8D6
:10470400162022F01C0242EA800023F81600CDBBDA
:104714003448D1E721F02001C904C90C23F816104C
:10472400002AECD00328C6D892F800C06246920052
:1047340002F1A04202F5504220B9C2F81005C2F8B5
:104744001005DCE7D2F8107541EA4C3127F0030775
:10475400C2F81075D2F8107541F0200127F44737DC
:1047640027F44077C2F81075D2F810E5270207F451
:10477400F8574EEA004E47EA0E07C2F8107523F8C0
:104784001610BCE72046D5E90067FFF73BFF002E73
:10479400BED0114D2B689E4204D16B689F4201D15B
:1047A400002209E010480DF10701FFF769FE0D4BE7
:1047B400984281D19DF8072005EBC20308345F605D
:1047C40035F8143045F8326043EA422343F48073E9
:1047D40025F814309CE700BF4C0000200400AD0B0A
:1047E400002584500000AD0BA0000020F8B504465D
:1047F40069B3374E00F1080736F81750AB0704D4F5
:10480400FFF7D8FE08B13348F8BD15F01C0F4B78FC
:1048140001D0012BF7D0304804F01F0C00EB8C0CB6
:10482400DCF8000291F800E05B0020F4E160897894
:1048340043EA0E2320F00700034343EA810343F0D5
:10484400010345F00305CCF8003226F817500AB9E5
:104854002248D9E71E4E04F1080736F817008307EB
:10486400D1D592F800C00023614620F020008900D1
:1048740001F1A041C00401F55041C00CC1F810354C
:1048840026F81700C1F810355578002DE0D0D1F87E
:104894001035927823F4981323F4F853C1F81035A3
:1048A400D1F810E5230203F4F8532D0443EA0E0370
:1048B40005F4403512052B4302F4801240EA4C30D3
:1048C400134340F02000C1F8103526F81700BFE765
:1048D4004C0000200400AD0B002584500000AD0BFB
:1048E400014BC3E9020170474C00002008B50246A1
:1048F400FFF760FE38B1054B083233F81230044834
:104904005B0B0B7008BD0348FCE700BF4C000020A4
:104914000000AD0B0400AD0B38B50F4C94F85850A3
:10492400BDB94022294604F1100002F0E8FE0D2032
:10493400FDF7E8FF094B0A48C3F87C51D3F87C2102
:104944004FF00042C3F80423012384F85830636510
:1049540038BD0448FCE700BF4C00002000D00050E4
:104964000000AD0B0500AD0B034B93F85800003865
:1049740018BF0120704700BF4C00002001460148C9
:10498400FFF7A0BD9C00002001460148FFF778BD59
:104994009C000020024610B5FFF70CFE1C4B02F1F0
:1049A400080433F81430E0B113F0020419D15B0B9E
:1049B4009A0002F1A04000F5514002F1A0420460C7
:1049C40002F550420068D2F8100540F00100C2F828
:1049D400100529B1012202FA03F30E4AC2F8043386
:1049E40010BDC3F38203042B0ED0052B0ED00A4B4B
:1049F400196902F01F03D94001F001010231104688
:104A0400BDE81040FFF7C6BD0321F8E70221F6E731
:104A14004C00002000D000500025845008B5024608
:104A2400FFF7C8FDC0B10F4B02F1080133F8113094
:104A3400990711D401225B0B9A400B499B0003F1A7
:104A4400A043C1F8082303F55043D3F8102522F0FE
:104A54000302C3F8102508BD0021BDE80840104634
:104A6400FFF798BD4C00002000D000500C4B00F123
:104A7400080233F8123010B5DB0704460DD5FFF7F2
:104A8400CDFF2046FFF7EAFD0222064B04F01F0487
:104A94008034054843F8242010BD0448FCE700BFD7
:104AA4004C000020002584500000AD0B0400AD0B29
:104AB4002DE9F04F002501222C464D4B4D484E491F
:104AC40085B01E6836B1D0F8046316421EBF1C6060
:104AD4001E68154304338B424FEA4202F1D1454F1D
:104AE400D7F87C3193B1454E336A039333624FF068
:104AF40001090DF10C08039850B9C7F87C01D7F8E7
:104B04007C31336A03933362002BF0D1012469E0D2
:104B140090FAA0FABAFA8AFA394A0AF1080332F882
:104B240013104FEADA0C0AF0070309FA03F418F831
:104B34000C30C1F3820223EA040308F80C3006EBBC
:104B44008A03D3F80042C8069346C4F3014418D537
:104B5400114650460193FFF737FD019BE4B2D3F8A9
:104B64000032C3F301439C4207D100215046FFF7B2
:104B740011FD21465046FFF70DFD09FA0AF0306297
:104B8400B9E7022C0CBF0321022150460192FFF722
:104B940001FD019A032A04D0022C07D1BBF1010FB5
:104BA400EBD159465046FFF70FFDE6E7032CE4D15D
:104BB400BBF1020FF4E795FAA5F3B3FA83F304FA11
:104BC40003F29B0003F1A04303F55043D3F810050F
:104BD400D3F81015C0F30420C1F3014125EA0205FE
:104BE400FFF7F2FC002DE6D105B0BDE8F08F00BF61
:104BF40000D1005000D0005020D100500025845036
:104C04004C0000200022034BC3F88425C3F804257C
:104C1400704700BF00900350044AD2F80834DB0701
:104C2400FBD50160BFF35F8F704700BF0090035056
:104C340008B5C0F30B0383B90222094BC3F88425DA
:104C4400C3F804254FF0FF320260D3F80024D207E2
:104C5400FBD5FFF7D7FF034808BD0348FCE700BFB7
:104C6400009003500000AD0B0A00AD0B012208B503
:104C7400054BC3F88425C3F80425FFF7CDFFBDE831
:104C84000840FFF7BFBF00BF009003500E4B70B544
:104C940053F82040013053F82060A64200D870BD7C
:104CA400D4E900352846984765B1EB6830B100284F
:104CB400B8BF4042FF28A8BFFF2018705A7842F0BE
:104CC40001025A700834E8E77885000073B5044699
:104CD4000D464FF02003EFF3118683F31288BFF3E0
:104CE4006F8F0022042896BF114B124B53F82030CB
:104CF400009245210246104802F086F93DB1EB6965
:104D0400C3F308031BB145210C4802F07DF90022CE
:104D14000B4B45210B4802F077F929462046FFF753
:104D2400E7F986F31188BFF36F8F02B070BD00BF3F
:104D34008C850000D6940000E494000011950000D6
:104D4400379500003F950000012208B5084B02206A
:104D54001A70FFF79BFF00F00BF90320FFF796FF93
:104D6400FBF77AFB034A137B23F00103137308BD9B
:104D7400FD1800204001002008B50348034A002123
:104D8400121A03F031F908BD200100200019002097
:104D940008B5194B03F5006282F3088883F30A8887
:104DA4000025E023154C84F82230E57725766576D6
:104DB400A57684F82050636A43F4E023636284F8A0
:104DC4002350FEF71DF8FDF751FD4FF0FF33A362AA
:104DD400E362FEF7DDF9FEF7ADF803F0FAF82846D2
:104DE400FFF754FF0120FFF751FF2B462A462946BF
:104DF4000348FDF7FDFD00BF0041002000ED00E089
:104E04004D4D000008B50648064A0749121A03F03A
:104E1400EDF8BDE80840054A0549064803F0E6B840
:104E24000000002020010020E095000000000000A8
:104E3400E095000000000020034B1B680BB9FFF74E
:104E4400BFB80020704700BF381300200D4B10B5C9
:104E54001C689C4208BF0024FFF7EEFF74B1D4E93C
:104E640004321B1A62EBE070B3F1004F70F10002E0
:104E740004DA0028ACBF1846002010BD6FF00040D3
:104E8400FBE700BFA800002030B5036868B10A4AF8
:104E94005268904209D043B1D3E90421D0E90445D2
:104EA400121941EB0501C3E90421426813605A60F9
:104EB4000023C0E9003330BDA80000202DE9F843E9
:104EC4004FF02003EFF3118583F31288BFF36F8F44
:104ED400244FDFF89880244E3860D8F800003B68EF
:104EE40040454FEAE371D6E9002E0BD050B1D0E92A
:104EF400044CA34271EB0C0916DAE41A6CEB010CB6
:104F0400C0E9044C00249B184EEB0101C6E90031B2
:104F14003C60FFF79BFF2146FFF722F885F31188D9
:104F2400BFF36F8FBDE8F883A2184EEBE471002342
:104F3400C6E900210022C0E90423FFF7A5FF85F399
:104F44001188BFF36F8F836898474FF02003EFF306
:104F5400118583F31288BFF36F8F3B681B1B3B6083
:104F6400BBE700BF38130020C0010020A8000020C8
:104F7400024A0349034801F08DBF00BF5A8700006D
:104F8400A9950000B895000010B50A4C23681BB120
:104F940001230020236010BD00F050F80028F7D052
:104FA4000138062803D8044B53F8200010BD0348E9
:104FB40010BD00BF3C130020A0850000FE8FFFFF42
:104FC400BFF34F8F0549064BCA6802F4E0621343EE
:104FD400CB60BFF34F8F00BFFDE700BF00ED00E0E3
:104FE4000400FA0530B44FF0FE320025074B084C9C
:104FF40008494968C3F80024C3F80424C3F8082402
:10500400C3F80C24C4F8005530BC08470010845081
:1050140000008450B0000020024BD0E90012C3E924
:1050240000127047B000002038B131B100220144B1
:105034000346013088421A70FAD1704738B500F03F
:105044002FF820B1032400F063F8204638BD00F0A7
:1050540031F898B900F0ACF898B90F4DD5F8283963
:105064001B0EF02B08D1D5F8242A0C4B9A420AD0F7
:10507400072400F017F8E6E70624FAE7042420469C
:1050840038BD0024F5E7012000F092F8044600281A
:10509400F7D1C5F80C0AD8E7001084500000E020CE
:1050A4000020704700207047014BC3F8040A704782
:1050B4000010845010B5114800F048F800B110BD3C
:1050C4000F4800F043F80028F9D10E4C204600F0B8
:1050D4003DF80028F3D10C4B0C481C6000F036F866
:1050E40001460028EBD100F02DF8044608B1204613
:1050F40010BD00F03FF82046FAE700BFC4000020CE
:10510400B8000020C0000020C8000020BC0000201F
:1051140008B5084800F024F8074800F021F80748CB
:1051240000F01EF8064800F01BF8BDE8084000F047
:105134000BB800BFC4000020B8000020C00000204D
:10514400BC00002000207047704700BF08B5034B27
:1051540002681B6810689847002008BDD40000202E
:1051640008B5034B02685B6810689847002008BDC7
:10517400D400002070B5094C094D2069AB689847EC
:1051840018B1084B08485B6898470021074AEB6848
:1051940011602069BDE87040184700BFE40000209A
:1051A400D4000020B0000020BC8500004013002083
:1051B400F8B51A4D1A4E0446B26828699047E8B902
:1051C400184F3B684CB1A3B1012B19D0013B3B6094
:1051D4002869F36898470020F8BD43B90121124AB1
:1051E400C2F800151149D1F81029002AFBD1013366
:1051F4003B60F368286998470020F8BD0C48F8BD67
:105204000A4AD2F81039002BFBD1074A6FF07E40CE
:10521400C2F80035FFF748FF3B68D7E7E4000020F9
:10522400D40000204013002000008450001084505B
:10523400E98FFFFF10B5044630B16368DB0602D581
:1052440000232360636010BD024B03485B689847EA
:10525400F3E700BFB0000020DC850000B0B1436874
:1052640093B1DB060ED5012350E8002F194640E820
:10527400001C9CF0000FF7D1012AF5D0BFF35F8F1B
:105284000020704703487047034870476FF4E040BC
:10529400704700BFE98FFFFFEA8FFFFF034668B145
:1052A40042683AB1D20607D5BFF35F8F0022104699
:1052B4001A60704703487047034870476FF4E04032
:1052C400704700BFEA8FFFFFE98FFFFF10B5044668
:1052D40020B1002211232260636010BD0148FFF752
:1052E40081FEF6E70486000030B10268034B0448EF
:1052F4009A4208BF0020704702487047DD55AABB98
:105304008208F0007108F00038B50D460446B0B1CB
:10531400A0220021043002F08FFE95B10822294614
:1053240004F1640002F08EFE082205F1200104F16C
:10533400840002F087FE0020034B236038BD03483D
:10534400FCE70348FAE700BFDD55AABB7108F0008B
:105354008308F0002DE9F74305460E4699461146A9
:10536400FFF7C2FF0446002840F08480002E00F0BE
:105374008580002900F08480B9F1200F40F08280FC
:1053840005F14404082205F10408204602F05AFEFF
:1053940005F1240708223146404602F053FE06F187
:1053A40020010822384602F04DFE02A941F8049D6E
:1053B4004FF4807002F03AFE002865D14FF48073F8
:1053C400324A0121136093600823314A00F034FB10
:1053D4000121052308462F4A00F02EFB08234246EC
:1053E40001211C2000F028FB08233A460121032058
:1053F40000F022FB224608230121022000F01CFBBE
:105404000823254A01211A2000F016FB0523234A0C
:1054140001211B2000F010FB0823214A0121142044
:1054240000F00AFB08231F4A0121152000F004FBA9
:10543400082305F164020121162000F0FDFA082377
:1054440005F184020121172000F0F6FA0823164A18
:1054540001210B2000F0F0FA00F04AFB0446019809
:1054640000F0D8FA114B002C18BF1C46A421284682
:1054740002F0E4FD204603B0BDE8F0830C4CF9E7EC
:105484000C4CF7E70C4CF5E7084CEFE79010845010
:1054940068860000E086000028860000CC860000B4
:1054A4008C860000AC860000488600008408F0006A
:1054B4007608F0008008F0008108F000C2690C4B07
:1054C4001A60826943F8042C426943F8082C026983
:1054D40043F80C2CC26843F8102C826843F8142C4F
:1054E400426843F8182C026843F81C2C704700BF2C
:1054F4005C1684500C4B1B68C3610C4B1B688361A6
:105504000B4B1B6843610B4B1B6803610A4B1B6805
:10551400C3600A4B1B688360094B1B684360094BDB
:105524001B680360704700BF5C1684505816845093
:1055340054168450501684504C1684504816845087
:10554400441684504016845030B10268034B04481A
:105554009A4208BF0020704702487047DD55AABB35
:105564000202F0000002F00038B5044668B1051DDF
:105574007021284602F062FD28462022044902F0E8
:1055840059FD0020034B236038BD0348FCE700BFEE
:10559400F4860000DD55AABB0002F0002DE9F043BB
:1055A40085B015466F46274B04460E460FCB87E859
:1055B4000F002DB94FF00009484605B0BDE8F0834F
:1055C4002046FFF7C1FF81460028F5D1231D019332
:1055D400636AA3BB236F8BB1C3F14008A84528BFFE
:1055E400A84604F1300031461844424602F022FD38
:1055F400236F464443442367A5EB0805226F402AE2
:1056040006D104F13001384600F0B4FB00232367CF
:1056140005F03F0835F03F0505D031462A463846A7
:1056240000F0A8FB2E44B8F1000FC3D04246314627
:1056340004F1300002F0FEFCC4F87080BCE7DFF82F
:105644000890B9E7808300000C02F0002DE9FF41C7
:1056540004466F46134B0E460FCB87E80F002046D7
:10566400FFF772FF8046B0B9CEB1636A251D01957C
:105674003BB90123226F636204F13001384600F024
:1056840079FB2B46043E243453F8042B12BAA3426C
:1056940046F8042FF8D1404604B0BDE8F081DFF8A5
:1056A4000880F8E7808300000502F000084B1B68BF
:1056B4001B0EF02B08D1074B1A68074B9A4205D1F1
:1056C4000020064B1860704705207047062070477D
:1056D40028198450241A84500000E0200C1A8450A5
:1056E400002230B5134640F6FC754900023802F139
:1056F400A15404F5823490424FEA840402F1010279
:10570400CABF236025605B181E2AF0D1034A1360C8
:105714000B445360024B034A1A6030BD7810845026
:105724008410845020F80F001E4B30B51A4685B003
:10573400196800910099CC07FAD500F1A15000F541
:1057440082308000016813680193019BD807FAD561
:10575400154B164C186820231F3090FBF3F0144DA2
:105764000138002810DA00230130400153B14FF012
:105774000042A0F12001134204D1013888424FEACB
:105784005202F8D105B030BD13680393039BDB07C5
:10579400FAD5431823602B680293029B002BE3D1B4
:1057A4000138DEE7B4108450AC108450E410845007
:1057B400DC108450F0B51D6885B001F01F040DB9EC
:1057C4001F2C28D1174D2E462F680197019FFF07E4
:1057D400FAD500F1A15000F58230800000683568E8
:1057E4000395039DED07FAD51F2C00EB611018BF3C
:1057F400C9430D4D18BF01F01F0128600B48006814
:10580400029002981CBF00FA01F111604FF00001F0
:1058140008BF1060196010684300C00F136005B022
:10582400F0BD00BFB4108450E4108450DC108450E8
:105834000C4B890118603F3020F03F004030586025
:1058440099600948D9601961596199611C3382B022
:10585400196002680192019AD207FAD5196002B060
:10586400704700BF90108450B410845038B5A0F134
:105874002003B3F5426F05462CD88F2826D800F1B3
:10588400470300F16604DB064FEA541400D00134E8
:1058940064013F34A409013411B1A1421AD30C4666
:1058A4004FF48050E300B0FBF3F0202828BF202001
:1058B40002B110600122084B21461A60FFF710FF65
:1058C40028462146FFF7B4FF002038BD00F11F042D
:1058D4006409DDE70148F8E71C1884502221F00030
:1058E400464BF0B51D4689B01C680194019CE40741
:1058F400FAD5434B002413449B001A680B181E2B43
:1059040088BFC0F11E011F320B1852095343B3F56F
:10591400806F84BF4FF48061B1FBF2F1274688BFEA
:10592400091ADFF8E4E000F1A150DFF8E0C000F567
:105934008230A14233DC2B680493049BDB07FAD545
:10594400304B1B68296805910599CF07FAD52E4C71
:105954002E49236000231E46934203F1010040D1E7
:105964001946002620F0010228488A423CD82968BA
:1059740006910699CE07FAD5254909682868079043
:105984000798C007FAD5216000210C461F488B42B6
:105994002DD100201D499A422CD809B0F0BD2B68A6
:1059A4000293029BDB07FAD503199B001B682E6840
:1059B4000396039EF607FAD5CEF8003000239342EF
:1059C40003F1010306D1164623F00103B34204D8C0
:1059D4000134AEE7CCF80070F1E7CCF80070013682
:1059E400F4E70E600346B7E706600131BDE70460E3
:1059F4000131CCE708600133CDE700BFB410845017
:105A0400240421147C108450D4108450D810845061
:105A14007810845008B540B1202801464FF00702A1
:105A240028BF20210020FFF75BFF0022014B1A60F2
:105A340008BD00BF1C188450F0B5294D85B02C4614
:105A44002E680096009EF607FAD500F1A15000F5E5
:105A5400823080000568206801900198C707FAD554
:105A64002048214F056002EB8306B24229D100276A
:105A74005A1C1D4E22F001029A4227D82368029331
:105A8400029BDE07FAD5194B0B449B001B681F339E
:105A94005B099A4213D2216803910399C907FAD585
:105AA40000211544056008469B1A0F4A8B4210D802
:105AB40000205A1C0C4922F001029A420CD805B06D
:105AC400F0BD52F804CBC7F800C0CEE7376001330D
:105AD400D2E710600131E9E708600133EDE700BF68
