:020000040000FA
:10000000E01101209D2F00003B750000712F0000C2
:10001000712F0000712F0000712F0000712F000060
:100020000000000000000000000000000D2B000098
:10003000712F000000000000712F0000712F0000E0
:100040006D2B00006D2B00006D2B00006D2B000050
:100050006D2B00006D2B00006D2B00006D2B000040
:100060006D2B00006D2B00006D2B00006D2B000030
:100070006D2B00006D2B00006D2B00006D2B000020
:100080006D2B00006D2B00006D2B00006D2B000010
:100090006D2B00006D2B00006D2B00006D2B000000
:1000A0006D2B00006D2B00006D2B00006D2B0000F0
:1000B0006D2B00006D2B00006D2B00006D2B0000E0
:1000C0006D2B00006D2B00006D2B00006D2B0000D0
:1000D0006D2B00006D2B00006D2B00006D2B0000C0
:1000E0006D2B00006D2B00006D2B00006D2B0000B0
:1000F0006D2B00006D2B00006D2B00006D2B0000A0
:100100006D2B00006D2B00006D2B00006D2B00008F
:100110006D2B00006D2B00006D2B00006D2B00007F
:100120006D2B00006D2B00006D2B00006D2B00006F
:100130006D2B00006D2B00006D2B00006D2B00005F
:100140006D2B000053B94AB9002908BF00281CBF15
:100150004FF0FF314FF0FF3000F00CB8ADF1080C5C
:100160006DE904CE00F008F8DDF804E0DDE90223D3
:1001700004B07047704700BF2DE9F04786468C46B3
:100180000846089E154674461946002B40F0C1806B
:100190008542B2FA82F245D94AB1C2F1200300FA8F
:1001A00002FC954094402EFA03F343EA0C0C4FEA0C
:1001B000154EA8B2230CBCFBFEF80EFB18CC08FBB6
:1001C00000F943EA0C43994528D9EB1808F1FF37A9
:1001D00004D2994502D9A8F102072B44A3EB0903E5
:1001E000A4B2B3FBFEFC0EFB1C330CFB00F044EA94
:1001F0000344A04214D92C190CF1FF3304D2A042BD
:1002000002D9ACF102032C44241A43EA07401EB180
:10021000D440002334607360BDE8F0874746DDE7D3
:100220006346F1E792BB431B01214FEA154EAFB283
:10023000200CB3FBFEFC0EFB1C330CFB07F840EA62
:100240000343984561D9EB180CF1FF3004D298456F
:1002500002D9ACF102002B44A3EB0803A4B2B3FB18
:10026000FEFC0EFB1C330CFB07F744EA0344A742D9
:100270004DD92C190CF1FF3304D2A74202D9ACF1AD
:1002800002032C44E41B43EA0040C0E7C2F1200310
:100290009540944020FA03F12EFA03F34FEA154EED
:1002A0009040AFB20343B1FBFEFC0EFB1C10190CD7
:1002B0000CFB07F841EA0041884522D969180CF186
:1002C000FF3004D2884502D9ACF102002944A1EBE9
:1002D00008019BB2B1FBFEFC0EFB1C110CFB07F7E7
:1002E00043EA01439F420ED9EB180CF1FF3104D2CF
:1002F0009F4202D9ACF102012B44DB1B41EA0041D1
:1003000093E76046E3E76146F7E76046A4E76346A4
:10031000B8E7834206D916B9002108467CE7C6E94A
:1003200000E0F9E7B3FA83F78FB9834201D372454E
:1003300008D8BEEB020460EB030301209C461EB903
:10034000002169E73846FAE7C6E9004CF8E7C7F14B
:10035000200CBB400EFA07F522FA0CF42EFA0CF131
:10036000BA401C4320FA0CF3B8404FEA1449014349
:100370001FFA84FEB3FBF9F809FB18300B0C08FBDD
:100380000EFA43EA00439A4540D9E31808F1FF30DA
:1003900004D29A4502D9A8F102002344A3EB0A0330
:1003A00089B2B3FBF9F809FB183308FB0EFE41EAEA
:1003B00003418E452CD9611808F1FF3304D28E45D4
:1003C00002D9A8F10203214443EA0040A1EB0E0147
:1003D000A0FB02984145CE46434602D306D14D4587
:1003E00004D20138B9EB020E68EB0403002EA7D04B
:1003F000B5EB0E0261EB030101FA0CFC22FA07F3E4
:10040000F9404CEA0303C6E9003199E74046C5E7E5
:100410004346D9E708B50B4807F042FD28B9BDE8C7
:1004200008404521084806F04CBD4FF4003107480C
:1004300006F0BCF8BDE8084000220221014806F0A1
:10044000A5B800BF8C7F0000E4850000608200003A
:10045000F0B5464B464A85B0C3F800264921C3F89B
:1004600004264448C3F80826C3F80C26C3F810260F
:10047000C3F81426C3F81826C3F81C2606F021FD7D
:10048000FFF7C8FF06F0B2F83B4C204607F008FD26
:1004900028B34FF48031394806F088F82569A368FD
:1004A00020465B6801A9984720B92A68019B534000
:1004B0005A0614D54FF05023D3F800340BB1DB07A4
:1004C0000DD5012202212C4806F060F849212C4864
:1004D00006F0F7FC01F07EFD2A4802F0E7F801A8DB
:1004E00000F088FC284B1B68834204D04521274834
:1004F00006F0E7FCFEE7039A4921254806F0E1FCF7
:100500004921244806F0DDFC4FF48031002003F03F
:1005100013FD044620B145211F4806F0D2FCFEE73A
:1005200069469DF8080000F03BF8009B039D1D44C0
:10053000019B1E8900F064FFAF1900F045FF02F037
:100540006FFD84F30B8884F30A88AB5983F3088822
:1005500084F31488BFF36F8FBFF36F8F7B68984766
:1005600045210E4806F0ADFCFEE700BF00800150BB
:100570003546526E1B8600008C7F000058820000BA
:100580003486000068820000A8C60020588600005B
:100590007B860000AA860000CF860000028700004C
:1005A000024608B538B105480023452106F089FC0C
:1005B0006FF0150008BD0860FCE700BF258700004C
:1005C0001FB50C46014601AA044807F02DF918B9D9
:1005D000019B2360029B636004B010BDBC7F0000E0
:1005E0002DE9F04F1E46834BDBB01446DDE966571C
:1005F000D3F80080DDF8A0B100F0B0FE01227E4B00
:100600003AA8C3F8002504F0FBFE35B1002F04DD45
:100610003A4629463AA806F03BFB4FF000096389A9
:1006200027891F44E3681F444F4525D80DA93AA8E0
:1006300004F058FF0022704BC3F80025C3F80025D2
:10064000BBF1000F04D0202258460DA906F0AAFFE6
:1006500000233246009321464FF6FF7307A805F0AA
:10066000C6FF0546D0B930460C9C00F083F98442A1
:100670001FD94FF0FF3511E0659BA7EB090A9A459A
:1006800028BF9A46494653463046649A06F027FCEE
:10069000054638B10022584BC3F8002528465BB008
:1006A000BDE8F08F524664993AA806F0F1FAD144B9
:1006B000BAE74FF0FF37DFF84CB1DFF83C910DF1AE
:1006C000160305AA06A907A805F0DFFF041EC0F25D
:1006D0008F8040F08280BDF816A0BAF1100F18D1BB
:1006E000BDF81450202DC4D12B46304606993AAAA5
:1006F00006F0F5FB044600287AD12A463AA90DA84F
:1007000006F03BF805463D4B1B688342C6D10125E8
:10071000D5E7BAF1010F3ED1BDF81430202BA8D88F
:10072000304606993AAA06F0DAFB044600285FD163
:100730009DF81430202B029309D8DBF80030304F9D
:100740000393039B9C4205DB0023C9F800354FF05F
:10075000FF341CE000F002FEC9F800A51DA804F05B
:100760004FFE7A681DA8126857F8081B06F090FA29
:1007700015A91DA804F0B6FE0022C9F80025029AAA
:100780003AA915A806F0E7FE18B9C9F800052746EA
:1007900095E70134D5E7BAF1220F90D17B1C8ED0BA
:1007A000DBF80030BB4215DDBDF81430802B3FF67E
:1007B00060AF304606993AAA06F091FB0446B8B9F4
:1007C000FFB22021BDF8143000973AAA0DA800F01E
:1007D0001BF880464FF0FF3771E745B1074B1B68A8
:1007E00043451CBF034BD3F80080454656E7012420
:1007F000254653E7E8C4002000008450A8C6002026
:1008000074820000708200002DE9F04196B0174616
:100810001D469DF87020354B0E4653F8321003EB01
:10082000C2035B6801918046186802AA0144302324
:1008300001A806F0BBF920B14FF0FF3016B0BDE8BB
:10084000F081DDE901431C44214606AB03AA01A85F
:1008500006F0D4F90028EFD1049A072AECD12449F4
:10086000059806F078FE0028E6D1079A082AE3D119
:100870002049089806F06FFE0028DDD1214602AA23
:1008800001A806F0A7F90028D6D1DDE9013213440A
:100890009C42D1D1412ACFD13D443023294603AADD
:1008A00002A8029706F082F90028C5D1DDE90232DC
:1008B00013449D42C0D32A4602A906A805F031FF81
:1008C0000028B9D12A4602A90EA805F02AFF00285F
:1008D000B2D1202EB0D101990B78042BACD1334684
:1008E000404606AA013100F051FDA7E774820000DE
:1008F000548700004B8700002DE9F041032386B0A8
:100900000D466F460026DFF86880ADF8003017F816
:10091000010B01A901F050FA0446A0B90198102377
:10092000816802AA103906F0DAFA0446019806F046
:10093000D5FA44B91022414602A806F00CFE40B197
:100940002EB14FF0FF34204606B0BDE8F0810126FD
:10095000DDE7019807F032F90423A0F108012A46E7
:10096000019806F0BCFA0446019806F0B7FAEAE7E7
:10097000D485000007B505F014FF6946FFF720FE97
:1009800038B10548452106F09CFA002003B05DF817
:1009900004FB0098FAE700BF5C8700002DE9F041F6
:1009A000354B88B0064600200C461D6805F013FE46
:1009B00006A9C0B201F000FA002857D1214605F07F
:1009C0000AFE2C2507A9C0B205FB046501F0F4F965
:1009D000002833D02C27674306EB0708D8F81010FF
:1009E000069B11F0100138D14FF480720192234A16
:1009F00008460092CDE903112A460291FFF7F0FD67
:100A000005461F4BF25906989A420CD1D8F80C2093
:100A1000B8F808309B1806D28268934203D2194B6B
:100A20001B68AB421FD02CB38268002106F081FA0C
:100A3000154A4521154806F044FA13E0079806F0D8
:100A400095FA0746079806F049FA6B1EEA1C13F858
:100A5000011FB942BED19342F9D11CB1304606996B
:100A600005F083FF0125069806F038FA284608B0FD
:100A7000BDE8F081064ADCE7E8C4002036D8002053
:100A80003DB8F396A8C600209F870000A987000004
:100A90009787000073B50D46002104462846CDE92E
:100AA000001105F021FF30B3164E2368B34203D185
:100AB000204601AA05F0ADFEE36AB34204D16A46BE
:100AC0000121204605F0A5FEDDE90032934288BFF2
:100AD0000193019BAB60019A2946204600F034FB4C
:100AE000094B1A68002A03DD5721084806F0E9F986
:100AF000002002B070BD05F10801FFF7FDFEAB68F4
:100B00000193E8E73DB8F3960CD30020D1870000AD
:100B10002DE9F84F884691469A460026DFF870B0D6
:100B2000194C1A4D0B9B9E4201D300200FE00B9BEA
:100B300040469F1BB7F5806F28BF4FF48067144A6B
:100B40003B4606EB0A0106F0CAF910B10120BDE8E8
:100B5000F88F0A993B465A464846711806F0D4F970
:100B60000028F3D1C4F800563E44C4F80456C4F833
:100B70000856C4F80C56C4F81056C4F81456C4F8F5
:100B80001856C4F81C56CDE7008001503546526E09
:100B9000ACCE00202DE9FF410E4600218E4B0446CD
:100BA00043628E4B0365084605F015FD04F12001F4
:100BB000C0B201F001F90121002005F00CFD04F1A3
:100BC0004C01C0B201F0F8F80546204605F062FE7F
:100BD000074668B900222046114605F004FE074684
:100BE00000B3002257217E4806F06BF901238FE005
:100BF000802257217B4806F064F901239F4284F844
:100C00005830E7D194F85830042B8DF8073000F2B3
:100C10008280012B00F2858000F09C80FF2384F805
:100C2000583097E0204600F0A7F90028DED068464B
:100C300005F051FE6946204605F0ECFE18B13A4633
:100C400057216948D0E7684605F04EFE80F0010163
:100C50006A462046C9B205F0C6FD02460028C0D14A
:100C6000684605F041FE074660BB69462046FFF72F
:100C700011FF9DF8073084F85830033B012B06D84C
:100C8000384605F016FF10B1FF2384F858309DF860
:100C90000730023B022B0BD8002005F0F8FE38B1DC
:100CA000FF2384F858304521504806F00AF9FEE742
:100CB00094F85830FF2BF6D06A460021204605F004
:100CC00092FD93E79DF80780B8F1010F15D110460A
:100CD00003F0D0F9831E022B07460BD8414620466D
:100CE000FFF75CFE424B1B68984203D0012814BFFB
:100CF0000527012784F8587084E701212046FFF773
:100D00004DFE3B4B1B68984214BF05239DF80730EE
:100D100084F8583076E7052B80D1002005F0C9FE15
:100D200013E069462046FFF7B5FE94F858300546B3
:100D3000DA1E012A0CD8002005F0BBFE054600286B
:100D40007FF46CAF002005F0A2FE054610B165E708
:100D5000022BF7D094F85830FF2B04D145212348BB
:100D600006F0AFF8FEE7012B10D06A4600212046BE
:100D700005F039FD054648B1E06C06F0AFF8206A91
:100D800006F0ACF8284604B0BDE8F081002120460A
:100D9000FFF704FE0746DFF85880D8F80030984285
:100DA0000FD110220021684606F007FC206A05F0EA
:100DB0001BFC3071236A5B683460D8F80050B36064
:100DC000DAE7E06C06F08AF8206A06F087F8002D72
:100DD00008BF3D46D6E700BFACCA0020ACC6002025
:100DE00042880000008800006E880000988800009B
:100DF000A8C6002038B5064D0446602200212846CA
:100E000006F0DBFB21462846FFF7C4FE38BD00BFD5
:100E1000ACD2002073B516461D4643B15B79012B59
:100E200007D121B9204B2A681B689A4217D80024A1
:100E300018E0022BFBD12B68012B07D91A4A126844
:100E40009342F4D8B1FA81F14909F0E7EFD131B119
:100E50000129ECD12979023918BF0121E7E70021E6
:100E6000436A5C68002005F0B6FB01A9C0B200F03F
:100E7000A3FF30B10124019806F030F8204602B0FB
:100E800070BD214620233246019806F028F804461A
:100E90000028EFD1002DEED03468044BE41A18BFBF
:100EA0004FF0FF34E7E700BFECC400203DB8F396F5
:100EB0002DE9F04F07460C4685B001460020164646
:100EC00005F062FC051E50DB3846E46D05F069FC58
:100ED0005FFA84F94FF0000A4FF0010B4FF0FF3436
:100EE0006B1E09FB03089DB9BAF1010F03DD452113
:100EF000204805F0E6FF631C06D07F2C2ADC40F278
:100F0000011301343460B380284605B0BDE8F08F8A
:100F10006B1E00934146012338460DF10F0205F088
:100F2000DEFF031E019322DB012238460DF10F0183
:100F300006F058FE019B40B15B4501D00AF1010A61
:100F40009B46009DA8EB0908CDE7B4F1FF3F08BF21
:100F50002C46F5E70223803C7371631004F0010412
:100F60000133013433603471CEE70725CCE7012526
:100F7000CAE700BFA488000038B5816A426D91427B
:100F800008D0531C8B4205D05721134805F099FF18
:100F9000002038BD80291CD957211048F6E7446A43
:100FA000056D04EBC30405EBC30564686D68AC42D2
:100FB00002D057210A48E9E701339A42EFD1914222
:100FC00005D9436A03EBC2035B68A342F1D1012058
:100FD000DFE700231C46F0E7C7880000FF88000019
:100FE0002E89000000B589B0032004A906F06CFE2C
:100FF0009DF81020012A41D0254B2649032A08BF1D
:101000000B469DF81320492102929DF81220224898
:1010100001929DF811200092204A05F052FF09200C
:1010200006A906F051FE9DF81820012A28D0184B79
:101030001849032A08BF0B469DF81B20492102923C
:101040009DF81A20144801929DF819200092144A24
:1010500005F037FF9DF81030012B13D19DF81230A9
:10106000032B0FD19DF81830012B0BD00D484921CF
:1010700005F027FF022009B05DF804FB0A4BC0E72A
:10108000094BD9E70948492105F01BFF0020F2E789
:101090005A8900006389000077890000698900008F
:1010A000B8890000C88900005E890000E789000057
:1010B00070B54B6814461E4A03F0FF239342064660
:1010C0000D4686B02FD10B68012B2CD1204604A9E8
:1010D00002F07AFF9DF81020012A26D0154B164900
:1010E000032A08BF0B469DF81320492102929DF860
:1010F0001220124801929DF811200092104A05F02A
:10110000E0FE9DF81030032B0DD12146304605F04E
:101110002CFC204606F0CBFD2046A96805F054FBC8
:10112000204602F031FF06B070BD064BDBE700BF82
:10113000000100045A8900006389000077890000DB
:10114000B88900005E8900002DE9F04F05460C4685
:101150007D48492189B0174605F0B3FE6B6A01222C
:101160005E6800233344BB42114602F10102F9D309
:10117000764F2046396005F0B7FB08B3E86D05F0FF
:10118000FEFAAB6A03F1FF3800233344834202D2F4
:1011900008F1FF38F9E73B68434511D357216C4804
:1011A00005F08FFE3A6808FB06F3572102FB066242
:1011B000684805F086FE0123E37109B0BDE8F08FB1
:1011C00006A9032000F0F8FD07A9092000F0F4FDAE
:1011D00021462846079AFFF76BFF6379012B0BD155
:1011E000D7F80080DFF870B13B68DDF81890B8F1EF
:1011F000000F11D10123236002234FF00108637116
:101200003B68DDF818A0984549D9504605F066FEC0
:10121000079805F063FED0E7226801339B1A9845D2
:101220003AD86B6A012A196853F8380003EBC803EF
:1012300053F8083CA0EB010AA3EB0103049311D17E
:10124000079B0393E368022B08D04946284605F024
:101250008CFB22464946284605F0BDFB28460399EB
:1012600005F083FB32465146484605F07CFB049B63
:101270004A4649462846CDE900A6FFF749FC2146E3
:10128000284605F03EFB23680133236020B1DBF8DC
:1012900000300133CBF8003008F1FF38A4E72368B1
:1012A00098454ED36A6A4FEAC80352F83810083B93
:1012B00004911168DDF81CB00391D1582A6DD05803
:1012C0001368A0EB03092379012B38D1039B324625
:1012D000C91A5046059105F046FB05994B46524602
:1012E0000091284659460196FFF712FC21462846F0
:1012F00005F007FB0223237118B1174A1368013365
:10130000136032464946584605F02DFBDDE90323BC
:1013100051469B1A28465A46CDE90096FFF7F8FB3E
:101320002146284605F0EDFA2368013323600123A6
:10133000237130B1084A13680133136001E0022BB6
:10134000DFD008F101085BE7FE890000ECC4002053
:10135000278A0000568A00000CD3002070B5094D82
:101360002B780BB1002070BD0126074CC4F8006536
:1013700004F0E8F818B92E70C4F80005F2E74FF051
:10138000FF30F0E736D90020000084502DE9F0410D
:10139000ACB01F4606460C461546FFF7DFFF01239B
:1013A000DFF820802A46C8F80035214633460097EA
:1013B00003A806F08FFD0023C8F800352CB0BDE867
:1013C000F08100BF00008450BFF36F8F72B600231E
:1013D0004FF0FF30094A03F120010133102B42F88E
:1013E0002100F8D100234FF0FF30044A03F16001DF
:1013F0000133102B42F82100F8D1704700E100E0E2
:1014000038B501224FF0FF3400251A4B29465A60A7
:10141000C3F84843C3F8084303F580535A60C3F840
:101420004843C3F80843A3F55043C3F8005580224E
:10143000C3F80843104806F0C0F8802229460F4838
:1014400006F0BBF80E4B8022C3F800552946C3F8BE
:1014500008430C4806F0B1F8802229460A4806F0F5
:10146000ACF80A4BC3F808454FF05023C3F80843C3
:1014700038BD00BF00400150808000508081005086
:1014800000900050809000508091005000700150FA
:101490002DE9F043079D15B91560002012E00324E3
:1014A000B5FBF4F404EB4407BD4218BF0134B4F1BA
:1014B000804F09D2A40001348C4200D838B96FF0B3
:1014C0000B001460BDE8F0834FF0FF34F7E70446EB
:1014D0000021DFF8B4E0B94203F1030C04F1040683
:1014E0002BD3A942274623D201F1010CAC451F782A
:1014F00028BF002324494FEAA70E38BF5B7811F8B4
:101500000EE0AC4584F800E001EB131E2EBF3D2336
:101510009B0003F03C034FEA071738BFCB5C07F092
:1015200030071EF80770A3703D2367703746E370DD
:101530000023381A10603B70AFE71CF8034C1CF80E
:10154000023C4FEAA4091EF8099024011CF8018C02
:1015500004F0300406F8049C0EEB131919F804404B
:101560009B0006F8034C03F03C030EEB9814E35C7D
:1015700008F03F0806F8023C1EF80830344606F82A
:10158000013C03316346A6E7628B00002DE9F0437E
:1015900000273C463D46DDF81CE0DFF82881754514
:1015A0001FD3E4BB00201460BDE8F083013676450C
:1015B00033D013F806C0BCF1200FF7D0AEEB06090C
:1015C000B9F1010FA6EB05050DD0BCF10D0F0AD145
:1015D00003EB060999F80190B9F10A0F6ED1751C59
:1015E000DDE72E46E3E7BCF10A0FF8D02DB9BCF1D8
:1015F0003D0F05D10137022F0DD96FF01500D3E74C
:101600001CF0800FF9D118F80C507F2DF5D03F2D2C
:1016100001D8002FF1D10134E1E73546C1E74FF0A1
:10162000060C04F00706E4080CFB06F60CFB04F4B9
:101630000736E41B04EBD60470B18C420CD80027AB
:10164000014603263C46DFF87CE0DFF87C801D4441
:101650009D4205D10C1AA5E76FF00B001460A3E7BB
:1016600013F8019BA9F10A0C5FFA8CFCBCF1160F70
:1016700004D848FA0CFC1CF0010FE9D01EF809C090
:101680000134BCF1400F08BF013E0CF03F0C042CAC
:101690004CEA8717DCD17EB13C0C012E0C7002D1D4
:1016A00001310024D4E7022E4FEA17244C7016BFF4
:1016B0008F7002310331F4E73446C9E7002DA2D020
:1016C0009BE700BFE28A0000F6FFBFFF014B1B68EB
:1016D000184700BFF0C4002007B50B4600210246A2
:1016E0000091034800F014F903B05DF804FB00BF5B
:1016F000CD1600002DE9F047058B044628079046DB
:1017000011D4022905F0070540F0CD80204605F0F0
:10171000FDFA78B10138218B042811D8DFE800F0F8
:10172000C3106D85950001290CBF45F0100545F0EB
:101730002005258388F31188BFF36F8FBDE8F087FC
:1017400001F0070AAA4500F0A6800027B9463E46E8
:10175000A368002B00F0BD8041F00801218388F3CD
:101760001188BFF36F8FA168002900F0BB800D685E
:10177000002900F0B780334652462046D1F8048055
:10178000C047002D76D02B6829461D46F0E701F0B2
:1017900007035A1F012A1BD8002221F00701062B3C
:1017A000276889B2C4E9002209D13B4603E0628B75
:1017B000013262831B68002BF9D141F002012046FF
:1017C000218305F0A3FA00287BD041F0200177E0C7
:1017D000042B0AD121F0070189B22046218305F0AC
:1017E00095FA10B141F020012183218B01F0070A05
:1017F000AA4550D00027B946AAE7236921F007017E
:1018000041F00601062DD3F8009021832DD1B9F1C6
:10181000000F40D041F00801218388F31188BFF305
:101820006F8F20463949C84729E021F00701236915
:1018300041F0040189B2042DD3F804902183E6D04D
:1018400000274FF0040A3E4682E721F00701236992
:1018500041F0050189B2052DD3F808902183D6D037
:1018600000274FF0050A3E4672E700274FF0060AB0
:101870003E466DE72B4687E7B9F1000FD1D14FF017
:101880002003EFF3118883F31288BFF36F8F238B4C
:1018900023F008032383258BEA062ED525F01003B9
:1018A000238305F007056669218B002EBFF66FAF15
:1018B00000232768C4E9003321F0070141F001014A
:1018C0002183218B4FF0000901F0070AAA457FF41C
:1018D0003FAF002F9BD041F00801218388F311888E
:1018E000BFF36F8F002FC7D03D683946334652464D
:1018F000204605F037FA2F46F4E7AB067FF51AAF1E
:1019000025F02003238305F00705FFE6916D000015
:101910002DE9F04F82464FF000098DB01D46531E51
:1019200001910393039B58785C1C252819D1002052
:101930004FF0FF381E464446034602360290317887
:101940000396392955D81F2914D8002900F0EE81B3
:1019500001992520D04701993078D04709F1020933
:10196000E0E7002800F0E2810199D04709F1010980
:101970000394D7E7A1F12002192AE9D801A757F863
:1019800022F000BFED1900005119000051190000AC
:10199000ED190000511900006D1A000051190000E6
:1019A000511900005119000051190000B91A000026
:1019B000ED19000051190000CD1A0000791A00003D
:1019C00051190000871A0000A71A0000A71A00008A
:1019D000A71A0000A71A0000A71A0000A71A000003
:1019E000A71A0000A71A0000A71A0000084601362F
:1019F000A5E7582900F0EB80A1F16302D7B2172FB9
:101A0000A6D8172AA4D801A757F822F0751C000001
:101A1000F31A00005119000051190000511900007B
:101A2000D31A0000F31A00005119000051190000E8
:101A3000D31A00005119000051190000511900007B
:101A4000A91B00005119000051190000491C000099
:101A500051190000F31A000051190000511900003B
:101A6000A91B000051190000D31A0000252001997C
:101A7000D04709F1010955E7029A4FF0000802F03A
:101A8000FE020292B3E7002C0DDAB8F1000F0DDA76
:101A9000029A002A00F042810A2224EAE47402FB3E
:101AA0000414303CA3E7B8F1000FF5DB0A2202FB77
:101AB0000812A2F130089AE7B8F1000F55F8042B8C
:101AC00080F22E81002A80F22D815442022202925D
:101AD0008DE7682903D1682B06D1482387E76C2955
:101AE00002D16C2B00F02081002B7FF431AF0B462C
:101AF0007DE77A2B06D1752955F8046B14D14FF088
:101B0000000B0CE06C2BF6D04C2BF4D1073525F0F4
:101B10000703752903F10805D3E9006B06D12028D6
:101B20003BD1844F013C09E04FEAE67BBBF1000F5B
:101B3000F5DA7642804F6BEB4B0B013C0DF12D0338
:101B4000059300230493304659460A220023FEF7EA
:101B5000F9FA049B8E46591E04910599B446303219
:101B600001F8012D5A46BCF10A0F72F10002064637
:101B7000F3460591E7D2C3F1010B30330DEB0306B9
:101B8000B8F1000FA6F104066DDA029BD9077CD4E8
:101B9000A8EB0B03A4EB0B0413E02B280ABF674F41
:101BA000674F04F1FF34C9E770290FD155F8042BB2
:101BB0000023FAB96FF004034FF0050B614E053CAA
:101BC0005F4F029A92076FD4A04665E078216C2B94
:101BD00003D1002355F8042B08E04C2BF9D107352D
:101BE00025F007031D465B6855F8082B232825D1EF
:101BF000880621D5544F023C002601F06001A1F176
:101C0000390B0DF12D0E02F00F01092988BF59443F
:101C100030310EF8011D102A4FEA121141EA03710A
:101C20004FEA131073F1000306F1FF3C08D2C6F12E
:101C3000010B06F13003A1E7444FDCE7404FDBE73F
:101C400066460A460346DEE755F8046B304605F063
:101C50007BFCB8F1000F834602DB4045A8BFC346BA
:101C60004FF00008364FA8EB0B03002B92DDA4EBDE
:101C70000804A6E755F8043B4FF0010B8DF8183027
:101C8000013C4FF0FF3306AE9AE7A046EBE7029324
:101C900020200199D047029BB8F10108F7D524EA2A
:101CA000E472013C9144A41AB84606E004930292FF
:101CB0000199D047029A049B9046424612F8010BC4
:101CC0000028F3D11A46013A15D5002BACBFC7EB5B
:101CD00003077F425B46013B15D5BBF1000FA8BF50
:101CE0005F4426464F44013E14D5002CA8BF3F193F
:101CF00007EB080916E60493029230200199D047B9
:101D0000049B029ADFE70293019916F8010BD04772
:101D1000029BE0E701992020D047E4E70122D6E6C4
:101D2000904664E6144662E64C2360E648460DB0F1
:101D3000BDE8F08F7E900000B38B0000B58B0000F3
:101D40001A860000BD8B0000B78B0000BA8B000024
:101D500008B54FF02002EFF3118382F31288BFF32E
:101D60006F8F01F04BF9034804F0C3FF00F024FE2D
:101D7000FCE700BFC38B00004FF02002EFF311839C
:101D800082F31288BFF36F8F0121044AC2F8401515
:101D900083F31188BFF36F8F0020704700900350CA
:101DA00020B1034B800143F001031847704700BF87
:101DB0005082000002F0D4B970B5114B0D461C687A
:101DC000DCB1104B196800238B4202DB6FF001007D
:101DD00070BD224612F8106B864202D014460133C1
:101DE000F2E7E06810B96FF01200F1E706F058F87A
:101DF0000028F8D000202C60EAE76FF00C00E7E73D
:101E0000F4C400208082000070B588B005460C46FE
:101E1000C0B269461646FFF7CFFF00281BDB0098CB
:101E2000C8B143682268029383680195CDE90336FF
:101E30000023CDE906230593C56805F04FF86DB181
:101E40002846084901AA05F0F3FC079808B9059B44
:101E5000236008B070BD6FF01500FAE76FF0120054
:101E6000F7E700BF7B6F0000014803F011B800BF27
:101E700024830000F7B5254E306883685B6C03B19E
:101E80009847306883685B6B002B32D1204C214D22
:101E9000306883689B69002B2ED001220DF1070169
:101EA0009847012828D1236843B92B6833B3696860
:101EB0001A688B422A6000D16A602360164A9DF836
:101EC00007001188B1F5007F04D223684F1C0B4432
:101ED000178018720A28DBD1002023681188186047
:101EE00059600E494D6875B9C1E900331080206012
:101EF000CDE798470028C9D103B0F0BD4521084877
:101F000004F0DFFFF8E72B604B60EFE738D70020E5
:101F100010D3002020D3002034D8002018D3002074
:101F2000F08B000010B5044B044618688368E1B2DA
:101F30005B689847204610BD38D700202DE9F04156
:101F40000546904608464FF02003EFF3118783F3D0
:101F50001288BFF36F8F1C490B684BB11B4C626832
:101F60009A4205D000221A60626872B9C4E900334F
:101F7000174A136863B987F31188BFF36F8F184648
:101F80000B60C8F80030BDE8F08113606360EFE7D4
:101F900056681C68B342146008BF546087F3118808
:101FA000BFF36F8F5C680B60A042D8BF00F1FF34B5
:101FB00003F108012246284605F0F4FA0023601CCC
:101FC0002B550123DDE700BF14D3002020D30020D0
:101FD00018D3002037B500251B4B1C4AC3E9005518
:101FE0001B4B1C4C1C4803F502711360C3F80852CC
:101FF00019605160206005F053FF10B320688368BA
:1020000023B19B6C13B12A46144998472068836812
:102010005B6B0BB1984748B1206883689B69002BC4
:10202000FAD001220DF107019847F4E700220C4B8A
:1020300020681A8083689B6A03B19847002003B028
:1020400030BD4FF0FF30FAE718D3002020D3002036
:1020500028D3002038D70020A47F0000751E000080
:1020600034D8002040F6061300202DE9F043D9B003
:10207000ADF80830DFF8FC90394BD9F800101B6838
:10208000384E0822A3EB06080B78487001330B701A
:1020900098FA98F34B808B8802275BBA8B8004F008
:1020A00012FE42463146ADF80C0004F00CFE2E4DF7
:1020B00040BA2B681FFA88F4ADF80C00022102A880
:1020C0005B68984704F10A035BBA0DF10E01022226
:1020D00005A8ADF80E3005F065FAD9F80010082211
:1020E0000DF11600ADF80E7005F05CFABDF80E00AB
:1020F00005AB083080B242463146ADF80E001844B8
:1021000005F050FABDF80E303A46E01880B205AB43
:10211000ADF80E0003A9184405F044FABDF80E30DE
:1021200004AA3B449BB2ADF80E300093BD2105AB31
:1021300028A8FFF7ADF904992B68ADF80E1028A870
:102140005B6889B298472B6801215B68074898470C
:102150004921074804F0B5FE59B0BDE8F08300BF3F
:1021600050D7002037D9002084D7002019860000DE
:102170002E8C000080D70020F0B50646B3680C46D0
:102180009A42104685B01DD291421DDC02A9FEF78D
:1021900017FAB8B9DDE902531D446B1ECDE90030D2
:1021A000224649210B48E3172F1B04F08AFE3A46CA
:1021B0002146304604F0BDFE024640B145210648A6
:1021C00004F07FFE6FF01504204605B0F0BD2C46EC
:1021D000FAE700BF368C0000558C0000F0B50C68A3
:1021E000164F85B002380D46C4F580610090144B3F
:1021F000381903AA0131FFF7C9F90446D0B92B6891
:10220000039A1344022B2B6011D93E88023B76BA05
:10221000B6B29E420BD13246B91C04F054FD30B91F
:10222000022E04D92B689A1E2A60FC5401242046F1
:1022300005B0F0BD4FF0FF34F9E700BFB8D900207A
:10224000BBDD002007B5CDE900016946024805F075
:10225000BAF803B05DF804FB50D7002038B5054646
:102260000A4C0A21204605F0C0F802210848FFF771
:10227000E9FF2946204605F096F820460A2105F098
:10228000D2F8BDE83840FFF7EDBE00BF50D70020C0
:10229000778C0000002307B5054A0093022102F164
:1022A0008003044805F0C1F803B05DF804FB00BFEB
:1022B00037D9002050D700202DE9F04707290446E0
:1022C000A8B040F29480037813F0FD0640F08F80B0
:1022D0004388A1F108055BBA9BB2AB42C0F087808E
:1022E000A64B186083885BBA8380FFF7D3FFA08872
:1022F000012840F0C181E7793FB1012F7CD008204F
:1023000028B0BDE8F047FFF7A9BF01469C4805F09B
:102310006CF806219B48FFF795FF0521984805F0CA
:1023200055F83C46DFF89482974FDFF894922146A7
:10233000002004F050F907A9C0B2FFF73DFD0546A3
:10234000002849D1202301460DEB0302079804F031
:10235000C6FD089B3E6843450DD14023019318AB51
:10236000009329462846CDE90355079B029508AA04
:10237000FEF736F90646079804F0B0FDD9F80030AC
:10238000B34229D114217E4805F02FF804217F485B
:10239000FFF758FF21467A4805F009F807217C48E5
:1023A000FFF750FF0E9B40210293BDF83630794A6B
:1023B00001939DF8353018A800939DF8343000F053
:1023C00067FE18A805F0C0F8014618A8FFF73AFF05
:1023D00014216B4805F027F864B10521684805F021
:1023E00013F80121664805F01EF8FFF73BFE28B000
:1023F000BDE8F08701249AE7294607AB08AA04F153
:102400000800069600F030FA28B30324224649213A
:10241000614804F056FD0A21594804F0E6FF022104
:102420005E48FFF70FFF2146554804F0BCFF44B952
:1024300003215B48FFF706FF5A4B5148196804F027
:10244000B6FF0A214E4804F0EEFFFFF70BFE069898
:1024500004F044FDCBE7079B9D42D6D14FF0FF39F6
:102460000146C84605460746179C08AAA14222D144
:10247000B8F1FF3FC9D0002FC7D0002104F0ABF85E
:1024800006A9C0B2FFF798FC04460028BDD1454E0E
:10249000B8F1000F66D106983460D0F8088004F0D7
:1024A00080F94149FEF78CF8C8B145213F4804F056
:1024B00008FD0124AAE7137A032B04D8DFE803F010
:1024C0000206090C106801310C32CFE7D2E9007521
:1024D000F9E7D2F80090F6E7D2F80080F3E7C845B4
:1024E00093D3334B1C60334BC3F800903268DFF852
:1024F000C080013AD8F8001006982A44FFF73CFE45
:102500000028C8F8000080DB069804F028FDB5FB21
:10251000F0F303FB10503268C1B2DFF89890A5EBDE
:10252000010808EB0203D9F800501944A94238BF4A
:1025300000204921C5B2204804F0C3FC069804F0ED
:102540000EFD012805D9069804F009FD013807425F
:102550006FD143463A463168069804F0D5FC00280E
:1025600055D052E7336843457FF450AF114A05EB2D
:10257000080312689342B9D947E700BF80D700200B
:1025800050D700207A8C0000E8C40020818C000025
:10259000868C00008E8C0000BD8C0000778C0000C3
:1025A000CB8C00004CD7002044D700205C87000073
:1025B00040D700203CD700209D8C00003DB8F3960A
:1025C000A8C60020C245069888BF5FFA88FA04F0C2
:1025D000CDFC4022014618A804F0EFFF52463946D0
:1025E00018A804F0DFFF53463168069818AA04F0D3
:1025F0008BFC00287FF409AF3368574453443360A1
:10260000A8EB0A08069804F0AAFC8045DAD29DB926
:102610003368D9F800202B444344934233607FF45D
:10262000F5AE204B06981A681146FFF7A5FDC40FBA
:10263000ECE64FF0400AE5E7069804F097FC082224
:10264000014618A804F0B9FF2A4607EB080118A8AC
:1026500004F0A8FFDDF818A03168504608EB010728
:1026600004F07DFC3946034618AA504604F04CFCA1
:1026700000287FF4CAAECBE700287FF440AEE379B0
:10268000012B3FF43DAE052B03D0002B7FF437AE7A
:10269000ADE6FFF7E3FD044805F017FC0120FFF766
:1026A00057FB00BF44D7002090D0030001232DE941
:1026B000F34100240646DFF8B480274D88F8003047
:1026C000264B274F0094186098F8003013B902B0D9
:1026D000BDE8F08100F070F9224BC4F58061C3F8C9
:1026E0000056C3F80456C3F80856C3F80C56C3F88E
:1026F0001056C3F81456C3F81856C3F81C5633685E
:1027000001AA0131381998470028019B01DC002BF0
:10271000DAD004442BB940F201439C42D4D10024C6
:10272000D2E73B78062B09D17B78092B0BD100230C
:1027300000936946A01EFFF751FD04E0042B02D16F
:102740007B78142BF5D00128E9D10099064802398D
:10275000FFF7B2FDE3E700BF3546526E84D7002095
:10276000B9DD002000800150BAD90020B7D900207F
:1027700073B504460D4604F0ABFE002868D0354B17
:102780006946009305232046019304F077FD60B16C
:102790002946204604F053FD38B100232B72204611
:1027A00004F09DFE012002B070BD204604F093FEAF
:1027B00078B1294B6946009304232046019304F025
:1027C0005DFD30B12946204604F055FD08B10123D6
:1027D000E4E7204604F07FFE78B1204B6946009381
:1027E00003232046019304F049FD30B129462046D9
:1027F00004F025FD08B10223D0E7204604F06BFE6B
:1028000078B10326164B694620460093019604F0E2
:1028100035FD30B12946204604F011FD08B12E7275
:10282000BDE7204604F057FE78B10E4B6946009391
:1028300003232046019304F021FD30B129462046B0
:1028400004F019FD08B10423A8E7204604F047FE70
:102850000020A8E7C2890000CF8C0000D48C0000C3
:10286000CB8C0000D88C00002DE9F0434FF001091B
:102870009DB004AC07460E4690461D4602460B46E8
:1028800020460421CDF8009004F02DFE204604F0EF
:10289000F8FC70B10C230521CDE901834846114BAA
:1028A000009408F13C0204F00CFD60B9204604F0ED
:1028B00003FD0022099BD868DA60904208BF1F2000
:1028C0001DB0BDE8F083204604F0F4FC0028F0D0F1
:1028D0000DB90020F4E7049BDB1BB34294BF2B60CF
:1028E0002E60F6E77127000002464B1E0846D15CB9
:1028F00051B102280FD9084B0344012013F8023CC0
:102900009840C0B270472BB11846013BD15C0029FA
:10291000F9D0EEE718467047DC8C0000F8B50546A4
:102920000F46104619461646FFF7DEFF01280446FB
:102930002A68E9681CD13378172B04D9931C994273
:102940001AD3002325E0501C814215D300248A426B
:1029500012D2511C03F01F03296043EA4711117082
:102960003444B44218D1AB6801200133AB6007E0B6
:10297000431C1344994204D2082200206B69DA6098
:10298000F8BD08B93378E2E7831E062BD9D806488C
:10299000C35C1833DBB2DAE72B685A1C2A6014F8E0
:1029A000012D1A70DDE700BFDC8C00000149102208
:1029B0000A60704710ED00E072B6404080F3118865
:1029C000BFF36F8FBFF34F8F30BF62B6BFF36F8F10
:1029D000704700BF72B6494081F3118820BF80F371
:1029E000118862B6704700BF37B505460C46C9B1BD
:1029F0008B6810480093D1E90023452104F061FA67
:102A0000636945210093D4E903230B4804F059FA84
:102A10004521E269094804F054FA4521A2690848B1
:102A200004F04FFA2146284603B0BDE8304002F0DA
:102A300069B800BFE38C0000178D00004B8D0000CB
:102A40005F8D000040B2002807DB01234109034AE3
:102A500000F01F00834042F82130704700E100E0A1
:102A6000054B420953F82220012300F01F0003FA0E
:102A700000F01040704700BF00E100E040B20028C5
:102A800001F10101ACBF00F16040064B4FEA41117A
:102A9000C9B2ABBF00F5614000F00F0080F8001331
:102AA0001954704714ED00E030BFFFF7FDBF00BFC1
:102AB000144A08B5144B22F07F029A60BFF34F8F7F
:102AC000BFF36F8FD3F8882022F47002C3F88820F8
:102AD000D3F8882042F4A002C3F888204FF0404287
:102AE000C3F83422BFF34F8FBFF36F8F0023E1EEA3
:102AF000103A02F07FF802F0C1F800F043FA02F059
:102B000085F800BF0000000000ED00E01EF0040F9B
:102B10000CBFEFF30880EFF30980816911F8021C04
:102B20000229FFD001B504F000FD01BD04460846AE
:102B300011461A460023E1EE103A83F30B880A4B44
:102B40002025A3F5205686F30B8883F3098863B606
:102B50004FF0000383F31188BFF36F8FA04785F315
:102B60001188BFF36F8FFEE7E011012001B5EFF38D
:102B70000580A0F110004FEAC0000449014409C9D2
:102B80009847BDE80140024908470000D47F000093
:102B9000952B0000704700BF38B5214C45212148D6
:102BA00004F08FF9A36A9D0103D545211E4804F066
:102BB00088F9A36ADC0103D545211C4804F081F99A
:102BC000174DAC6A14F4801404D04521184804F061
:102BD00078F90224AB6A180303D54521154804F09F
:102BE00070F90F4DAB6A590303D54521124804F023
:102BF00068F9AB6A9A0303D54521104804F061F9DE
:102C0000074DAB6ADB0303D545210D4804F059F9A4
:102C1000AB6A20466FEA03436FEA1343AB6238BDE9
:102C200000ED00E0928D0000AF8D0000C78D000028
:102C3000E68D0000158E0000388E0000628E0000C8
:102C4000818E000070B5234C06460D462248452172
:102C500004F037F9A36AD90403D545211F4804F0CD
:102C600030F9A36A1A0503D545211D4804F029F956
:102C7000184CA36A9B0510D51A48452104F021F988
:102C8000A26BA36A180408D54521174804F019F966
:102C90001EB1A36A23F40043A3620E4CA36A590534
:102CA00003D54521114804F00CF9A36ADA050BD5C8
:102CB00045210F4804F005F90020064A936A43F4C1
:102CC0007F439362287070BDA36A9B04F4D54521AD
:102CD0000848EFE700ED00E0B18E0000CC8E000068
:102CE000E28E0000FA8E0000188F0000328F000084
:102CF000528F00006F8F000070B5264C06460D46BF
:102D00002548452104F0DDF8A36AD80603D54521FE
:102D1000224804F0D6F8A36A190703D545212048B4
:102D200004F0CFF81B4CA36A9A0710D545211D4823
:102D300004F0C7F8626BA36A1B0608D545211A4840
:102D400004F0BFF81EB1A36A23F08003A362114C04
:102D5000A36ADE0703D54521144804F0B2F8A36A3C
:102D6000980603D54521124804F0ABF80020094B22
:102D70009A6AD10658BF9A6A9A6A920642BF5A6AFC
:102D800022F400525A629A6A42F0FF029A62287054
:102D900070BD00BF00ED00E0A38F0000BE8F0000FB
:102DA000E28E0000F68F0000139000002E900000CD
:102DB0006F8F00002DE9F0415C4B05465F680026EF
:102DC0008AB0C7F3080486F31188BFF36F8F02F04F
:102DD0007F43B3F17F4F07D102F00C03082B14D1CE
:102DE0004521534804F06DF8002635464FF00008A1
:102DF000E31E8DF80780092B00F28680DFE803F0E0
:102E00000A797D7584848484848110074CBF0D46C3
:102E10000126EBE745214748444C04F052F88DF871
:102E20000780E36A9A0705D54521434804F049F82D
:102E3000002432E0E36A002B02DA45213F48F5E73F
:102E4000E36A5B00F4D545213D4804F03AF8636934
:102E5000AA6943F480736361BFF34F8FBFF36F8F31
:102E6000636932F8022C23F480736361BFF34F8FE0
:102E7000BFF36F8F4DF602739A4208D0A36ADBB29C
:102E80002BB301200DF10701FFF736FF2FE045219D
:102E90002A682C4804F015F82C689DF807309BB977
:102EA0002022294602A804F07DFB099B002E38D081
:102EB000C3F3080222B96FEA53236FEA432309934D
:102EC000204602A9FFF790FD0AB0BDE8F081A36A91
:102ED00013F47F4F05D001200DF10701FFF7B2FE7B
:102EE00005E0A36AB3F5803FA2D3FFF755FE044681
:102EF000D3E700200DF10701C6E700200DF107011F
:102F0000ECE74521104891E7104917F4F87F104A83
:102F1000104808BF0A46A4F11003452103F0D1FF71
:102F200086E723F4FF7323F00103C8E700ED00E018
:102F300080900000B0900000CC900000F290000063
:102F400005910000299100004A9100005290000074
:102F50006790000073910000044B5A6942F0100220
:102F60005A615A6942F480625A61704700ED00E08C
:102F7000EFF30880EFF3098101B57246FFF71AFFFE
:102F800001BD00BF002320210348C2180133412B9B
:102F900082F80013F9D1704700E100E0002080F3CF
:102FA0001488BFF36F8F002080F30A8880F30B88AA
:102FB000FEF700FF00200E490860BFF34F8F0D4859
:102FC00080F3088800F03EF8202080F311880A483A
:102FD0004FF40061401880F30988EFF31480022158
:102FE000084380F31488BFF36F8FFFF761FD000083
:102FF00094ED00E0E0110120E0E10020BFF34F8FED
:103000000549064BCA6802F4E0621343CB60BFF384
:103010004F8F00BFFDE700BF00ED00E00400FA05A0
:10302000002318460649D1F89020C2F307229342A4
:1030300000DB7047C1F89830C1F8A0000133F6E713
:1030400000ED00E010B572B6002484F31388FFF79A
:10305000E7FF23464FF0FF300C4A03F12001013314
:10306000102B42F82100F8D100234FF0FF30074A1F
:1030700003F160010133102B42F82100F8D162B650
:10308000BFF34F8FBFF36F8F10BD00BF00E100E0B3
:103090000CB410B586B009B90DF10B000024CDE9D0
:1030A000040109AB089A009404A905480393FEF7AC
:1030B0002FFC049B1C7006B0BDE8104002B07047A6
:1030C000CD750000084B70B5C31A0D4607499B101B
:1030D000044659434022064804F0A1FA2B46014613
:1030E0002046BDE8704018479CD70020B76DDBB67E
:1030F000747F0000402373B50B4C0093041B0B46F8
:103100000D460A49A41061430646094A094804F0DD
:10311000B2FA011E05DA30462B4602B0BDE8704017
:10312000184702B070BD00BF9CD70020B76DDBB65A
:10313000E7760000747F000070B50022012104468C
:103140000520FFF79BFC0F4801F00EF90E4B98424B
:1031500015D104F04BFE26690C49304603F027FEDA
:1031600000280BDB012535642469084904F11C00A3
:1031700003F01DFE002801DB0020E56470BD6FF048
:103180000400FBE7C53100000000AD0B2C830000FC
:1031900001460C23002270B54B430848C418403345
:1031A000D4E90E561844A26304F026FA2DB1324633
:1031B0002B46BDE870400248184770BD9CD70020E0
:1031C000747F000010B1012804D07047034B1B6CC2
:1031D0005B0701D1FFF7DCBF704700BF9CD7002021
:1031E00008B54FF02003EFF3118183F31288BFF38A
:1031F0006F8F124A136843F002001060DA0708D498
:1032000081F31188BFF36F8FBDE80840012004F0FF
:10321000FBBD4FF05023D3F80C24D3F80C34D30764
:10322000EED5074804F0E8F981F31188BFF36F8FFA
:10323000BDE808400020FFF7ABBF00BFECD700207F
:10324000DCD70020074BD3E8EF2F22F00201C3E8C0
:10325000E01F0028F7D1D30702D4012004F014BEE8
:10326000704700BFECD700202DE9F8430122074644
:103270003449D1E8EF3FC1E8E02F0028F9D133B954
:10328000314932484B60CB608A6003F0A3FD7B1E5E
:10329000012B2DD8012F07D14FF05023D3F81C3428
:1032A00003F00303022B23D004F009FE054608BBFC
:1032B000274B1B78F3B14FF0502302220646C3F888
:1032C00008234FF050244FF00008DFF88890D4F81E
:1032D0001834D4F81824D20316D503F00303022BB4
:1032E00001D0012F10D13DB386F31188BFF36F8F4A
:1032F000BDE8F8834FF02003EFF3118683F31288C3
:10330000BFF36F8F0125DCE73046FFF763FBD4F88E
:103310001835DBB2012BDAD1D4F80421002AD6D03B
:10332000C4F80481D4F804210222C4F8182520220C
:10333000C9F88021A360CAE74FF050230222C3F8E6
:103340000423D5E798D7002088D70020B8D70020DD
:10335000DCE1002000E100E030B5406801F01F042E
:10336000057BB2F5001F85B044EA451405D120461F
:1033700001F090FA002005B030BD0025B2F5800FB5
:10338000CDE9025514D1B3F1007F0CBF042305230E
:103390008DF8083000232046194602AA01F0B0F843
:1033A0001C4B984233D10121204601F02FFAE1E76E
:1033B000B3F1C06F20D0B3F1007F14BF012302230B
:1033C0008DF808308368CB40D907E3D4B2F1A07FF1
:1033D000E0D1114A04F01F03803352F82330DB0799
:1033E000D8D40DF107052946204601F0BBF90B4B57
:1033F000984203D00395CDE70323E1E7284601F087
:10340000FFF9044B9842F5D06FF00B00B3E76FF073
:103410001500B0E70000AD0B002584500400AD0B93
:1034200010B501F0DDF9044668B901F0B1F9084BB7
:1034300098420AD12146074801F08EF9224605211B
:103440000D20FFF71BFB002010BD6FF00400FBE711
:103450000000AD0B59340000430970B507D10B4B88
:10346000596821B101250C68094E854001B970BD2C
:103470008A682A4002D030464B6898471CB12368BE
:1034800021461C46F2E72346FAE700BFF0D70020AA
:103490008C7F00002DE9FF41476801F01F053B7B51
:1034A000144645EA43150E4628460DF1030101F086
:1034B00059F914F4403F80460BD1284601F012FA26
:1034C0003C4B984503D19DF8030001F093F900208F
:1034D0000CE000232846194602AACDE9023301F088
:1034E0000FF8344B984204D06FF0150004B0BDE8DB
:1034F000F081804503D19DF8030001F07BF9A3031F
:1035000049D540F206332340B3F5837F19D00CD858
:10351000062B17D004D8ABB1022BE5D1042311E060
:10352000B3F5807FE0D101230CE040F20222934208
:1035300026D0B3F5407F25D0B3F5007FD4D1022348
:1035400000E007238DF8043084F48033C3F3004394
:10355000E0068DF805304CBF0323C4F3401321036C
:103560008DF8063010D501237A68B34093600022AD
:10357000284601A901F070F80E4B9842A7D0B3E796
:103580000523DFE70323DDE7620341BF01237A68F8
:10359000B340D360EBE7E3064FF000034CBF0324D6
:1035A000C4F340141A46284601A98DF8044000F0DF
:1035B000A7FFE1E70000AD0B024B0B600123136096
:1035C000704700BFFCD7002000487047B48300005C
:1035D00010B504F061FC034C206004F05AFC6060FC
:1035E000002010BDFCD70020F8B50E46144604F0AC
:1035F00050FC21460546304604F0D2F8374600B369
:10360000B6FBF5F305FB136323B9B4FBF5F305FB38
:10361000134343B12346324645210C4803F051FC85
:103620006FF0150002E0A54201D90020F8BD04F0BA
:1036300030FC0546384601F037FA641B2F44F9D1B7
:10364000F3E72346324645210148E7E7BC910000F5
:10365000E0910000F8B50E461946304617461D4663
:1036600004F09EF840B92B4632464521114803F03C
:1036700028FC6FF01500F8BD46EA050414F00304B9
:1036800004D02B46324645210B48F0E74DB12B19AB
:10369000032BA6EB040006D8084AD2F80034DB0757
:1036A000FBD50020E7E73B1B196801F01BFA043C3F
:1036B000EDE700BFE091000002920000009003508F
:1036C00070B50D461946284616461C4604F068F8A3
:1036D00040B9084823462A46452103F0F2FB6FF023
:1036E000150070BD24B122462946304603F05AFF2A
:1036F0000020F6E7E0910000F8B504460D460769A2
:1037000004F0DDFB90B91F4B1B787BB16426606829
:1037100004F089F9E0B9012004F00CFB013EF6D178
:10372000F4E781F31188BFF36F8FEFE74FF02003C9
:10373000EFF3118183F31288BFF36F8F60680E4639
:1037400004F071F990B981F31188BFF36F8FEDE741
:103750004FF02003EFF3118183F31288BFF36F8FD3
:1037600060680E4604F05FF90028DAD07B69012218
:103770001D702046796904F096F886F31188BFF32E
:103780006F8FF8BDDCE10020F0B54B79012B26D01E
:10379000032B21D110258B79032B1DD1CE790EB1AE
:1037A000012E19D10A7912B1022A15D10E220B6805
:1037B0004468B3F5164F276867D02DD8B3F5165F68
:1037C00066D016D8B3F5966F64D00AD8B3F5967F55
:1037D00063D0B3F5167F63D06FF0850054E0002509
:1037E000D9E7B3F5166F5ED0B3F5965FF4D1384BD9
:1037F0003CE0B3F5E14F59D007D8B3F5615F57D03E
:10380000B3F5964FE8D1334B30E047F61224A3428C
:10381000E2D14FF4000329E0B3F5613F4AD013D859
:10382000B3F5963F49D009D84DF6C024A34246D0FF
:10383000B3F5614FD0D14FF46B0317E0B3F5E13F1F
:10384000CAD14FF0EB7311E0B3F5612F3AD008D82D
:10385000214CA34239D0B3F5E12FBDD14FF0E8633D
:1038600004E01E4CA342B7D14FF080530469C7F85F
:103870002435436835431B682A43C3F86C25231D50
:1038800003C983E803000020F0BD4FF41D03EDE7FA
:10389000134BEBE74FF49E23E8E74FF4A033E5E743
:1038A0004FF41C33E2E74FF41D23DFE70D4BDDE758
:1038B0000D4BDBE74FF06C73D8E70C4BD6E74FF4BA
:1038C0006503D3E74FF07063D0E74FF08063CDE737
:1038D00000B0130000A04E0090D0030040420F0043
:1038E0000050270000C0750000F03A0000903A0137
:1038F0002DE9F7438046002201210820FFF7BEF89A
:103900000820FFF79FF80021D8F80470D8F810605D
:103910003C6801AAC4F80015C6F80080D7F80C90DE
:10392000484604F02AF9051E1EDB019BD9F8002049
:103930001979186800F088FA051E15DB4046311D1C
:10394000FFF722FF054678B97B6899071DD506F178
:103950001C0000F04DFD214B984209D04521204824
:1039600003F0AFFA6FF00405284603B0BDE8F0831A
:10397000337F43F00043C4F8A031C4F88C300123F6
:10398000327F9340174AC2F804350823C4F8003543
:103990003B7A53B9C4F81031D4F81031B369C4F884
:1039A00034350123C4F8383523607B689A075CBF3F
:1039B0004FF48073C4F804337B68DB0644BF4FF4D4
:1039C0008003C4F804337369C4F844350023C4F891
:1039D00048350123A360E360C6E700BF0000AD0BDC
:1039E00046920000007001500123834070B5DC4313
:1039F0000B4AD2E8EF1F01EA0405C2E8E65F002E99
:103A0000F7D14FF4803282400648C0F80823BFF354
:103A10005F8FBFF36F8F0B4214BF0120002070BD7A
:103A200008D8002000500150F8B51B49044622F088
:103A30007F450868C1E90023A5F50013101AB3F506
:103A4000400F0FD301F07AF9A30003F1502303F5DF
:103A50008033D3F8402595421DD14FF40002C3F8BE
:103A6000402512E00D4B1B681A0A1B065E190C4B11
:103A700042F10007C3E9006701F060F9094A04F563
:103A8000A87352F823309D4205D14FF48033054A84
:103A9000A340C2F84433F8BD10C600200CD8002063
:103AA00018C6002000500150D9B101230D4A8340AF
:103AB000D2E8EFCF4CEA030CC2E8E1CF0029F7D1FE
:103AC0004FF48033084A8340C2F80433074BD3E8ED
:103AD000AF3FC340DB0742BF4FF40012044BC3F8B3
:103AE0000021704708D800200050015004D8002061
:103AF00000E100E00D4B1868010A0006BFF35F8F7C
:103B00000B4BD3F80435181841F10001B3F5801FB1
:103B10000AD2084BD3E90023904271EB030303D28E
:103B200010F1807041F10001704700BF0CD80020F7
:103B30000050015018C600202DE9F74F14461D46CD
:103B40000746FFF751FF0090FFF7D4FFA04271EB4B
:103B500005037AD2444B201A65EB0101984271F1BA
:103B600000017DD2414B03EB0713D3E902239D42B1
:103B700008BF944254D04FF4803324F07F4B5E460C
:103B800000214FEA870907F1500809F150294FEA4F
:103B90008808BB4009F580391FFA88F808F15028D9
:103BA0000193D9F84005324B08F58038D3F804A5C5
:103BB000A0EB0A0020F07F402AF07F420128C9F8DC
:103BC000402504D1132004F080F90021284B0AF18C
:103BD000020CA6EB0C0020F07F40B0F5000F88BF70
:103BE0006646C8F80010019AD8F8000026F07F4019
:103BF000C3F84423C9F84005D3F80405824506D02C
:103C0000301A023820F07F40B0F5000F1BD8A6EB29
:103C10000B0626F07F46361945F1000334461D4653
:103C200012490C9801EB0712C2E9024500243B013E
:103C3000C8500D9B536038460099FFF735FF20466A
:103C400003B0BDE8F08F3046B0E70123094ABB401E
:103C5000D2E8EF0F1843C2E8E10F0029E0D0F7E700
:103C60006FF01504E7E700BF0100000100C6002067
:103C70000050015004D8002073B500244FF0FF30ED
:103C80004FF0FF31164D174BC5F80845C3E9020147
:103C90004FF4803302264FF40012C5F80433124B60
:103CA0000121C5F804631520C3F880212246FEF7E0
:103CB000E5FE1520FEF7C6FE01230C4AAB602B6023
:103CC00013600B4B0B4A0093204600230194FFF72F
:103CD00033FF3046FFF7C8FA204602B070BD00BF80
:103CE0000050015000C6002000E100E008D800208C
:103CF000293A0000FFFF7F002DE9F743314BD3F84D
:103D0000042392070BD5D3F8042142B10022C3F853
:103D100004212D4AD3F804311368013313604FF0A6
:103D20002003EFF3118283F31288BFF36F8F254CCA
:103D3000D4F80433DB0325D5244BD3E8EF1F21F05F
:103D40000100C3E8E50F002DF7D111B9D4F84031D7
:103D5000C3B10025C4F84051D4F8403182F3118832
:103D6000BFF36F8FFFF7C6FE4FF02003EFF3118212
:103D700083F31288BFF36F8F154BD3E90267B0420C
:103D8000B94106D282F31188BFF36F8F03B0BDE84B
:103D9000F0834FF0FF38D3E900104FF0FF391D607A
:103DA000C3E902894FF48033C4F8483382F31188A1
:103DB000BFF36F8F0029E9D0009032463B4628467A
:103DC0008847E3E7005001500CD8002004D80020B9
:103DD00000C60020431C13B520D0012820DDB0F51B
:103DE000000F1FDA441EFFF785FE0F4BD3E90013C7
:103DF000421AB2F5000F28BF00240C4801322244B9
:103E0000824228BF024600205218094901900091C1
:103E100043F10003FFF790FE02B010BD0348E1E755
:103E20000024E0E7014CDEE710C60020FFFF7F0022
:103E3000293A000008B5FFF75DFE024B1B68C01A67
:103E400008BD00BF10C600202DE9F0410126394D04
:103E500000EB8101814202D10020BDE8F081D0F861
:103E600000C00CF07F037F2B08BF4FF0FF33BCF581
:103E7000802FCCF343274FEA1C440DD2013C022C87
:103E800012D8DFE804F019383B00173C022C38D870
:103E9000DFE804F0474A4D00A4F1160CBCF1030F13
:103EA000F3D96FF08500D8E7C2F80C3503F01F0492
:103EB00006FA04F4AC6031E0C2F814354FF0000C9F
:103EC00050F8044B03F01F0304F4005EBEF1000F32
:103ED00016BF4FF0000CE6464FF0010EC4F3C118B8
:103EE0003C0244EA880444EA0C0444EA4E04803369
:103EF00045F82340AEE7C2F80835D7E7C2F81035D9
:103F0000DCE7C2F86035046803F01F0CC4F38034AA
:103F100006FA0CFC002CC9D1C5F80CC04FF0010CFE
:103F2000CEE7C2F86435EEE7C2F86835EBE7C2F8D1
:103F30006C35E8E70025845040EA0103C3F30E0323
:103F400030B58BB940F21515094CC90BC0F3C73019
:103F5000994201D1002030BDC218D2B202F5C07220
:103F600044F822500133F3E76FF01500F3E700BF88
:103F7000003000500348452108B502F0A2FF0020A0
:103F8000FFF73CF88492000030B5816885B01039A5
:103F900021F00704054602F0E9FF102201466846B9
:103FA00003F00BFB10226846064903F0FBFA1023CE
:103FB0006A462146284602F0A7FF003818BF0120B4
:103FC00005B030BDD485000030B50D46816887B09E
:103FD000102302AA1039044602F081FF002802DAF9
:103FE000012007B030BD1022204602A903F0FAFDDF
:103FF00000283AD110221E4902A803F0ACFA00288A
:104000000CBF012302232B70204603F0D7FD0123B0
:1040100001460DF10702204602F061FF0028DFDBB8
:104020009DF80730204603F00F021B096A702B71C0
:1040300001220DF1070103F0D5FD10B96B78042BB7
:1040400003D901236B7000232B71A2682046183A14
:1040500022F00702083AA91C03F0D7FD0028BFD1BF
:104060002046E91C03F02AFEBBE70323CBE700BF91
:10407000D48500007FB505466946032003F024FE81
:10408000044610B1FF2004B070BD092002A903F05E
:104090001BFE012836D12A464921284802F011FF8B
:1040A000274B8DF80C40029300229DF800509DF89C
:1040B0000860244C2946207803F086FD48B3314639
:1040C000607803F081FD20B3A378042B03D09DF822
:1040D000031099421DD1E378042B03D09DF80B10F7
:1040E000994216D12379042B0FD16379022B1BD16E
:1040F000154A1648492102F0E4FE6079831E022B1E
:10410000C1D9BFE70028CFD0BCE79DF80210994283
:10411000EBD00132032A04F10604CBD10C4849212B
:1041200002F0CFFE0120AEE7032B05D0094A0A4971
:10413000042B08BF0A46DCE7084ADAE7C992000008
:10414000030103033C930000AB92000014930000B2
:1041500027930000B0920000C2920000A6920000D7
:1041600008B54FF47F03D3F83021D3F83431BFF3CF
:104170004F8F092A01BF4FF050230022C3F81421AA
:10418000C3F8182103F0C5FD28B10122524BC3F832
:10419000382AC3F878254FF47F03D3F83021D3F8B9
:1041A0003431BFF34F8F092A05D1012B1EBF0122E5
:1041B000494BC3F8782503F0ACFD18B10E22474BEC
:1041C000C3F8E42E4FF47F03D3F83021D3F8343111
:1041D000BFF34F8F092A06D100223F4BC3F80C27AB
:1041E0000122C3F810270022D30003F57F03D3F880
:1041F0000013BFF34F8F013108D0D3F80013013201
:10420000D3F80433B2F5807F0B60EDD1344BDA691B
:10421000BFF34F8FD10745D5BFF34F8F314BD3F845
:104220000024012AFBD1C3F80425D3F80024012A75
:10423000FBD12B4BDA69BFF34F8FD2070AD5DA696E
:1042400022F00102DA61BFF34F8F264AD2F8003420
:10425000012BFBD1224A136ABFF34F8F01330CD1DC
:10426000136A23F0FF0343F020031362BFF34F8F61
:104270001C4AD2F80034012BFBD10022194BC3F8A1
:104280000425D3F80024012AFBD1BFF34F8F164930
:10429000164BCA6802F4E0621343CB60BFF34F8F42
:1042A00000BFFDE71B6ABFF34F8F0133B4D00E4B45
:1042B000D3F88C2042F44062C3F88C20D3F88820D5
:1042C00042F47002C3F88820BFF34F8FBFF36F8FA3
:1042D000074B084A1A6008BD0040005000A0035078
:1042E0000080FF000090035000ED00E00400FA059C
:1042F0002CC500200090D00370B501250268B2FAE9
:1043000082F3C3F11F03DBB205FA03F422EA0404CB
:10431000D0E8EF6F964204D1C0E8EC4FBCF1000F3B
:10432000F6D1EBD101480B7070BD00BF0000AD0BA2
:1043300010B50368CB40DB0710D401238B40026823
:1043400043EA0201D0E8EF4F944204D1C0E8EC1FE9
:10435000BCF1000FF6D1F2D1014810BD0148FCE7D5
:104360000000AD0B0400AD0B044B1A7922B90122F9
:1043700018601A71024870470248704710D8002030
:104380000000AD0B0C00AD0B4FF0502310B5D3F86F
:10439000002152B10020C3F80001D3F8002101220E
:1043A000C3F80823114B1B6898474FF05023D3F8EC
:1043B00004218AB10022C3F80421D3F80421D3F8E0
:1043C0001824D3F8181402F00302012A4FF0020156
:1043D00003D1C3F818159A6010BDC3F80813034B36
:1043E0000120BDE810401B68184700BF10D800200E
:1043F00001460148FFF780BF30C50020064A00F0A3
:104400001F0002EB8002D2F8003223F4403343EA6B
:104410000143C2F80032704700258450034B083036
:1044200033F81000C0F34010704700BF34C50020BF
:1044300070B50D4C00F1080334F813300546DA0569
:104440000E4607D5C3F3432304EBC302526854F866
:1044500033309847A3682BB131462846E268BDE85F
:104460007040184770BD00BF34C5002010B4134A17
:10447000083032F81030D9051CD5C3F3432123F49A
:10448000F85322F81030002002F10E0434F8023FF5
:1044900013F4807F03D0C3F3432399420AD0013041
:1044A0002028F3D1002342F8313005485DF8044B51
:1044B000FFF73EBF5DF8044B704700BF34C50020D6
:1044C00088C5002038B50246FFF7A8FF0B4C02F163
:1044D000080560B1002134F815305B0B9B0003F137
:1044E000A04303F55043C3F81015C3F81015104648
:1044F000FFF7BCFF002324F8153038BD34C5002079
:104500002DE9F34104461D4609B34E4F00F108085A
:1045100037F81860B30706D5FFF780FF18B14A488F
:1045200002B0BDE8F081494804F01F0300EB8300AE
:10453000D0F80032097823F00F0326F0020643EA90
:10454000810346F00106C0F8003227F818609AB1DE
:104550003C4E04F1080736F81710137811F0020FDB
:1045600050680CD00028DAD136F8172022F01C024F
:1045700042EA830326F81730D5BB3548D0E721F04F
:104580002001C904C90C26F817100028ECD0032B11
:10459000C5D8526892F800C06246920002F1A0426B
:1045A00002F5504223B9C2F81035C2F81035DBE7E6
:1045B000D2F8100541EA4C3120F00300C2F8100592
:1045C000D2F8100541F0200120F4473020F440706B
:1045D000C2F810052002D2F810E500F4F85040EAC5
:1045E000034040EA0E00C2F8100526F81710BBE79A
:1045F0002046D5E90067FFF739FF002EBDD0114DE9
:10460000D5E90023964201D19F4218D011480DF1FF
:104610000701FFF771FE0E4B984281D19DF80720EC
:1046200005EBC20308345F6035F8143045F832609A
:1046300043EA422343F4807325F814309DE70022B7
:10464000EEE700BF34C500200400AD0B0025845008
:104650000000AD0B88C50020F8B5044679B33A4E8A
:1046600000F1080736F81750AB0704D4FFF7D6FE61
:1046700008B13648F8BD15F01C0F4B7822D104F074
:104680001F00DFF8CCC000F1800E5CF82EC091F85E
:1046900002E05B002CF4E16C097843EA8E032CF015
:1046A000070C43EA0C0343EA0123294943F00103C1
:1046B000803045F0030541F8203026F8175022B924
:1046C0002448D7E7012BDAD1D3E71F4E04F10807BE
:1046D00036F817008307CCD592F800C00023614656
:1046E00020F02000890001F1A041C00401F55041F3
:1046F000C00CC1F8103526F81700C1F810355578F0
:10470000002DDDD0D1F81035927823F4981323F4DE
:10471000F853C1F81035D1F810E5230203F4F8532B
:104720002D0443EA0E0305F4403512052B4302F431
:10473000801240EA4C30134340F02000C1F810359D
:1047400026F81700BCE700BF34C500200400AD0BFD
:10475000002584500000AD0B014BC3E902017047F6
:1047600034C5002008B50246FFF758FE38B1054BA6
:10477000083233F8123004485B0B0B7008BD034855
:10478000FCE700BF34C500200000AD0B0400AD0BFA
:1047900038B50F4C94F85850BDB94022294604F161
:1047A000100002F00AFF0D20FEF74CF9094B0A48F1
:1047B000C3F87C51D3F87C214FF00042C3F80423A6
:1047C000012384F85830636538BD0448FCE700BF16
:1047D00034C5002000D000500000AD0B0500AD0B2B
:1047E000034B93F85800003818BF0120704700BFF2
:1047F00034C5002001460148FFF79ABD84C500205A
:1048000001460148FFF778BD84C50020024610B577
:10481000FFF704FE1C4B02F1080433F81430E0B13A
:1048200013F0020419D15B0B9A0002F1A04000F5CD
:10483000514002F1A042046002F550420068D2F8F3
:10484000100540F00100C2F8100529B1012202FA5A
:1048500003F30E4AC2F8043310BDC3F38203042BE2
:104860000ED0052B0ED00A4B196902F01F03D94058
:1048700001F0010102311046BDE81040FFF7BEBD56
:104880000321F8E70221F6E734C5002000D00050EC
:104890000025845008B50246FFF7C0FDC0B10F4B9C
:1048A00002F1080133F81130990711D401225B0B92
:1048B0009A400B499B0003F1A043C1F8082303F57C
:1048C0005043D3F8102522F00302C3F8102508BD89
:1048D0000021BDE808401046FFF790BD34C5002018
:1048E00000D0005010B50C4B00F1080233F8123024
:1048F0000446DB070DD5FFF7CDFF2046FFF7E2FDAD
:104900000222064B04F01F048034054843F824209B
:1049100010BD0448FCE700BF34C5002000258450CA
:104920000000AD0B0400AD0B2DE9F04F0025012276
:104930002C464D4B4D484E4985B01E6836B1D0F8D7
:10494000046316421EBF1C601E68154304338B426D
:104950004FEA4202F1D1454FD7F87C3193B1454E31
:10496000336A039333624FF0010A0DF10C09039887
:1049700070B9C7F87C01D7F87C31336A039333628E
:10498000002BF0D10124002D56D105B0BDE8F08FE9
:1049900090FAA0FBBBFA8BFB374A0BF108034FEAF6
:1049A000DB0C32F813100BF0070419F80C300AFA7C
:1049B00004F423EA040309F80C3006EB8B03D3F864
:1049C0000042C1F38202C9069046C4F3014418D5DF
:1049D000114658460193FFF72BFD019BE4B2D3F833
:1049E0000032C3F301439C4207D100215846FFF730
:1049F00005FD21465846FFF701FD0AFA0BF030622B
:104A0000B5E7022C0CD103215846FFF7F7FC08F05C
:104A10000503012BF1D141465846FFF709FDECE7AC
:104A2000022158460192FFF7E9FC019A032AF2D0CD
:104A3000032CE2D18A42EDE795FAA5F3B3FA83F3AA
:104A400004FA03F29B0003F1A04303F55043D3F8AB
:104A50001005D3F81015C0F30420C1F3014125EA75
:104A60000205FFF7E5FC8EE700D1005000D00050B2
:104A700020D100500025845034C500200022034B73
:104A8000C3F88425C3F80425704700BF0090035085
:104A9000044AD2F80834DB07FBD50160BFF35F8F0F
:104AA000704700BF0090035008B5C0F30B0383B9F3
:104AB0000222094BC3F88425C3F804254FF0FF32C6
:104AC0000260D3F80024D207FBD5FFF7D7FF0348D5
:104AD00008BD0348FCE700BF009003500000AD0B89
:104AE0000A00AD0B012208B5054BC3F88425C3F8B5
:104AF0000425FFF7CDFFBDE80840FFF7BFBF00BFAB
:104B00000090035073B504460D464FF02003EFF3B9
:104B1000118683F31288BFF36F8F0022042896BF9B
:104B2000114B124B53F82030009245210246104899
:104B300002F0C7F93DB1EB69C3F308031BB145218E
:104B40000C4802F0BEF900220B4B45210B4802F045
:104B5000B8F929462046FFF70DFA86F31188BFF30E
:104B60006F8F02B070BD00BF348400004E93000010
:104B70005C93000089930000AF930000B79300009E
:104B80000F4B70B553F82040013053F82060A64217
:104B900000D870BDD4E90035284698476DB138B1CA
:104BA0000028B8BF4042FF28A8BFFF20EB6818705C
:104BB000EA68537843F0010353700834E7E700BF15
:104BC00048840000012208B5084B03201A70FFF743
:104BD000D7FF00F00FF90420FFF7D2FFFBF738FCF6
:104BE000034A137B23F00103137308BDDCE10020AB
:104BF00020C6002008B50348034A0021121A03F01A
:104C00005AF908BD00C60020E0E1002008B50020E8
:104C1000FFF7B6FF164B03F5006282F3088883F3B3
:104C20000A880025E023134C84F82230E5772576A6
:104C30006576A57684F82050636A43F4E0236362C6
:104C400084F82350FEF788F9FDF7B0FE4FF0FF33EC
:104C5000A362E36203F023F90120FFF791FF022032
:104C6000FFF78EFF2B462A4629460348FDF75EFFD5
:104C7000E0E1002000ED00E0C54B000008B506486B
:104C8000064A0749121A03F018F9BDE80840054A18
:104C90000549064803F011B9E8C4002000C6002009
:104CA000509400000000000050940000E8C4002070
:104CB000034B1B680BB9FFF7BDB80020704700BF5E
:104CC00018D8002010B50E4B1C689C4204D1FFF789
:104CD000EFFF6FF0004010BDFFF7EAFF002CF8D0A7
:104CE000D4E904321B1A62EBE072B3F1004F72F1A7
:104CF0000001EEDA002AACBF18460020EBE700BF47
:104D000090C5002030B570B10B4B5B6898420AD05B
:104D1000036843B1D3E90421D0E90445121941EBFA
:104D20000501C3E90421D0E9003213605A60002371
:104D3000C0E9003330BD00BF90C500202DE9F84325
:104D400003464FF02002EFF3118482F31288BFF381
:104D50006F8F254FDFF89490D9F80000DFF890C0EE
:104D600048453B604FEAE375DCE9001E0CD058B1C2
:104D7000D0E90486434575EB060217DAB8EB030267
:104D800066EB0506C0E9042659184EEB0505CCE98B
:104D9000001500253D60FFF795FF2946FFF71AF83B
:104DA00084F31188BFF36F8FBDE8F88318EB01011E
:104DB0004EEBE8730022CCE900130023C0E9042382
:104DC000FFF7A0FF84F31188BFF36F8F83689847C4
:104DD0004FF02003EFF3118483F31288BFF36F8F3A
:104DE0003B68A3EB0803B7E718D8002090C5002064
:104DF000A0C60020014801F07CBF00BF2194000044
:104E000010B50A4C23681BB101230020236010BD9C
:104E100000F050F80028F7D00138062803D8044BDA
:104E200053F8200010BD034810BD00BF1CD800205F
:104E300060840000FE8FFFFFBFF34F8F0549064BD4
:104E4000CA6802F4E0621343CB60BFF34F8F00BF28
:104E5000FDE700BF00ED00E00400FA0530B44FF0BC
:104E6000FE320025074B084C08494968C3F8002466
:104E7000C3F80424C3F80824C3F80C24C4F800556C
:104E800030BC0847001084500000845098C50020B2
:104E9000024BD0E90012C3E90012704798C5002008
:104EA00038B131B1002201440346013088421A7002
:104EB000FAD1704738B500F02FF820B1032400F084
:104EC00063F8204638BD00F031F898B900F0ACF82E
:104ED00098B90F4DD5F828391B0EF02B08D1D5F80D
:104EE000242A0C4B9A420AD0072400F017F8E6E770
:104EF0000624FAE70424204638BD0024F5E7012003
:104F000000F092F804460028F7D1C5F80C0AD8E75B
:104F1000001084500000E0200020704700207047FF
:104F2000014BC3F8040A70470010845010B51148B3
:104F300000F048F800B110BD0F4800F043F8002819
:104F4000F9D10E4C204600F03DF80028F3D10C4B6F
:104F50000C481C6000F036F801460028EBD100F048
:104F60002DF8044608B1204610BD00F03FF8204659
:104F7000FAE700BFACC50020A0C50020A8C50020EE
:104F8000B0C50020A4C5002008B5084800F024F8EA
:104F9000074800F021F8074800F01EF8064800F026
:104FA0001BF8BDE8084000F00BB800BFACC50020FE
:104FB000A0C50020A8C50020A4C50020002070477F
:104FC000704700BF08B5034B02681B68106898471C
:104FD000002008BDBCC5002008B5034B02685B6813
:104FE00010689847002008BDBCC5002070B5094C6A
:104FF000094D2069AB68984718B1084B08485B68B1
:1050000098470021074AEB6811602069BDE87040AD
:10501000184700BFCCC50020BCC5002098C50020A3
:105020007C84000020D80020F8B51A4D1A4E0446A2
:10503000B26828699047E8B9184F3B684CB1A3B1F2
:10504000012B19D0013B3B602869F3689847002089
:10505000F8BD43B90121124AC2F800151149D1F82F
:105060001029002AFBD101333B60F3682869984777
:105070000020F8BD0C48F8BD0A4AD2F81039002BC0
:10508000FBD1074A6FF07E40C2F80035FFF748FFBA
:105090003B68D7E7CCC50020BCC5002020D8002045
:1050A0000000845000108450E98FFFFF10B50446C3
:1050B00050B1636813F0685F05D0064A934202D08E
:1050C00000236260236010BD034B04485B6898476F
:1050D000EFE700BF2C5F5CA998C500209C8400000E
:1050E000C8B143680D4A934213D013F0685F0ED0E5
:1050F000012350E8002F194640E8001C9CF0000FE7
:10510000F7D1012AF5D0BFF35F8F00207047044824
:105110007047044870476FF4E04070472C5F5CA90B
:10512000E98FFFFFEA8FFFFF034680B1426809491C
:105130008A420AD012F0685F05D0BFF35F8F002269
:1051400010461A60704704487047044870476FF46F
:10515000E04070472C5F5CA9E98FFFFFEA8FFFFFFB
:1051600010B5044620B10023034A2360626010BDDD
:105170000248FFF773FEF6E73A00003AC4840000E5
:1051800030B10268034B04489A4208BF00207047C0
:1051900002487047DD55AABB8208F0007108F00094
:1051A00038B50D460446B0B1A0220021043002F00B
:1051B000AAFE95B10822294604F1640002F0A9FE76
:1051C000082205F1200104F1840002F0A2FE002073
:1051D000034B236038BD0348FCE70348FAE700BFF0
:1051E000DD55AABB7108F0008308F0002DE9F743F4
:1051F00005460E4699461146FFF7C2FF04460028B1
:1052000040F08480002E00F08580002900F084802A
:10521000B9F1200F40F0828005F14404082205F125
:105220000408204602F075FE05F1240708223146E5
:10523000404602F06EFE06F120010822384602F0D8
:1052400068FE02A941F8049D4FF4807002F055FEFB
:10525000002865D14FF48073324A012113609360B6
:105260000823314A00F034FB0121052308462F4A68
:1052700000F02EFB0823424601211C2000F028FBF1
:1052800008233A460121032000F022FB224608238E
:105290000121022000F01CFB0823254A01211A20CD
:1052A00000F016FB0523234A01211B2000F010FB10
:1052B0000823214A0121142000F00AFB08231F4A79
:1052C0000121152000F004FB082305F164020121EF
:1052D000162000F0FDFA082305F1840201211720B1
:1052E00000F0F6FA0823164A01210B2000F0F0FA2C
:1052F00000F04AFB0446019800F0D8FA114B002C4C
:1053000018BF1C46A421284602F0FFFD204603B02A
:10531000BDE8F0830C4CF9E70C4CF7E70C4CF5E7D3
:10532000084CEFE79010845028850000A08500000D
:10533000E88400008C8500004C8500006C8500002E
:10534000088500008408F0007608F0008008F0006E
:105350008108F000C2690C4B1A60826943F8042C82
:10536000426943F8082C026943F80C2CC26843F8E0
:10537000102C826843F8142C426843F8182C0268F9
:1053800043F81C2C704700BF5C1684500C4B1B6804
:10539000C3610C4B1B6883610B4B1B6843610B4B58
:1053A0001B6803610A4B1B68C3600A4B1B68836060
:1053B000094B1B684360094B1B680360704700BFC3
:1053C0005C168450581684505416845050168450DD
:1053D0004C1684504816845044168450401684500D
:1053E00030B10268034B04489A4208BF002070475E
:1053F00002487047DD55AABB0202F0000002F0002F
:1054000038B5044668B1051D7021284602F07DFDBF
:1054100028462022044902F074FD0020034B23603B
:1054200038BD0348FCE700BFB4850000DD55AABBCA
:105430000002F0002DE9F04385B015466F46274B7A
:1054400004460E460FCB87E80F002DB94FF0000938
:10545000484605B0BDE8F0832046FFF7C1FF81460E
:105460000028F5D1231D0193636AA3BB236F8BB181
:10547000C3F14008A84528BFA84604F130003146D2
:105480001844424602F03DFD236F464443442367DF
:10549000A5EB0805226F402A06D104F130013846F9
:1054A00000F0B4FB0023236705F03F0835F03F050B
:1054B00005D031462A46384600F0A8FB2E44B8F104
:1054C000000FC3D04246314604F1300002F019FD0E
:1054D000C4F87080BCE7DFF80890B9E740820000AC
:1054E0000C02F0002DE9FF4104466F46134B0E46B7
:1054F0000FCB87E80F002046FFF772FF8046B0B958
:10550000CEB1636A251D01953BB90123226F636209
:1055100004F13001384600F079FB2B46043E243478
:1055200053F8042B12BAA34246F8042FF8D1404690
:1055300004B0BDE8F081DFF80880F8E740820000A1
:105540000502F000084B1B681B0EF02B08D1074B1F
:105550001A68074B9A4205D10020064B1860704725
:10556000052070470620704728198450241A84505B
:105570000000E0200C1A8450002230B5134640F69B
:10558000FC754900023802F1A15404F582349042BE
:105590004FEA840402F10102CABF236025605B1850
:1055A0001E2AF0D1034A13600B445360024B034A96
:1055B0001A6030BD781084508410845020F80F0099
:1055C0001E4B30B51A4685B0196800910099CC077A
:1055D000FAD500F1A15000F582308000016813680F
:1055E0000193019BD807FAD5154B164C1868202358
:1055F0001F3090FBF3F0144D0138002810DA00231F
:105600000130400153B14FF00042A0F1200113429C
:1056100004D1013888424FEA5202F8D105B030BDBA
:1056200013680393039BDB07FAD5431823602B68A9
:105630000293029B002BE3D10138DEE7B4108450C3
:10564000AC108450E4108450DC108450F0B51D6818
:1056500085B001F01F040DB91F2C28D1174D2E461F
:105660002F680197019FFF07FAD500F1A15000F5BF
:1056700082308000006835680395039DED07FAD5F8
:105680001F2C00EB611018BFC9430D4D18BF01F06E
:105690001F0128600B480068029002981CBF00FAA6
:1056A00001F111604FF0000108BF1060196010682F
:1056B0004300C00F136005B0F0BD00BFB4108450AC
:1056C000E4108450DC1084500C4B890118603F308A
:1056D00020F03F004030586099600948D960196156
:1056E000596199611C3382B0196002680192019A74
:1056F000D207FAD5196002B0704700BF90108450ED
:10570000B410845038B5A0F12003B3F5426F0546BC
:105710002CD88F2826D800F1470300F16604DB0659
:105720004FEA541400D0013464013F34A409013419
:1057300011B1A1421AD30C464FF48050E300B0FBE4
:10574000F3F0202828BF202002B110600122084B6E
:1057500021461A60FFF710FF28462146FFF7B4FFE5
:10576000002038BD00F11F046409DDE70148F8E7B7
:105770001C1884502221F000464BF0B51D4689B01C
:105780001C680194019CE407FAD5434B00241344A0
:105790009B001A680B181E2B88BFC0F11E011F3218
:1057A0000B1852095343B3F5806F84BF4FF48061E7
:1057B000B1FBF2F1274688BF091ADFF8E4E000F1F7
:1057C000A150DFF8E0C000F58230A14233DC2B6845
:1057D0000493049BDB07FAD5304B1B6829680591BD
:1057E0000599CF07FAD52E4C2E49236000231E467B
:1057F000934203F1010040D11946002620F0010236
:1058000028488A423CD8296806910699CE07FAD5DD
:1058100025490968286807900798C007FAD52160CC
:1058200000210C461F488B422DD100201D499A4271
:105830002CD809B0F0BD2B680293029BDB07FAD588
:1058400003199B001B682E680396039EF607FAD582
:10585000CEF800300023934203F1010306D116462F
:1058600023F00103B34204D80134AEE7CCF8007052
:10587000F1E7CCF800700136F4E70E600346B7E7B5
:1058800006600131BDE704600131CCE708600133F7
:10589000CDE700BFB4108450240421147C10845040
:1058A000D4108450D81084507810845008B540B17A
:1058B000202801464FF0070228BF20210020FFF7D3
:1058C0005BFF0022014B1A6008BD00BF1C1884500A
:1058D000F0B5294D85B02C462E680096009EF6073F
:1058E000FAD500F1A15000F58230800005682068EB
:1058F00001900198C707FAD52048214F056002EBB7
:105900008306B24229D100275A1C1D4E22F0010203
:105910009A4227D823680293029BDE07FAD5194BD7
:105920000B449B001B681F335B099A4213D221680A
:1059300003910399C907FAD500211544056008466B
:105940009B1A0F4A8B4210D800205A1C0C4922F097
:1059500001029A420CD805B0F0BD52F804CBC7F84A
:1059600000C0CEE737600133D2E710600131E9E7CC
:1059700008600133EDE700BFB4108450D4108450A8
:10598000D8108450240421142DE9F041814BA0B09B
:105990001D68986820331E461A680192019AD7073D
:1059A000FAD57D4B7D4A1A6032680292029AD4077A
:1059B000FAD57B4A1A607B4A144611680391039911
:1059C000C907FAD5784A1168C1F3402137680497AE
:1059D000049FFF07FAD5754F1F6027680597059F3D
:1059E000FF07FAD51768002900F0CF80B90540F10C
:1059F000CC80316806910699CF07FAD56C491960B9
:105A0000216807910799C907FAD51168C1F34021A8
:105A100037680897089FFF07FAD5664F1F60276809
:105A20000997099FFF07FAD51268002900F0AF8097
:105A3000910540F1AC8032680A920A9AD207FAD5F1
:105A4000564A1A6032680B920B9AD707FAD55A4A0F
:105A50001A6031680C910C99CC07FAD55749196036
:105A600031680D910D99C907FAD55549196031680A
:105A70000E910E99CF07FAD55249196031680F91EE
:105A80000F99CC07FAD550491960504B1E4619683A
:105A900010911099C907FAD53F4C4D4B23603368DC
:105AA0001193119BDB07FAD54A4B2360336812939D
:105AB000129BDF07FAD5484B23603A4B984619688A
:105AC00013911399C907FAD5324F3860336814938C
:105AD000149BDB07FAD5226033681593159BD80712
