:10000000F84C0020392F0000357700000D2F00003C
:100010000D2F00000D2F00000D2F00000D2F0000F0
:10002000000000000000000000000000A92A0000FD
:100030000D2F0000000000000D2F00000D2F00000C
:10004000092B0000092B0000092B0000092B0000E0
:10005000092B0000092B0000092B0000092B0000D0
:10006000092B0000092B0000092B0000092B0000C0
:10007000092B0000092B0000092B0000092B0000B0
:10008000092B0000092B0000092B0000092B0000A0
:10009000092B0000092B0000092B0000092B000090
:1000A000092B0000092B0000092B0000092B000080
:1000B000092B0000092B0000092B0000092B000070
:1000C000092B0000092B0000092B0000092B000060
:1000D000092B0000092B0000092B0000092B000050
:1000E000092B0000092B0000092B0000092B000040
:1000F000092B0000092B0000092B0000092B000030
:10010000092B0000092B0000092B0000092B00001F
:10011000092B0000092B0000092B0000092B00000F
:10012000092B0000092B0000092B0000092B0000FF
:10013000092B0000092B0000092B0000092B0000EF
:04014000092B000087
:1001440053B94AB9002908BF00281CBF4FF0FF313A
:100154004FF0FF3000F00CB8ADF1080C6DE904CE9F
:1001640000F008F8DDF804E0DDE9022304B070478C
:10017400704700BF2DE9F04786468C460846089E26
:10018400154674461946002B40F0C1808542B2FAE8
:1001940082F245D94AB1C2F1200300FA02FC95402B
:1001A40094402EFA03F343EA0C0C4FEA154EA8B21E
:1001B400230CBCFBFEF80EFB18CC08FB00F943EA49
:1001C4000C43994528D9EB1808F1FF3704D2994517
:1001D40002D9A8F102072B44A3EB0903A4B2B3FB91
:1001E400FEFC0EFB1C330CFB00F044EA0344A0426B
:1001F40014D92C190CF1FF3304D2A04202D9ACF16A
:1002040002032C44241A43EA07401EB1D4400023BD
:1002140034607360BDE8F0874746DDE76346F1E785
:1002240092BB431B01214FEA154EAFB2200CB3FB26
:10023400FEFC0EFB1C330CFB07F840EA0343984515
:1002440061D9EB180CF1FF3004D2984502D9ACF116
:1002540002002B44A3EB0803A4B2B3FBFEFC0EFB89
:100264001C330CFB07F744EA0344A7424DD92C196D
:100274000CF1FF3304D2A74202D9ACF102032C449F
:10028400E41B43EA0040C0E7C2F1200395409440D8
:1002940020FA03F12EFA03F34FEA154E9040AFB261
:1002A4000343B1FBFEFC0EFB1C10190C0CFB07F8FE
:1002B40041EA0041884522D969180CF1FF3004D283
:1002C400884502D9ACF102002944A1EB08019BB294
:1002D400B1FBFEFC0EFB1C110CFB07F743EA0143C8
:1002E4009F420ED9EB180CF1FF3104D29F4202D980
:1002F400ACF102012B44DB1B41EA004193E7604669
:10030400E3E76146F7E76046A4E76346B8E783425C
:1003140006D916B9002108467CE7C6E900E0F9E7EA
:10032400B3FA83F78FB9834201D3724508D8BEEB81
:10033400020460EB030301209C461EB9002169E717
:100344003846FAE7C6E9004CF8E7C7F1200CBB4091
:100354000EFA07F522FA0CF42EFA0CF1BA401C43FB
:1003640020FA0CF3B8404FEA144901431FFA84FE03
:10037400B3FBF9F809FB18300B0C08FB0EFA43EA3F
:1003840000439A4540D9E31808F1FF3004D29A4556
:1003940002D9A8F102002344A3EB0A0389B2B3FBF8
:1003A400F9F809FB183308FB0EFE41EA03418E45B8
:1003B4002CD9611808F1FF3304D28E4502D9A8F173
:1003C4000203214443EA0040A1EB0E01A0FB029882
:1003D4004145CE46434602D306D14D4504D20138A9
:1003E400B9EB020E68EB0403002EA7D0B5EB0E02A6
:1003F40061EB030101FA0CFC22FA07F3F9404CEA21
:100404000303C6E9003199E74046C5E74346D9E707
:1004140008B50B4807F048FE28B9BDE80840452157
:10042400084806F049BE4FF40031074806F0BCF90D
:10043400BDE8084000220221014806F0A5B900BF2A
:1004440098810000F8870000708400007FB53C4B61
:100454003C4A4921C3F800263B48C3F80426C3F8A4
:100464000826C3F80C26C3F81026C3F81426C3F8CC
:100474001826C3F81C2606F01FFEFFF7C9FF06F076
:10048400B3F9324C204607F00FFE28B34FF4803105
:100494002F4806F089F92569A36820465B6801A9FD
:1004A400984720B92A68019B53405A0614D54FF047
:1004B4005023D3F800340BB1DB070DD50122022100
:1004C400224806F061F94921224806F0F5FD01F0C1
:1004D4004DFD214802F0B6F801A800F073FC1F4B53
:1004E4001B68834204D045211D4806F0E5FDFEE764
:1004F400039A49211B4806F0DFFD49211A4806F0FA
:10050400DBFD69469DF8080000F032F8009B039C6F
:100514001C44019B1D8900F03FFF66194FF0200227
:10052400EFF3118382F31288BFF36F8F635983F360
:1005340008887368984745210C4806F0BDFDFEE71E
:10054400008001503546526E2F88000098810000CB
:10055400688400004888000078840000C0010020FE
:100564006C8800008F880000BE880000E3880000CB
:10057400024608B538B105480023452106F09CFD24
:100584006FF0150008BD0860FCE700BF0689000095
:100594001FB50C46014601AA044807F049FA18B9E8
:1005A400019B2360029B636004B010BDC8810000FE
:1005B4002DE9F04F1E46834BDBB01446DDE9665748
:1005C400D3F80080DDF8A0B100F0B0FE01227E4B2C
:1005D4003AA8C3F8002505F011F835B1002F04DD61
:1005E4003A4629463AA806F04EFC4FF000096389C2
:1005F40027891F44E3681F444F4525D80DA93AA80D
:1006040005F06EF80022704BC3F80025C3F80025EE
:10061400BBF1000F04D0202258460DA907F0C6F8FC
:1006240000233246009321464FF6FF7307A806F0D5
:10063400DCF80546D0B930460C9C00F083F98442BE
:100644001FD94FF0FF3511E0659BA7EB090A9A45C6
:1006540028BF9A46494653463046649A06F03AFD06
:10066400054638B10022584BC3F8002528465BB034
:10067400BDE8F08F524664993AA806F004FCD144D0
:10068400BAE74FF0FF37DFF84CB1DFF83C910DF1DA
:10069400160305AA06A907A806F0F5F8041EC0F279
:1006A4008F8040F08280BDF816A0BAF1100F18D1E7
:1006B400BDF81450202DC4D12B46304606993AAAD1
:1006C40006F008FD044600287AD12A463AA90DA866
:1006D40006F051F905463D4B1B688342C6D10125FE
:1006E400D5E7BAF1010F3ED1BDF81430202BA8D8BC
:1006F400304606993AAA06F0EDFC044600285FD17C
:100704009DF81430202B029309D8DBF80030304FC9
:100714000393039B9C4205DB0023C9F800354FF08B
:10072400FF341CE000F002FEC9F800A51DA804F087
:1007340065FF7A681DA8126857F8081B06F0A3FB2A
:1007440015A91DA804F0CCFF0022C9F80025029ABF
:100754003AA915A807F003F818B9C9F800052746FF
:1007640095E70134D5E7BAF1220F90D17B1C8ED0E6
:10077400DBF80030BB4215DDBDF81430802B3FF6AA
:1007840060AF304606993AAA06F0A4FC0446B8B90C
:10079400FFB22021BDF8143000973AAA0DA800F04A
:1007A4001BF880464FF0FF3771E745B1074B1B68D4
:1007B40043451CBF034BD3F80080454656E701244C
:1007C400254653E70000002000008450C0010020AB
:1007D40084840000808400002DE9F04196B017461F
:1007E4001D469DF87020354B0E4653F8321003EB2E
:1007F400C2035B6801918046186802AA0144302351
:1008040001A806F0CEFA20B14FF0FF3016B0BDE8D3
:10081400F081DDE901431C44214606AB03AA01A88B
:1008240006F0E7FA0028EFD1049A072AECD124490C
:10083400059806F094FF0028E6D1079A082AE3D128
:100844002049089806F08BFF0028DDD1214602AA32
:1008540001A806F0BAFA0028D6D1DDE90132134422
:100864009C42D1D1412ACFD13D443023294603AA09
:1008740002A8029706F095FA0028C5D1DDE90232F4
:1008840013449D42C0D32A4602A906A806F047F89D
:100894000028B9D12A4602A90EA806F040F800287B
:1008A400B2D1202EB0D101990B78042BACD13346B0
:1008B400404606AA013100F051FDA7E784840000F8
:1008C400358900002C8900002DE9F041012386B010
:1008D4000D466F460026DFF86880ADF8003017F843
:1008E400010B01A901F034FA0446A0B901981023C0
:1008F400816802AA103906F0EDFB0446019806F05F
:10090400E8FB44B91022414602A806F028FF40B192
:100914002EB14FF0FF34204606B0BDE8F081012629
:10092400DDE7019807F04EFA0423A0F108012A46F6
:10093400019806F0CFFB0446019806F0CAFBEAE7EB
:10094400E887000007B506F027F86946FFF720FEA0
:1009540038B10548452106F0AFFB002003B05DF82F
:1009640004FB0098FAE700BF3D8900002DE9F0413F
:10097400354B88B0064600200C461D6805F029FF5B
:1009840006A9C0B201F0E4F9002857D1214605F0C8
:1009940020FF2C2507A9C0B205FB046501F0D8F996
:1009A400002833D02C27674306EB0708D8F810102B
:1009B400069B11F0100138D14FF480720192234A42
:1009C40008460092CDE903112A460291FFF7F0FD93
:1009D40005461F4BF25906989A420CD1D8F80C20C0
:1009E400B8F808309B1806D28268934203D2194B98
:1009F4001B68AB421FD02CB38268002106F094FB25
:100A0400154A4521154806F057FB13E0079806F0F0
:100A1400A8FB0746079806F05CFB6B1EEA1C13F85C
:100A2400011FB942BED19342F9D11CB13046069997
:100A340006F096F80125069806F04BFB284608B008
:100A4400BDE8F081064ADCE7000000204E130020D8
:100A54003DB8F396C0010020808900008A89000017
:100A64007889000073B50D46002104462846CDE977
:100A7400001106F034F830B3164E2368B34203D1A4
:100A8400204601AA05F0C0FFE36AB34204D16A46D6
:100A94000121204605F0B8FFDDE90032934288BF0A
:100AA4000193019BAB60019A2946204600F034FB78
:100AB400094B1A68002A03DD5721084806F0FCFA9E
:100AC400002002B070BD05F10801FFF7FDFEAB6820
:100AD4000193E8E73DB8F396240E0020B2890000A4
:100AE4002DE9F84F884691469A460026DFF870B003
:100AF400194C1A4D0B9B9E4201D300200FE00B9B17
:100B040040469F1BB7F5806F28BF4FF48067144A97
:100B14003B4606EB0A0106F0DDFA10B10120BDE800
:100B2400F88F0A993B465A464846711806F0E7FA88
:100B34000028F3D1C4F800563E44C4F80456C4F85F
:100B44000856C4F80C56C4F81056C4F81456C4F821
:100B54001856C4F81C56CDE7008001503546526E35
:100B6400C40900202DE9FF410E4600218E4B0446A6
:100B740043628E4B0365084605F02BFE04F1200109
:100B8400C0B201F0E5F80121002005F022FE04F1D5
:100B94004C01C0B201F0DCF80546204605F075FFB3
:100BA400074668B900222046114605F017FF07469C
:100BB40000B3002257217E4806F07EFA01238FE01D
:100BC400802257217B4806F077FA01239F4284F85C
:100BD4005830E7D194F85830042B8DF8073000F2E0
:100BE4008280012B00F2858000F09C80FF2384F832
:100BF400583097E0204600F0A7F90028DED0684678
:100C040005F064FF6946204605F0FFFF18B13A4637
:100C140057216948D0E7684605F061FF80F001017B
:100C24006A462046C9B205F0D9FE02460028C0D162
:100C3400684605F054FF074660BB69462046FFF747
:100C440011FF9DF8073084F85830033B012B06D878
:100C5400384606F029F810B1FF2384F858309DF87F
:100C64000730023B022B0BD8002006F00BF838B1FA
:100C7400FF2384F858304521504806F01DFAFEE75A
:100C840094F85830FF2BF6D06A460021204605F030
:100C9400A5FE93E79DF80780B8F1010F15D1104622
:100CA40003F0E2FA831E022B07460BD84146204686
:100CB400FFF75CFE424B1B68984203D0012814BF27
:100CC4000527012784F8587084E701212046FFF79F
:100CD4004DFE3B4B1B68984214BF05239DF807301B
:100CE40084F8583076E7052B80D1002005F0DCFF2E
:100CF40013E069462046FFF7B5FE94F858300546E0
:100D0400DA1E012A0CD8002005F0CEFF0546002883
:100D14007FF46CAF002005F0B5FF054610B165E720
:100D2400022BF7D094F85830FF2B04D145212348E7
:100D340006F0C2F9FEE7012B10D06A4600212046D6
:100D440005F04CFE054648B1E06C06F0C2F9206A95
:100D540006F0BFF9284604B0BDE8F0810021204622
:100D6400FFF704FE0746DFF85880D8F800309842B1
:100D74000FD110220021684606F023FD206A05F0F9
:100D840031FD3071236A5B683460D8F80050B36079
:100D9400DAE7E06C06F09DF9206A06F09AF9002D76
:100DA40008BF3D46D6E700BFC4050020C4010020AB
:100DB400238A0000E18900004F8A0000798A00003C
:100DC400C001002038B5064D0446602200212846A3
:100DD40006F0F7FC21462846FFF7C4FE38BD00BFE5
:100DE400C40D002073B516461D4643B15B79012B33
:100DF40007D121B9204B2A681B689A4217D80024CE
:100E040018E0022BFBD12B68012B07D91A4A126870
:100E14009342F4D8B1FA81F14909F0E7EFD131B145
:100E24000129ECD12979023918BF0121E7E7002112
:100E3400436A5C68002005F0CCFC01A9C0B200F054
:100E440087FF30B10124019806F043F9204602B02F
:100E540070BD214620233246019806F03BF9044632
:100E64000028EFD1002DEED03468044BE41A18BFEB
:100E74004FF0FF34E7E700BF040000203DB8F396CD
:100E84002DE9F04F07460C4685B001460020164672
:100E940005F078FD051E50DB3846E46D05F07CFD59
:100EA4005FFA84F94FF0000A4FF0010B4FF0FF3462
:100EB4006B1E09FB03089DB9BAF1010F03DD45213F
:100EC400204806F0F9F8631C06D07F2C2ADC40F297
:100ED400011301343460B380284605B0BDE8F08FB7
:100EE4006B1E00934146012338460DF10F0206F0B4
:100EF400F1F8031E019322DB012238460DF10F01A4
:100F040006F074FF019B40B15B4501D00AF1010A70
:100F14009B46009DA8EB0908CDE7B4F1FF3F08BF4D
:100F24002C46F5E70223803C7371631004F001043E
:100F34000133013433603471CEE70725CCE7012552
:100F4400CAE700BF858A000038B5816A426D9142C4
:100F540008D0531C8B4205D05721134806F0ACF837
:100F6400002038BD80291CD957211048F6E7446A6F
:100F7400056D04EBC30405EBC30564686D68AC42FE
:100F840002D057210A48E9E701339A42EFD191424E
:100F940005D9436A03EBC2035B68A342F1D1012084
:100FA400DFE700231C46F0E7A88A0000E08A00007F
:100FB4000F8B000000B589B0012004A906F088FF5A
:100FC4009DF81020012A41D0254B2649032A08BF49
:100FD4000B469DF81320492102929DF812202248C5
:100FE40001929DF811200092204A06F065F8032032
:100FF40006A906F06DFF9DF81820012A28D0184B89
:101004001849032A08BF0B469DF81B204921029268
:101014009DF81A20144801929DF819200092144A50
:1010240006F04AF89DF81030012B13D19DF81230C8
:10103400032B0FD19DF81830012B0BD00D484921FB
:1010440006F03AF8022009B05DF804FB0A4BC0E749
:10105400094BD9E70948492106F02EF80020F2E7A8
:101064003B8B0000448B0000588B00004A8B00002F
:10107400998B0000A98B00003F8B0000C88B0000F7
:1010840070B54B6814461E4A03F0FF23934206468C
:101094000D4686B02FD10B68012B2CD1204604A914
:1010A40003F08CF89DF81020012A26D0154B164920
:1010B400032A08BF0B469DF81320492102929DF88C
:1010C4001220124801929DF811200092104A05F056
:1010D400F3FF9DF81030032B0DD12146304605F067
:1010E4003FFD204606F0E7FE2046A96805F067FCB0
:1010F400204603F043F806B070BD064BDBE700BFA3
:10110400000100043B8B0000448B0000588B00005E
:10111400998B00003F8B00002DE9F04F05460C46EB
:101124007D48492189B0174605F0C6FF6B6A012244
:101134005E6800233344BB42114602F10102F9D335
:10114400764F2046396005F0CAFC08B3E86D05F017
:1011540014FCAB6A03F1FF3800233344834202D208
:1011640008F1FF38F9E73B68434511D357216C4830
:1011740005F0A2FF3A6808FB06F3572102FB06625A
:10118400684805F099FF0123E37109B0BDE8F08FC9
:1011940006A9012000F0DCFD07A9032000F0D8FD1A
:1011A40021462846079AFFF76BFF6379012B0BD181
:1011B400D7F80080DFF870B13B68DDF81890B8F11B
:1011C400000F11D10123236002234FF00108637142
:1011D4003B68DDF818A0984549D9504605F079FFD9
:1011E400079805F076FFD0E7226801339B1A9845EB
:1011F4003AD86B6A012A196853F8380003EBC8031C
:1012040053F8083CA0EB010AA3EB0103049311D1AA
:10121400079B0393E368022B08D04946284605F050
:101224009FFC22464946284605F0D0FC28460399EF
:1012340005F096FC32465146484605F08FFC049B67
:101244004A4649462846CDE900A6FFF749FC21460F
:10125400284605F051FC23680133236020B1DBF8F4
:1012640000300133CBF8003008F1FF38A4E72368DD
:1012740098454ED36A6A4FEAC80352F83810083BBF
:1012840004911168DDF81CB00391D1582A6DD0582F
:101294001368A0EB03092379012B38D1039B324651
:1012A400C91A5046059105F059FC05994B4652461A
:1012B4000091284659460196FFF712FC214628461C
:1012C40005F01AFC0223237118B1174A136801337D
:1012D400136032464946584605F040FCDDE90323D5
:1012E40051469B1A28465A46CDE90096FFF7F8FB6B
:1012F4002146284605F000FC2368013323600123BE
:10130400237130B1084A13680133136001E0022BE2
:10131400DFD008F101085BE7DF8B00000400002048
:10132400088C0000378C0000240E002070B5094D95
:101334002B780BB1002070BD0126074CC4F8006562
:1013440004F0FEF918B92E70C4F80005F2E74FF066
:10135400FF30F0E74E140020000084502DE9F041E6
:10136400ACB01F4606460C461546FFF7DFFF0123C7
:10137400DFF820802A46C8F8003521463346009716
:1013840003A806F0ABFE0023C8F800352CB0BDE876
:10139400F08100BF0000845038B501224FF0FF34C3
:1013A40000251A4B29465A60C3F84843C3F808433A
:1013B40003F580535A60C3F84843C3F80843A3F5C0
:1013C4005043C3F800558022C3F80843104806F080
:1013D400F8F9802229460F4806F0F3F90E4B8022D3
:1013E400C3F800552946C3F808430C4806F0E9F948
:1013F400802229460A4806F0E4F90A4BC3F8084556
:101404004FF05023C3F8084338BD00BF00400150DB
:1014140080800050808100500090005080900050E7
:1014240080910050007001502DE9F043079D15B9DB
:101434001560002012E00324B5FBF4F404EB440728
:10144400BD4218BF0134B4F1804F09D2A400013465
:101454008C4200D838B96FF00B001460BDE8F083FB
:101464004FF0FF34F7E704460021DFF8B4E0B94257
:1014740003F1030C04F104062BD3A942274623D21B
:1014840001F1010CAC451F7828BF002324494FEA21
:10149400A70E38BF5B7811F80EE0AC4584F800E085
:1014A40001EB131E2EBF3D239B0003F03C034FEAC8
:1014B400071738BFCB5C07F030071EF80770A3701E
:1014C4003D2367703746E3700023381A10603B7081
:1014D400AFE71CF8034C1CF8023C4FEAA4091EF8C1
:1014E400099024011CF8018C04F0300406F8049CD3
:1014F4000EEB131919F804409B0006F8034C03F093
:101504003C030EEB9814E35C08F03F0806F8023C39
:101514001EF80830344606F8013C03316346A6E75A
:10152400438D00002DE9F04300273C463D46DDF89D
:101534001CE0DFF8288175451FD3E4BB002014604C
:10154400BDE8F0830136764533D013F806C0BCF10C
:10155400200FF7D0AEEB0609B9F1010FA6EB050594
:101564000DD0BCF10D0F0AD103EB060999F80190D7
:10157400B9F10A0F6ED1751CDDE72E46E3E7BCF125
:101584000A0FF8D02DB9BCF13D0F05D10137022F58
:101594000DD96FF01500D3E71CF0800FF9D118F8BE
:1015A4000C507F2DF5D03F2D01D8002FF1D10134FF
:1015B400E1E73546C1E74FF0060C04F00706E408FE
:1015C4000CFB06F60CFB04F40736E41B04EBD60410
:1015D40070B18C420CD80027014603263C46DFF844
:1015E4007CE0DFF87C801D449D4205D10C1AA5E700
:1015F4006FF00B001460A3E713F8019BA9F10A0C28
:101604005FFA8CFCBCF1160F04D848FA0CFC1CF0F1
:10161400010FE9D01EF809C00134BCF1400F08BF26
:10162400013E0CF03F0C042C4CEA8717DCD17EB150
:101634003C0C012E0C7002D101310024D4E7022E9F
:101644004FEA17244C7016BF8F7002310331F4E750
:101654003446C9E7002DA2D09BE700BFC38C00002D
:10166400F6FFBFFF014B1B68184700BF08000020AE
:1016740007B50B46002102460091034800F014F917
:1016840003B05DF804FB00BF691600002DE9F047C4
:10169400058B04462807904611D4022905F0070556
:1016A40040F0CD80204605F02CFC78B10138218B28
:1016B400042811D8DFE800F0C3106D8595000129D6
:1016C4000CBF45F0100545F02005258388F31188EB
:1016D400BFF36F8FBDE8F08701F0070AAA4500F059
:1016E400A6800027B9463E46A368002B00F0BD80C3
:1016F40041F00801218388F31188BFF36F8FA1683B
:10170400002900F0BB800D68002900F0B780334643
:1017140052462046D1F80480C047002D76D02B686D
:1017240029461D46F0E701F007035A1F012A1BD87A
:10173400002221F00701062B276889B2C4E90022A0
:1017440009D13B4603E0628B013262831B68002BA4
:10175400F9D141F002012046218305F0D2FB002893
:101764007BD041F0200177E0042B0AD121F007015E
:1017740089B22046218305F0C4FB10B141F0200159
:101784002183218B01F0070AAA4550D00027B946CE
:10179400AAE7236921F0070141F00601062DD3F8D9
:1017A400009021832DD1B9F1000F40D041F0080100
:1017B400218388F31188BFF36F8F20463949C847C6
:1017C40029E021F00701236941F0040189B2042DC5
:1017D400D3F804902183E6D000274FF0040A3E4654
:1017E40082E721F00701236941F0050189B2052D43
:1017F400D3F808902183D6D000274FF0050A3E463F
:1018040072E700274FF0060A3E466DE72B4687E74E
:10181400B9F1000FD1D14FF02003EFF3118883F316
:101824001288BFF36F8F238B23F008032383258B48
:10183400EA062ED525F01003238305F00705666913
:10184400218B002EBFF66FAF00232768C4E9003355
:1018540021F0070141F001012183218B4FF00009A0
:1018640001F0070AAA457FF43FAF002F9BD041F057
:101874000801218388F31188BFF36F8F002FC7D02D
:101884003D68394633465246204605F066FB2F46EE
:10189400F4E7AB067FF51AAF25F02003238305F0A8
:1018A4000705FFE68B6F00002DE9F04F82464FF0ED
:1018B40000098DB01D46531E01910393039B587874
:1018C4005C1C252819D100204FF0FF381E464446E1
:1018D40003460236029031780396392955D81F29D8
:1018E40014D8002900F0EE8101992520D0470199F0
:1018F4003078D04709F10209E0E7002800F0E281DE
:101904000199D04709F101090394D7E7A1F1200215
:10191400192AE9D801A757F822F000BF8919000055
:10192400ED180000ED18000089190000ED18000002
:10193400091A0000ED180000ED180000ED18000071
:10194400ED180000551A000089190000ED18000078
:10195400691A0000151A0000ED180000231A00008F
:10196400431A0000431A0000431A0000431A0000FF
:10197400431A0000431A0000431A0000431A0000EF
:10198400431A000008460136A5E7582900F0EB8009
:10199400A1F16302D7B2172FA6D8172AA4D801A79A
:1019A40057F822F0111C00008F1A0000ED180000F7
:1019B400ED180000ED1800006F1A00008F1A0000E7
:1019C400ED180000ED1800006F1A0000ED1800007B
:1019D400ED180000ED180000451B0000ED18000094
:1019E400ED180000E51B0000ED1800008F1A000040
:1019F400ED180000ED180000451B0000ED18000074
:101A04006F1A000025200199D04709F1010955E713
:101A1400029A4FF0000802F0FE020292B3E7002C93
:101A24000DDAB8F1000F0DDA029A002A00F04281B3
:101A34000A2224EAE47402FB0414303CA3E7B8F15C
:101A4400000FF5DB0A2202FB0812A2F130089AE724
:101A5400B8F1000F55F8042B80F22E81002A80F291
:101A64002D815442022202928DE7682903D1682B0A
:101A740006D1482387E76C2902D16C2B00F0208122
:101A8400002B7FF431AF0B467DE77A2B06D1752905
:101A940055F8046B14D14FF0000B0CE06C2BF6D00E
:101AA4004C2BF4D1073525F00703752903F10805FC
:101AB400D3E9006B06D120283BD1844F013C09E0D7
:101AC4004FEAE67BBBF1000FF5DA7642804F6BEB11
:101AD4004B0B013C0DF12D03059300230493304679
:101AE40059460A220023FEF72BFB049B8E46591EFF
:101AF40004910599B446303201F8012D5A46BCF1DF
:101B04000A0F72F100020646F3460591E7D2C3F1CB
:101B1400010B30330DEB0306B8F1000FA6F10406F8
:101B24006DDA029BD9077CD4A8EB0B03A4EB0B045E
:101B340013E02B280ABF674F674F04F1FF34C9E74E
:101B440070290FD155F8042B0023FAB96FF0040360
:101B54004FF0050B614E053C5F4F029A92076FD41C
:101B6400A04665E078216C2B03D1002355F8042BA3
:101B740008E04C2BF9D1073525F007031D465B68B7
:101B840055F8082B232825D1880621D5544F023C2B
:101B9400002601F06001A1F1390B0DF12D0E02F0C8
:101BA4000F01092988BF594430310EF8011D102A4C
:101BB4004FEA121141EA03714FEA131073F1000363
:101BC40006F1FF3C08D2C6F1010B06F13003A1E790
:101BD400444FDCE7404FDBE766460A460346DEE750
:101BE40055F8046B304605F0B3FDB8F1000F834699
:101BF40002DB4045A8BFC3464FF00008364FA8EBB0
:101C04000B03002B92DDA4EB0804A6E755F8043B74
:101C14004FF0010B8DF81830013C4FF0FF3306AE46
:101C24009AE7A046EBE7029320200199D047029B54
:101C3400B8F10108F7D524EAE472013C9144A41AEE
:101C4400B84606E0049302920199D047029A049B95
:101C54009046424612F8010B0028F3D11A46013A85
:101C640015D5002BACBFC7EB03077F425B46013B96
:101C740015D5BBF1000FA8BF5F4426464F44013E73
:101C840014D5002CA8BF3F1907EB080916E60493E6
:101C9400029230200199D047049B029ADFE7029315
:101CA400019916F8010BD047029BE0E70199202027
:101CB400D047E4E70122D6E6904664E6144662E69D
:101CC4004C2360E648460DB0BDE8F08F5F920000FB
:101CD400948D0000968D00002E8800009E8D0000DB
:101CE400988D00009B8D000008B54FF02002EFF3A3
:101CF400118382F31288BFF36F8F01F04BF903480D
:101D040005F0F2F800F024FEFCE700BFA48D00000B
:101D14004FF02002EFF3118382F31288BFF36F8F29
:101D24000121044AC2F8401583F31188BFF36F8F71
:101D3400002070470090035020B1034B800143F012
:101D440001031847704700BF6084000002F002BB23
:101D540070B5114B0D461C68DCB1104B196800239B
:101D64008B4202DB6FF0010070BD224612F8106B4B
:101D7400864202D014460133F2E7E06810B96FF0EE
:101D84001200F1E706F090F90028F8D000202C604A
:101D9400EAE76FF00C00E7E70C00002090840000F5
:101DA40070B588B005460C46C0B269461646FFF7C2
:101DB400CFFF00281BDB0098C8B143682268029358
:101DC40083680195CDE903360023CDE90623059305
:101DD400C56805F07EF96DB12846084901AA05F0E9
:101DE4002BFE079808B9059B236008B070BD6FF0FF
:101DF4001500FAE76FF01200F7E700BF75710000F5
:101E0400014803F043B900BF04850000F7B5254E2F
:101E1400306883685B6C03B19847306883685B6B98
:101E2400002B32D1204C214D306883689B69002BF4
:101E34002ED001220DF107019847012828D12368EB
:101E440043B92B6833B369681A688B422A6000D19E
:101E54006A602360164A9DF807001188B1F5007F77
:101E640004D223684F1C0B44178018720A28DBD154
:101E7400002023681188186059600E494D6875B9AF
:101E8400C1E9003310802060CDE798470028C9D10C
:101E940003B0F0BD4521084805F00EF9F8E72B60C2
:101EA4004B60EFE750120020280E0020380E00206F
:101EB4004C130020300E0020D18D000010B5044BCF
:101EC400044618688368E1B25B689847204610BDF1
:101ED400501200202DE9F0410546904608464FF087
:101EE4002003EFF3118783F31288BFF36F8F1C492C
:101EF4000B684BB11B4C62689A4205D000221A60F1
:101F0400626872B9C4E90033174A136863B987F386
:101F14001188BFF36F8F18460B60C8F80030BDE816
:101F2400F08113606360EFE756681C68B342146085
:101F340008BF546087F31188BFF36F8F5C680B6030
:101F4400A042D8BF00F1FF3403F10801224628461D
:101F540005F02CFC0023601C2B550123DDE700BF9A
:101F64002C0E0020380E0020300E002037B500253E
:101F74001B4B1C4AC3E900551B4B1C4C1C4803F566
:101F840002711360C3F8085219605160206006F0B2
:101F94008BF810B32068836823B19B6C13B12A4675
:101FA40014499847206883685B6B0BB1984748B124
:101FB400206883689B69002BFAD001220DF1070188
:101FC4009847F4E700220C4B20681A8083689B6AC8
:101FD40003B19847002003B030BD4FF0FF30FAE75B
:101FE400300E0020380E0020400E00205012002039
:101FF400B0810000111E00004C13002040F60613AF
:1020040000202DE9F043D9B0ADF80830DFF8FC909A
:10201400394BD9F800101B68384E0822A3EB060888
:102024000B78487001330B7098FA98F34B808B88C7
:1020340002275BBA8B8004F041FF42463146ADF87B
:102044000C0004F03BFF2E4D40BA2B681FFA88F4B5
:10205400ADF80C00022102A85B68984704F10A035A
:102064005BBA0DF10E01022205A8ADF80E3005F0A1
:102074009DFBD9F8001008220DF11600ADF80E7082
:1020840005F094FBBDF80E0005AB083080B2424663
:102094003146ADF80E00184405F088FBBDF80E304B
:1020A4003A46E01880B205ABADF80E0003A9184417
:1020B40005F07CFBBDF80E3004AA3B449BB2ADF89E
:1020C4000E300093BD2105AB28A8FFF7ADF90499A4
:1020D4002B68ADF80E1028A85B6889B298472B6866
:1020E40001215B68074898474921074804F0E4FF49
:1020F40059B0BDE8F08300BF681200204F140020DF
:102104009C1200202D8800000F8E000098120020E1
:10211400F0B50646B3680C469A42104685B01DD207
:1021240091421DDC02A9FEF733FAB8B9DDE9025386
:102134001D446B1ECDE90030224649210B48E317AC
:102144002F1B04F0B9FF3A462146304604F0ECFF59
:10215400024640B14521064804F0AEFF6FF0150475
:10216400204605B0F0BD2C46FAE700BF178E0000EC
:10217400368E0000F0B50C68164F85B002380D4657
:10218400C4F580610090144B381903AA0131FFF79C
:10219400C9F90446D0B92B68039A1344022B2B6067
:1021A40011D93E88023B76BAB6B29E420BD1324672
:1021B400B91C04F083FE30B9022E04D92B689A1E90
:1021C4002A60FC540124204605B0F0BD4FF0FF34D2
:1021D400F9E700BFD0140020D318002007B5CDE9DB
:1021E40000016946024805F0E9F903B05DF804FB13
:1021F4006812002038B505460A4C0A21204605F02D
:10220400EFF902210848FFF7E9FF2946204605F0C7
:10221400C5F920460A2105F001FABDE83840FFF768
:10222400EDBE00BF68120020588E0000002307B5E1
:10223400054A0093022102F18003044805F0F0F9F5
:1022440003B05DF804FB00BF4F14002068120020A7
:102254002DE9F04707290446A8B040F2948003789A
:1022640013F0FD0640F08F804388A1F108055BBAA6
:102274009BB2AB42C0F08780A64B186083885BBAE0
:102284008380FFF7D3FFA088012840F0C181E7795C
:102294003FB1012F7CD0082028B0BDE8F047FFF7FC
:1022A400A9BF01469C4805F09BF906219B48FFF70E
:1022B40095FF0521984805F084F93C46DFF894829F
:1022C400974FDFF894922146002004F082FA07A980
:1022D400C0B2FFF73DFD0546002849D12023014641
:1022E4000DEB0302079804F0F5FE089B3E68434596
:1022F4000DD14023019318AB009329462846CDE91C
:102304000355079B029508AAFEF752F9064607985B
:1023140004F0DFFED9F80030B34229D114217E48FD
:1023240005F05EF904217F48FFF758FF21467A48FB
:1023340005F038F907217C48FFF750FF0E9B402138
:102344000293BDF83630794A01939DF8353018A8C8
:1023540000939DF8343000F0B3FF18A805F0F8F9A5
:10236400014618A8FFF73AFF14216B4805F056F907
:1023740064B10521684805F042F90121664805F079
:102384004DF9FFF73BFE28B0BDE8F08701249AE73A
:10239400294607AB08AA04F10800069600F030FAB3
:1023A40028B3032422464921614804F085FE0A210A
:1023B400594805F015F902215E48FFF70FFF214641
:1023C400554805F0EBF844B903215B48FFF706FFD5
:1023D4005A4B5148196805F0E5F80A214E4805F0B2
:1023E4001DF9FFF70BFE069804F073FECBE7079B7D
:1023F4009D42D6D14FF0FF390146C84605460746EF
:10240400179C08AAA14222D1B8F1FF3FC9D0002FDE
:10241400C7D0002104F0DDF906A9C0B2FFF798FC8B
:1024240004460028BDD1454EB8F1000F66D1069888
:102434003460D0F8088004F0AFFA4149FEF7A8F8F8
:10244400C8B145213F4804F037FE0124AAE7137AB6
:10245400032B04D8DFE803F00206090C10680131ED
:102464000C32CFE7D2E90075F9E7D2F80090F6E72D
:10247400D2F80080F3E7C84593D3334B1C60334B49
:10248400C3F800903268DFF8C080013AD8F8001031
:1024940006982A44FFF73CFE0028C8F8000080DBB9
:1024A400069804F057FEB5FBF0F303FB10503268B6
:1024B400C1B2DFF89890A5EB010808EB0203D9F844
:1024C40000501944A94238BF00204921C5B2204810
:1024D40004F0F2FD069804F03DFE012805D90698A3
:1024E40004F038FE013807426FD143463A4631685A
:1024F400069804F004FE002855D052E7336843459B
:102504007FF450AF114A05EB080312689342B9D91E
:1025140047E700BF98120020681200205B8E00007D
:1025240000000020628E0000678E00006F8E0000A5
:102534009E8E0000588E0000AC8E000064120020B5
:102544005C1200203D890000581200205412002023
:102554007E8E00003DB8F396C0010020C245069867
:1025640088BF5FFA88FA04F0FCFD4022014618A8EF
:1025740005F027F95246394618A805F017F95346CD
:102584003168069818AA04F0BAFD00287FF409AF50
:102594003368574453443360A8EB0A08069804F0A0
:1025A400D9FD8045DAD29DB93368D9F800202B448F
:1025B4004344934233607FF4F5AE204B06981A6887
:1025C4001146FFF7A5FDC40FECE64FF0400AE5E71E
:1025D400069804F0C6FD0822014618A805F0F1F893
:1025E4002A4607EB080118A805F0E0F8DDF818A062
:1025F4003168504608EB010704F0ACFD3946034648
:1026040018AA504604F07BFD00287FF4CAAECBE73D
:1026140000287FF440AEE379012B3FF43DAE052B57
:1026240003D0002B7FF437AEADE6FFF7E3FD04489B
:1026340005F04FFD0120FFF757FB00BF5C1200209F
:1026440090D0030001232DE9F34100240646DFF86E
:10265400B480274D88F80030264B274F009418602B
:1026640098F8003013B902B0BDE8F08100F070F9B9
:10267400224BC4F58061C3F80056C3F80456C3F86E
:102684000856C3F80C56C3F81056C3F81456C3F8CA
:102694001856C3F81C56336801AA013138199847F3
:1026A4000028019B01DC002BDAD004442BB940F252
:1026B40001439C42D4D10024D2E73B78062B09D1B4
:1026C4007B78092B0BD1002300936946A01EFFF7EA
:1026D40051FD04E0042B02D17B78142BF5D00128A2
:1026E400E9D1009906480239FFF7B2FDE3E700BFDC
:1026F4003546526E9C120020D118002000800150F3
:10270400D2140020CF14002073B504460D4604F003
:10271400DAFF002868D0354B69460093052320462C
:10272400019304F0A6FE60B12946204604F082FE1F
:1027340038B100232B72204604F0CCFF012002B0F4
:1027440070BD204604F0C2FF78B1294B694600935E
:1027540004232046019304F08CFE30B12946204620
:1027640004F084FE08B10123E4E7204604F0AEFF40
:1027740078B1204B6946009303232046019304F06B
:1027840078FE30B12946204604F054FE08B10223F5
:10279400D0E7204604F09AFF78B10326164B694629
:1027A40020460093019604F064FE30B12946204689
:1027B40004F040FE08B12E72BDE7204604F086FF07
:1027C40078B10E4B6946009303232046019304F02D
:1027D40050FE30B12946204604F048FE08B10423D7
:1027E400A8E7204604F076FF0020A8E7A38B0000AA
:1027F400B08E0000B58E0000AC8E0000B98E0000D3
:102804002DE9F0434FF001099DB004AC07460E4694
:1028140090461D4602460B4620460421CDF8009002
:1028240004F05CFF204604F027FE70B10C23052160
:10283400CDE901834846114B009408F13C0204F0B1
:102844003BFE60B9204604F032FE0022099BD868A2
:10285400DA60904208BF1F201DB0BDE8F083204617
:1028640004F023FE0028F0D00DB90020F4E7049B07
:10287400DB1BB34294BF2B602E60F6E70D270000EC
:1028840002464B1E0846D15C51B102280FD9084BB1
:102894000344012013F8023C9840C0B270472BB1A6
:1028A4001846013BD15C0029F9D0EEE71846704781
:1028B400BD8E0000F8B505460F461046194616466B
:1028C400FFF7DEFF012804462A68E9681CD1337843
:1028D400172B04D9931C99421AD3002325E0501CCA
:1028E400814215D300248A4212D2511C03F01F03E3
:1028F400296043EA471111703444B44218D1AB68DB
:1029040001200133AB6007E0431C1344994204D215
:10291400082200206B69DA60F8BD08B93378E2E771
:10292400831E062BD9D80648C35C1833DBB2DAE71A
:102934002B685A1C2A6014F8012D1A70DDE700BFB9
:10294400BD8E0000014910220A60704710ED00E0BE
:1029540072B6404080F31188BFF36F8FBFF34F8F7F
:1029640030BF62B6BFF36F8F704700BF72B6494085
:1029740081F3118820BF80F3118862B6704700BFCD
:1029840037B505460C46C9B18B6810480093D1E9A8
:102994000023452104F090FB636945210093D4E9A9
:1029A40003230B4804F088FB4521E269094804F03D
:1029B40083FB4521A269084804F07EFB2146284692
:1029C40003B0BDE8304002F097B900BFC48E0000E8
:1029D400F88E00002C8F0000408F000040B20028C9
:1029E40007DB01234109034A00F01F00834042F83A
:1029F4002130704700E100E0054B420953F82220E2
:102A0400012300F01F0003FA00F01040704700BFDC
:102A140000E100E040B2002801F10101ACBF00F187
:102A24006040064B4FEA4111C9B2ABBF00F56140AB
:102A340000F00F0080F800131954704714ED00E003
:102A440030BFFFF7FDBF00BF144A08B5144B22F096
:102A54007F029A60BFF34F8FBFF36F8FD3F8882044
:102A640022F47002C3F88820D3F8882042F4A0022C
:102A7400C3F888204FF04042C3F83422BFF34F8F8D
:102A8400BFF36F8F0023E1EE103A02F0ADF902F0CC
:102A9400F3F900F043FA02F0B3F900BF00000000BC
:102AA40000ED00E01EF0040F0CBFEFF30880EFF31D
:102AB4000980816911F8021C0229FFD001B504F0D4
:102AC4002FFE01BD0446084611461A460023E1EED6
:102AD400103A83F30B880A4B2025A3F5205686F37E
:102AE4000B8883F3098863B64FF0000383F31188DE
:102AF400BFF36F8FA04785F31188BFF36F8FFEE795
:102B0400F84C002001B5EFF30580A0F110004FEA66
:102B1400C0000449014409C99847BDE8014002497D
:102B240008470000E0810000312B0000704700BF1F
:102B340038B5214C4521214804F0BEFAA36A9D0111
:102B440003D545211E4804F0B7FAA36ADC0103D576
:102B540045211C4804F0B0FA174DAC6A14F48014F3
:102B640004D04521184804F0A7FA0224AB6A1803DC
:102B740003D54521154804F09FFA0F4DAB6A59035C
:102B840003D54521124804F097FAAB6A9A0303D59A
:102B94004521104804F090FA074DAB6ADB0303D5D6
:102BA40045210D4804F088FAAB6A20466FEA0343D6
:102BB4006FEA1343AB6238BD00ED00E0738F000091
:102BC400908F0000A88F0000C78F0000F68F0000D0
:102BD40019900000439000006290000070B5234CEF
:102BE40006460D462248452104F066FAA36AD90434
:102BF40003D545211F4804F05FFAA36A1A0503D5DB
:102C040045211D4804F058FA184CA36A9B0510D5B9
:102C14001A48452104F050FAA26BA36A180408D597
:102C24004521174804F048FA1EB1A36A23F400436F
:102C3400A3620E4CA36A590503D54521114804F03B
:102C44003BFAA36ADA050BD545210F4804F034FAA0
:102C54000020064A936A43F47F439362287070BD50
:102C6400A36A9B04F4D545210848EFE700ED00E092
:102C740092900000AD900000C3900000DB90000033
:102C8400F99000001391000033910000509100006E
:102C940070B5264C06460D462548452104F00CFA2D
:102CA400A36AD80603D54521224804F005FAA36A8D
:102CB400190703D54521204804F0FEF91B4CA36AEB
:102CC4009A0710D545211D4804F0F6F9626BA36AF2
:102CD4001B0608D545211A4804F0EEF91EB1A36A73
:102CE40023F08003A362114CA36ADE0703D54521B8
:102CF400144804F0E1F9A36A980603D54521124863
:102D040004F0DAF90020094B9A6AD10658BF9A6A8E
:102D14009A6A920642BF5A6A22F400525A629A6A26
:102D240042F0FF029A62287070BD00BF00ED00E01F
:102D3400849100009F910000C3900000D79100008F
:102D4400F49100000F920000509100002DE9F04131
:102D54005C4B05465F6800268AB0C7F3080486F317
:102D64001188BFF36F8F02F07F43B3F17F4F07D118
:102D740002F00C03082B14D14521534804F09CF9AC
:102D8400002635464FF00008E31E8DF80780092B16
:102D940000F28680DFE803F00A797D7584848484F8
:102DA400848110074CBF0D460126EBE745214748B7
:102DB400444C04F081F98DF80780E36A9A0705D53D
:102DC4004521434804F078F9002432E0E36A002BFB
:102DD40002DA45213F48F5E7E36A5B00F4D5452173
:102DE4003D4804F069F96369AA6943F48073636137
:102DF400BFF34F8FBFF36F8F636932F8022C23F454
:102E040080736361BFF34F8FBFF36F8F4DF602730F
:102E14009A4208D0A36ADBB22BB301200DF107015B
:102E2400FFF736FF2FE045212A682C4804F044F9C7
:102E34002C689DF807309BB92022294602A804F08B
:102E4400B5FC099B002E38D0C3F3080222B96FEAFF
:102E540053236FEA43230993204602A9FFF790FD09
:102E64000AB0BDE8F081A36A13F47F4F05D00120B6
:102E74000DF10701FFF7B2FE05E0A36AB3F5803F49
:102E8400A2D3FFF755FE0446D3E700200DF1070156
:102E9400C6E700200DF10701ECE74521104891E752
:102EA400104917F4F87F104A104808BF0A46A4F1E5
:102EB4001003452104F000F986E723F4FF7323F09F
:102EC4000103C8E700ED00E0619200009192000068
:102ED400AD920000D3920000E69200000A93000035
:102EE4002B9300003392000048920000549300009A
:102EF400044B5A6942F010025A615A6942F48062E2
:102F04005A61704700ED00E0EFF30880EFF30981A8
:102F140001B57246FFF71AFF01BD00BF002320214F
:102F24000348C2180133412B82F80013F9D17047CA
:102F340000E100E0002080F31488BFF36F8F0020CD
:102F440080F30A8880F30B88FEF700FF00200E4907
:102F54000860BFF34F8F0D4880F3088800F03EF8F7
:102F6400202080F311880A484FF40061401880F350
:102F74000988EFF314800221084380F31488BFF317
:102F84006F8FFFF761FD000094ED00E0F84C002026
:102F9400F81C0020BFF34F8F0549064BCA6802F4A2
:102FA400E0621343CB60BFF34F8F00BFFDE700BF68
:102FB40000ED00E00400FA05002318460649D1F8A4
:102FC4009020C2F30722934200DB7047C1F8983087
:102FD400C1F8A0000133F6E700ED00E010B572B6C9
:102FE400002484F31388FFF7E7FF23464FF0FF30F4
:102FF4000C4A03F120010133102B42F82100F8D1CF
:1030040000234FF0FF30074A03F160010133102B16
:1030140042F82100F8D162B6BFF34F8FBFF36F8F30
:1030240010BD00BF00E100E00121024B024A034849
:1030340000F016B900600120000000200C8500009B
:1030440010B50C7A0B6804F01F0223F01F031A4317
:10305400CB68640923F01F03054943EA440343F0A2
:103064000103C1F89800C1F89C20C1F8A03010BD3C
:1030740000ED00E030B50C684B6885B00A894D89D5
:103084000094013B24F01F04234402F01F0242EA8F
:10309400451223F01F030F2804468DF808200393DC
:1030A40009D902464521064804F006F86FF01504D4
:1030B400204605B030BD6946FFF7C2FFF8E700BF00
:1030C400709300002DE9F04F8946144606464FF0F0
:1030D4000008544D85B0C84527DAD6F804A0BAF1E3
:1030E400000F44D0BAF11F0F18D91AF01F0F15D1D1
:1030F400D6F800B01BF01F0F10D1584604F01FFB88
:1031040007460AEB0B00013804F019FB874210D084
:103114006FF015073A464521434802E042464521EF
:10312400424803F0C9FF6FF01504204605B0BDE81E
:10313400F08F17F1160FEDD0BC42EBDDC5F8987097
:10314400D5F89C10C5F89870D5F8A03021F01F016F
:1031540043F01F0BD6E900321A44994202F1FF3AB8
:103164001DD1D34507D13146F8B2FFF783FF08F1EB
:1031740001080C36AFE73146C5F89870D5F89C3095
:1031840022F01F0203F01F031343C5F89C30E0B282
:10319400FFF770FF10F1160FC5D0441CE7E7C5F820
:1031A4009870D5F8A020013B23F01F0302F01F0202
:1031B4001343D3453146E0B2C5F8A030E8D0FFF759
:1031C40059FF10F1160FAED0C5F89870D5F89C20B1
:1031D4009DF808300BF1FF3B62F304038DF80830CF
:1031E400D5F8A0309DF808205B0863F34712D6E9B0
:1031F40000310B44009323F01F0301305B44A3EB25
:103204000A03C0B223F01F030F288DF8082003938C
:1032140003D902464521064883E76946FFF710FFB4
:10322400BBE700BF00ED00E0C39300009B930000E8
:10323400709300000522044BC3F89420BFF34F8F12
:10324400BFF36F8F704700BF00ED00E0BFF35F8FE7
:103254000022024BC3F89420704700BF00ED00E049
:1032640010B5034C2278FFF72DFF207010BD00BF6E
:10327400D21C002038B50E4D2C68102C15D8002017
:10328400FFF7E4FF0B4B0C4AC3F8C020844205D17E
:103294000A4B00201C70FFF7CDFF38BD696801EBB5
:1032A4000011FFF7CDFE0130F0E74FF0FF30F4E7F7
:1032B4001885000000ED00E0AAFF4400D21C0020A5
:1032C4000CB410B586B009B90DF10B000024CDE99A
:1032D400040109AB089A009404A905480393FEF776
:1032E400E3FA049B1C7006B0BDE8104002B07047BE
:1032F400D9770000084B70B5C31A0D4607499B10D7
:10330400044659434022064804F08DFA2B460146F0
:103314002046BDE870401847B4120020B76DDBB6F4
:1033240080810000402373B50B4C0093041B0B46B3
:103334000D460A49A41061430646094A094804F0A7
:103344009EFA011E05DA30462B4602B0BDE87040F5
:10335400184702B070BD00BFB4120020B76DDBB6D1
:10336400F37800008081000070B50022012104463A
:103374000520FFF74FFB0F4801F0F0F80E4B984281
:1033840015D104F037FE26690C49304603F00AFED5
:1033940000280BDB012535642469084904F11C006D
:1033A40003F000FE002801DB0020E56470BD6FF02F
:1033B4000400FBE7F93300000000AD0B408500007A
:1033C40001460C23002270B54B430848C41840330F
:1033D400D4E90E561844A26304F012FA2DB1324611
:1033E4002B46BDE870400248184770BDB412002057
:1033F4008081000010B1012804D07047034B1B6C7E
:103404005B0701D1FFF7DCBF704700BFB412002097
:1034140008B54FF02003EFF3118183F31288BFF353
:103424006F8F124A136843F002001060DA0708D461
:1034340081F31188BFF36F8FBDE80840012004F0C9
:10344400E7BD4FF05023D3F80C24D3F80C34D30742
:10345400EED5074804F0D4F981F31188BFF36F8FD8
:10346400BDE808400020FFF7ABBF00BF04130020F5
:10347400F4120020074BD3E8EF2F22F00201C3E837
:10348400E01F0028F7D1D30702D4012004F000BEC6
:10349400704700BF041300202DE9F84301220746BA
:1034A4003449D1E8EF3FC1E8E02F0028F9D133B91E
:1034B400314932484B60CB608A6003F086FD7B1E45
:1034C400012B2DD8012F07D14FF05023D3F81C34F2
:1034D40003F00303022B23D004F0F5FD054608BBDB
:1034E400274B1B78F3B14FF0502302220646C3F852
:1034F40008234FF050244FF00008DFF88890D4F8E8
:103504001834D4F81824D20316D503F00303022B7D
:1035140001D0012F10D13DB386F31188BFF36F8F13
:10352400BDE8F8834FF02003EFF3118683F312888C
:10353400BFF36F8F0125DCE73046FFF717FAD4F8A5
:103544001835DBB2012BDAD1D4F80421002AD6D005
:10355400C4F80481D4F804210222C4F818252022D6
:10356400C9F88021A360CAE74FF050230222C3F8B0
:103574000423D5E7B0120020A0120020D0120020AE
:10358400F51C002000E100E030B5406801F01F04A4
:10359400057BB2F5001F85B044EA451405D12046E9
:1035A40001F072FA002005B030BD0025B2F5800F9D
:1035B400CDE9025514D1B3F1007F0CBF04230523D8
:1035C4008DF8083000232046194602AA01F092F82B
:1035D4001C4B984233D10121204601F011FAE1E756
:1035E400B3F1C06F20D0B3F1007F14BF01230223D5
:1035F4008DF808308368CB40D907E3D4B2F1A07FBB
:10360400E0D1114A04F01F03803352F82330DB0762
:10361400D8D40DF107052946204601F09DF90B4B3E
:10362400984203D00395CDE70323E1E7284601F050
:10363400E1F9044B9842F5D06FF00B00B3E76FF05B
:103644001500B0E70000AD0B002584500400AD0B5D
:1036540010B501F0BFF9044668B901F093F9084BBD
:1036640098420AD12146074801F070F92246052103
:103674000D20FFF7CFF9002010BD6FF00400FBE729
:103684000000AD0B8D360000430970B507D10B4B1C
:10369400596821B101250C68094E854001B970BDF6
:1036A4008A682A4002D030464B6898471CB1236888
:1036B40021461C46F2E72346FAE700BF0813002020
:1036C400988100002DE9FF41476801F01F053B7B0D
:1036D400144645EA43150E4628460DF1030101F050
:1036E4003BF914F4403F80460BD1284601F0F4F92D
:1036F4003C4B984503D19DF8030001F075F9002077
:103704000CE000232846194602AACDE9023300F052
:10371400F1FF344B984204D06FF0150004B0BDE8BB
:10372400F081804503D19DF8030001F05DF9A30306
:1037340049D540F206332340B3F5837F19D00CD822
:10374400062B17D004D8ABB1022BE5D1042311E02A
:10375400B3F5807FE0D101230CE040F202229342D2
:1037640026D0B3F5407F25D0B3F5007FD4D1022312
:1037740000E007238DF8043084F48033C3F300435E
:10378400E0068DF805304CBF0323C4F34013210336
:103794008DF8063010D501237A68B3409360002277
:1037A400284601A901F052F80E4B9842A7D0B3E77E
:1037B4000523DFE70323DDE7620341BF01237A68C2
:1037C400B340D360EBE7E3064FF000034CBF0324A0
:1037D400C4F340141A46284601A98DF8044000F0A9
:1037E40089FFE1E70000AD0B024B0B60012313607E
:1037F400704700BF1413002000487047C8850000BC
:1038040010B504F04DFC034C206004F046FC6060ED
:10381400002010BD14130020F8B50E46144604F021
:103824003CFC21460546304604F0BEF8374600B35A
:10383400B6FBF5F305FB136323B9B4FBF5F305FB02
:10384400134343B12346324645210C4803F034FC6C
:103854006FF0150002E0A54201D90020F8BD04F084
:103864001CFC0546384601F019FA641B2F44F9D1B3
:10387400F3E72346324645210148E7E72B9400004D
:103884004F940000F8B50E461946304617461D46BB
:1038940004F08AF840B92B4632464521114803F01A
:1038A4000BFC6FF01500F8BD46EA050414F00304A0
:1038B40004D02B46324645210B48F0E74DB12B1975
:1038C400032BA6EB040006D8084AD2F80034DB0721
:1038D400FBD50020E7E73B1B196801F0FDF9043C28
:1038E400EDE700BF4F940000719400000090035076
:1038F40070B50D461946284616461C4604F054F881
:1039040040B9084823462A46452103F0D5FB6FF009
:10391400150070BD24B122462946304603F046FF07
:103924000020F6E74F940000F8B504460D460769F9
:1039340004F0C9FB90B91F4B1B787BB16426606807
:1039440004F075F9E0B9012004F0F8FA013EF6D16B
:10395400F4E781F31188BFF36F8FEFE74FF0200393
:10396400EFF3118183F31288BFF36F8F60680E4603
:1039740004F05DF990B981F31188BFF36F8FEDE71F
:103984004FF02003EFF3118183F31288BFF36F8F9D
:1039940060680E4604F04BF90028DAD07B690122F6
:1039A4001D702046796904F082F886F31188BFF30C
:1039B4006F8FF8BDF51C0020F0B54B79012B26D094
:1039C400032B21D110258B79032B1DD1CE790EB178
:1039D400012E19D10A7912B1022A15D10E220B68CF
:1039E4004468B3F5164F276867D02DD8B3F5165F32
:1039F40066D016D8B3F5966F64D00AD8B3F5967F1F
:103A040063D0B3F5167F63D06FF0850054E00025D2
:103A1400D9E7B3F5166F5ED0B3F5965FF4D1384BA2
:103A24003CE0B3F5E14F59D007D8B3F5615F57D007
:103A3400B3F5964FE8D1334B30E047F61224A34256
:103A4400E2D14FF4000329E0B3F5613F4AD013D823
:103A5400B3F5963F49D009D84DF6C024A34246D0C9
:103A6400B3F5614FD0D14FF46B0317E0B3F5E13FE9
:103A7400CAD14FF0EB7311E0B3F5612F3AD008D8F7
:103A8400214CA34239D0B3F5E12FBDD14FF0E86307
:103A940004E01E4CA342B7D14FF080530469C7F829
:103AA4002435436835431B682A43C3F86C25231D1A
:103AB40003C983E803000020F0BD4FF41D03EDE7C4
:103AC400134BEBE74FF49E23E8E74FF4A033E5E70D
:103AD4004FF41C33E2E74FF41D23DFE70D4BDDE722
:103AE4000D4BDBE74FF06C73D8E70C4BD6E74FF484
:103AF4006503D3E74FF07063D0E74FF08063CDE701
:103B040000B0130000A04E0090D0030040420F000C
:103B14000050270000C0750000F03A0000903A0100
:103B24002DE9F7438046002201210820FEF772FFA9
:103B34000820FEF753FF0021D8F80470D8F810606D
:103B44003C6801AAC4F80015C6F80080D7F80C90A8
:103B5400484604F016F9051E1EDB019BD9F8002027
:103B64001979186800F088FA051E15DB4046311DE6
:103B7400FFF722FF054678B97B6899071DD506F142
:103B84001C0000F02FFD214B984209D0452120480C
:103B940003F092FA6FF00405284603B0BDE8F08301
:103BA400337F43F00043C4F8A031C4F88C300123C0
:103BB400327F9340174AC2F804350823C4F800350D
:103BC4003B7A53B9C4F81031D4F81031B369C4F84E
:103BD40034350123C4F8383523607B689A075CBF09
:103BE4004FF48073C4F804337B68DB0644BF4FF49E
:103BF4008003C4F804337369C4F844350023C4F85B
:103C040048350123A360E360C6E700BF0000AD0BA5
:103C1400B5940000007001500123834070B5DC436B
:103C24000B4AD2E8EF1F01EA0405C2E8E65F002E62
:103C3400F7D14FF4803282400648C0F80823BFF31E
:103C44005F8FBFF36F8F0B4214BF0120002070BD44
:103C54002013002000500150F8B51B49044622F0FF
:103C64007F450868C1E90023A5F50013101AB3F5D0
:103C7400400F0FD301F060F9A30003F1502303F5C3
:103C84008033D3F8402595421DD14FF40002C3F888
:103C9400402512E00D4B1B681A0A1B065E190C4BDB
:103CA40042F10007C3E9006701F046F9094A04F547
:103CB400A87352F823309D4205D14FF48033054A4E
:103CC400A340C2F84433F8BD280100202413002087
:103CD4003001002000500150D9B101230D4A834026
:103CE400D2E8EFCF4CEA030CC2E8E1CF0029F7D1C8
:103CF4004FF48033084A8340C2F80433074BD3E8B7
:103D0400AF3FC340DB0742BF4FF40012044BC3F87C
:103D14000021704720130020005001501C13002084
:103D240000E100E00D4B1868010A0006BFF35F8F45
:103D34000B4BD3F80435181841F10001B3F5801F7B
:103D44000AD2084BD3E90023904271EB030303D258
:103D540010F1807041F10001704700BF241300206E
:103D640000500150300100202DE9F74F14461D4644
:103D74000746FFF751FF0090FFF7D4FFA04271EB15
:103D840005037AD2444B201A65EB0101984271F184
:103D940000017DD2414B03EB0713D3E902239D427B
:103DA40008BF944254D04FF4803324F07F4B5E46D6
:103DB40000214FEA870907F1500809F150294FEA19
:103DC4008808BB4009F580391FFA88F808F15028A3
:103DD4000193D9F84005324B08F58038D3F804A58F
:103DE400A0EB0A0020F07F402AF07F420128C9F8A6
:103DF400402504D1132004F06CF90021284B0AF16A
:103E0400020CA6EB0C0020F07F40B0F5000F88BF39
:103E14006646C8F80010019AD8F8000026F07F40E2
:103E2400C3F84423C9F84005D3F80405824506D0F5
:103E3400301A023820F07F40B0F5000F1BD8A6EBF3
:103E44000B0626F07F46361945F1000334461D461D
:103E540012490C9801EB0712C2E9024500243B0108
:103E6400C8500D9B536038460099FFF735FF204634
:103E740003B0BDE8F08F3046B0E70123094ABB40E8
:103E8400D2E8EF0F1843C2E8E10F0029E0D0F7E7CA
:103E94006FF01504E7E700BF0100000118010020DE
:103EA400005001501C13002073B500244FF0FF3064
:103EB4004FF0FF31164D174BC5F80845C3E9020111
:103EC4004FF4803302264FF40012C5F80433124B2A
:103ED4000121C5F804631520C3F880212246FEF7AA
:103EE40099FD1520FEF77AFD01230C4AAB602B6087
:103EF40013600B4B0B4A0093204600230194FFF7F9
:103F040033FF3046FFF7C8FA204602B070BD00BF49
:103F1400005001501801002000E100E020130020AF
:103F24005D3C0000FFFF7F002DE9F743314BD3F8E0
:103F3400042392070BD5D3F8042142B10022C3F81D
:103F440004212D4AD3F804311368013313604FF070
:103F54002003EFF3118283F31288BFF36F8F254C94
:103F6400D4F80433DB0325D5244BD3E8EF1F21F029
:103F74000100C3E8E50F002DF7D111B9D4F84031A1
:103F8400C3B10025C4F84051D4F8403182F31188FC
:103F9400BFF36F8FFFF7C6FE4FF02003EFF31182DC
:103FA40083F31288BFF36F8F154BD3E90267B042D6
:103FB400B94106D282F31188BFF36F8F03B0BDE815
:103FC400F0834FF0FF38D3E900104FF0FF391D6044
:103FD400C3E902894FF48033C4F8483382F311886B
:103FE400BFF36F8F0029E9D0009032463B46284644
:103FF4008847E3E700500150241300201C130020DD
:1040040018010020431C13B520D0012820DDB0F591
:10401400000F1FDA441EFFF785FE0F4BD3E9001390
:10402400421AB2F5000F28BF00240C480132224482
:10403400824228BF0246002052180949019000918B
:1040440043F10003FFF790FE02B010BD0348E1E71F
:104054000024E0E7014CDEE728010020FFFF7F0099
:104064005D3C000008B5FFF75DFE024B1B68C01AFB
:1040740008BD00BF280100202DE9F0410126394D7B
:1040840000EB8101814202D10020BDE8F081D0F82B
:1040940000C00CF07F037F2B08BF4FF0FF33BCF54B
:1040A400802FCCF343274FEA1C440DD2013C022C51
:1040B40012D8DFE804F019383B00173C022C38D83A
:1040C400DFE804F0474A4D00A4F1160CBCF1030FDD
:1040D400F3D96FF08500D8E7C2F80C3503F01F045C
:1040E40006FA04F4AC6031E0C2F814354FF0000C69
:1040F40050F8044B03F01F0304F4005EBEF1000FFC
:1041040016BF4FF0000CE6464FF0010EC4F3C11881
:104114003C0244EA880444EA0C0444EA4E04803332
:1041240045F82340AEE7C2F80835D7E7C2F81035A2
:10413400DCE7C2F86035046803F01F0CC4F3803474
:1041440006FA0CFC002CC9D1C5F80CC04FF0010CC8
:10415400CEE7C2F86435EEE7C2F86835EBE7C2F89B
:104164006C35E8E7002584500348452108B502F082
:10417400A3FF0020FEF70EFFF394000030B5816822
:1041840085B0103921F00704054602F0EAFF102239
:104194000146684603F015FB10226846064903F001
:1041A40005FB10236A462146284602F0A8FF003882
:1041B40018BF012005B030BDE887000030B50D46BA
:1041C400816887B0102302AA1039044602F082FFE6
:1041D400002802DA012007B030BD1022204602A9CF
:1041E40003F004FE00283AD110221E4902A803F06D
:1041F400B6FA00280CBF012302232B70204603F0DB
:10420400E1FD012301460DF10702204602F062FFA1
:104214000028DFDB9DF80730204603F00F021B095E
:104224006A702B7101220DF1070103F0DFFD10B953
:104234006B78042B03D901236B7000232B71A268C4
:104244002046183A22F00702083AA91C03F0E1FDBF
:104254000028BFD12046E91C03F034FEBBE703234A
:10426400CBE700BFE88700007FB50546694601201B
:1042740003F02EFE044610B1FF2004B070BD0320ED
:1042840002A903F025FE012836D12A4649212848EF
:1042940002F012FF274B8DF80C40029300229DF888
:1042A40000509DF80860244C2946207803F090FDC6
:1042B40048B33146607803F08BFD20B3A378042B18
:1042C40003D09DF8031099421DD1E378042B03D049
:1042D4009DF80B10994216D12379042B0FD16379E1
:1042E400022B1BD1154A1648492102F0E5FE6079DC
:1042F400831E022BC1D9BFE70028CFD0BCE79DF8AD
:1043040002109942EBD00132032A04F10604CBD106
:104314000C48492102F0D0FE0120AEE7032B05D062
:10432400094A0A49042B08BF0A46DCE7084ADAE7C7
:104334003895000003010303AB9500001A950000B3
:1043440083950000969500001F95000031950000AC
:104354001595000008B54FF47F03D3F83021D3F846
:104364003431BFF34F8F092A01BF4FF0502300228D
:10437400C3F81421C3F8182103F0CFFD28B101229A
:10438400524BC3F8382AC3F878254FF47F03D3F887
:104394003021D3F83431BFF34F8F092A05D1012BD3
:1043A4001EBF0122494BC3F8782503F0B6FD18B1AE
:1043B4000E22474BC3F8E42E4FF47F03D3F8302189
:1043C400D3F83431BFF34F8F092A06D100223F4B73
:1043D400C3F80C270122C3F810270022D30003F5E9
:1043E4007F03D3F80013BFF34F8F013108D0D3F804
:1043F40000130132D3F80433B2F5807F0B60EDD1A2
:10440400344BDA69BFF34F8FD10745D5BFF34F8FD4
:10441400314BD3F80024012AFBD1C3F80425D3F887
:104424000024012AFBD12B4BDA69BFF34F8FD2074B
:104434000AD5DA6922F00102DA61BFF34F8F264A06
:10444400D2F80034012BFBD1224A136ABFF34F8FF9
:1044540001330CD1136A23F0FF0343F020031362EA
:10446400BFF34F8F1C4AD2F80034012BFBD100223A
:10447400194BC3F80425D3F80024012AFBD1BFF358
:104484004F8F1649164BCA6802F4E0621343CB609F
:10449400BFF34F8F00BFFDE71B6ABFF34F8F01339C
:1044A400B4D00E4BD3F88C2042F44062C3F88C2075
:1044B400D3F8882042F47002C3F88820BFF34F8FEA
:1044C400BFF36F8F074B084A1A6008BD00400050C5
:1044D40000A003500080FF000090035000ED00E0B6
:1044E4000400FA05440000200090D00370B50125B3
:1044F4000268B2FA82F3C3F11F03DBB205FA03F4D4
:1045040022EA0404D0E8EF6F964204D1C0E8EC4FED
:10451400BCF1000FF6D1EBD101480B7070BD00BFA8
:104524000000AD0B10B50368CB40DB0710D40123AA
:104534008B40026843EA0201D0E8EF4F944204D171
:10454400C0E8EC1FBCF1000FF6D1F2D1014810BD58
:104554000148FCE70000AD0B0400AD0B044B1A79D5
:1045640022B9012218601A71024870470248704744
:10457400281300200000AD0B0C00AD0B4FF05023AE
:1045840010B5D3F8002152B10020C3F80001D3F8CC
:1045940000210122C3F80823114B1B6898474FF0F0
:1045A4005023D3F804218AB10022C3F80421D3F89C
:1045B4000421D3F81824D3F8181402F00302012AB2
:1045C4004FF0020103D1C3F818159A6010BDC3F867
:1045D4000813034B0120BDE810401B68184700BFB7
:1045E4002813002001460148FFF780BF480000203F
:1045F400064A00F01F0002EB8002D2F8003223F4D6
:10460400403343EA0143C2F8003270470025845026
:10461400034B083033F81000C0F34010704700BF5C
:104624004C00002070B50D4C00F1080334F8133031
:104634000546DA050E4607D5C3F3432304EBC3024C
:10464400526854F833309847A3682BB13146284652
:10465400E268BDE87040184770BD00BF4C00002000
:1046640010B4134A083032F81030D9051CD5C3F3FE
:10467400432123F4F85322F81030002002F10E04F1
:1046840034F8023F13F4807F03D0C3F343239942E9
:104694000AD001302028F3D1002342F831300548F4
:1046A4005DF8044BFFF73EBF5DF8044B704700BF55
:1046B4004C000020A000002038B50246FFF7A8FFF8
:1046C4000B4C02F1080560B1002134F815305B0B86
:1046D4009B0003F1A04303F55043C3F81015C3F83E
:1046E40010151046FFF7BCFF002324F8153038BD21
:1046F4004C0000202DE9F34104461D4609B34E4FFA
:1047040000F1080837F81860B30706D5FFF780FFF3
:1047140018B14A4802B0BDE8F081494804F01F03CB
:1047240000EB8300D0F80032097823F00F0326F061
:10473400020643EA810346F00106C0F8003227F876
:1047440018609AB13C4E04F1080736F81710137834
:1047540011F0020F50680CD00028DAD136F8172077
:1047640022F01C0242EA830326F81730D5BB3548F1
:10477400D0E721F02001C904C90C26F8171000283D
:10478400ECD0032BC5D8526892F800C06246920060
:1047940002F1A04202F5504223B9C2F81035C2F822
:1047A4001035DBE7D2F8100541EA4C3120F0030064
:1047B400C2F81005D2F8100541F0200120F447306A
:1047C40020F44070C2F810052002D2F810E500F47D
:1047D400F85040EA034040EA0E00C2F8100526F8FB
:1047E4001710BBE72046D5E90067FFF739FF002E15
:1047F400BDD0114DD5E90023964201D19F4218D076
:1048040011480DF10701FFF771FE0E4B984281D15B
:104814009DF8072005EBC20308345F6035F81430B7
:1048240045F8326043EA422343F4807325F8143098
:104834009DE70022EEE700BF4C0000200400AD0B12
:10484400002584500000AD0BA0000020F8B50446FC
:1048540079B33A4E00F1080736F81750AB0704D481
:10486400FFF7D6FE08B13648F8BD15F01C0F4B789B
:1048740022D104F01F00DFF8CCC000F1800E5CF8F8
:104884002EC091F802E05B002CF4E16C097843EA55
:104894008E032CF0070C43EA0C0343EA0123294955
:1048A40043F00103803045F0030541F8203026F839
:1048B400175022B92448D7E7012BDAD1D3E71F4E8A
:1048C40004F1080736F817008307CCD592F800C026
:1048D4000023614620F02000890001F1A041C004BA
:1048E40001F55041C00CC1F8103526F81700C1F885
:1048F40010355578002DDDD0D1F81035927823F499
:10490400981323F4F853C1F81035D1F810E52302B5
:1049140003F4F8532D0443EA0E0305F4403512055D
:104924002B4302F4801240EA4C30134340F0200041
:10493400C1F8103526F81700BCE700BF4C00002072
:104944000400AD0B002584500000AD0B014BC3E9FE
:10495400020170474C00002008B50246FFF758FEDC
:1049640038B1054B083233F8123004485B0B0B7036
:1049740008BD0348FCE700BF4C0000200000AD0B5D
:104984000400AD0B38B50F4C94F85850BDB9402213
:10499400294604F1100002F014FF0D20FEF71EF862
:1049A400094B0A48C3F87C51D3F87C214FF00042EC
:1049B400C3F80423012384F85830636538BD0448E0
:1049C400FCE700BF4C00002000D000500000AD0BFD
:1049D4000500AD0B034B93F85800003818BF0120B5
:1049E400704700BF4C00002001460148FFF79ABD04
:1049F4009C00002001460148FFF778BD9C00002080
:104A0400024610B5FFF704FE1C4B02F1080433F80C
:104A14001430E0B113F0020419D15B0B9A0002F1D7
:104A2400A04000F5514002F1A042046002F550425A
:104A34000068D2F8100540F00100C2F8100529B151
:104A4400012202FA03F30E4AC2F8043310BDC3F381
:104A54008203042B0ED0052B0ED00A4B196902F0E9
:104A64001F03D94001F0010102311046BDE8104096
:104A7400FFF7BEBD0321F8E70221F6E74C00002052
:104A840000D000500025845008B50246FFF7C0FD51
:104A9400C0B10F4B02F1080133F81130990711D45A
:104AA40001225B0B9A400B499B0003F1A043C1F820
:104AB400082303F55043D3F8102522F00302C3F86A
:104AC400102508BD0021BDE808401046FFF790BD41
:104AD4004C00002000D0005010B50C4B00F108022F
:104AE40033F812300446DB070DD5FFF7CDFF20461F
:104AF400FFF7E2FD0222064B04F01F048034054850
:104B040043F8242010BD0448FCE700BF4C000020FB
:104B1400002584500000AD0B0400AD0B2DE9F04FCF
:104B2400002501222C464D4B4D484E4985B01E6848
:104B340036B1D0F8046316421EBF1C601E681543CC
:104B440004338B424FEA4202F1D1454FD7F87C310E
:104B540093B1454E336A039333624FF0010A0DF16A
:104B64000C09039870B9C7F87C01D7F87C31336A13
:104B740003933362002BF0D10124002D56D105B0EC
:104B8400BDE8F08F90FAA0FBBBFA8BFB374A0BF120
:104B940008034FEADB0C32F813100BF0070419F882
:104BA4000C300AFA04F423EA040309F80C3006EB87
:104BB4008B03D3F80042C1F38202C9069046C4F3C2
:104BC400014418D5114658460193FFF72BFD019B6C
:104BD400E4B2D3F80032C3F301439C4207D100216D
:104BE4005846FFF705FD21465846FFF701FD0AFA2E
:104BF4000BF03062B5E7022C0CD103215846FFF7C5
:104C0400F7FC08F00503012BF1D141465846FFF7A4
:104C140009FDECE7022158460192FFF7E9FC019AED
:104C2400032AF2D0032CE2D18A42EDE795FAA5F3E8
:104C3400B3FA83F304FA03F29B0003F1A04303F5F0
:104C44005043D3F81005D3F81015C0F30420C1F372
:104C5400014125EA0205FFF7E5FC8EE700D100508B
:104C640000D0005020D10050002584504C0000207A
:104C74000022034BC3F88425C3F80425704700BF02
:104C840000900350044AD2F80834DB07FBD50160D6
:104C9400BFF35F8F704700BF0090035008B5C0F3A7
:104CA4000B0383B90222094BC3F88425C3F80425F6
:104CB4004FF0FF320260D3F80024D207FBD5FFF790
:104CC400D7FF034808BD0348FCE700BF009003502A
:104CD4000000AD0B0A00AD0B012208B5054BC3F86B
:104CE4008425C3F80425FFF7CDFFBDE80840FFF78E
:104CF400BFBF00BF0090035073B504460D464FF08C
:104D04002003EFF3118683F31288BFF36F8F002221
:104D1400042896BF114B124B53F8203000924521C2
:104D24000246104802F0C8F93DB1EB69C3F3080329
:104D34001BB145210C4802F0BFF900220B4B452161
:104D44000B4802F0B9F929462046FFF70DFA86F31D
:104D54001188BFF36F8F02B070BD00BF488600009A
:104D6400BD950000CB950000F89500001E9600004C
:104D7400269600000F4B70B553F82040013053F8CD
:104D84002060A64200D870BDD4E900352846984773
:104D94006DB138B10028B8BF4042FF28A8BFFF203A
:104DA400EB681870EA68537843F0010353700834D1
:104DB400E7E700BF5C860000012208B5084B03202A
:104DC4001A70FFF7D7FF00F013F90420FFF7D2FFA2
:104DD400FBF73CFB034A137B23F00103137308BD69
:104DE400F51C00203801002008B50348034A0021BF
:104DF400121A03F064F908BD18010020F81C002001
:104E040008B50020FFF7B6FF184B03F5006282F3E4
:104E1400088883F30A880025E023154C84F822309F
:104E2400E57725766576A57684F82050636A43F4A1
:104E3400E023636284F82350FEF75AF8FDF782FDFD
:104E44004FF0FF33A362E362FEF714FAFEF7ECF8C7
:104E540003F029F90120FFF78DFF0220FFF78AFFF5
:104E64002B462A4629460348FDF72CFEF81C002051
:104E740000ED00E0BD4D000008B50648064A0749AC
:104E8400121A03F01EF9BDE80840054A0549064810
:104E940003F017B90000002018010020C09600009C
:104EA40000000000C096000000000020034B1B68B7
:104EB4000BB9FFF7D7B80020704700BF30130020AC
:104EC40010B50E4B1C689C4204D1FFF7EFFF6FF046
:104ED400004010BDFFF7EAFF002CF8D0D4E90432FB
:104EE4001B1A62EBE072B3F1004F72F10001EEDACB
:104EF400002AACBF18460020EBE700BFA800002042
:104F040030B570B10B4B5B6898420AD0036843B16B
:104F1400D3E90421D0E90445121941EB0501C3E9A1
:104F24000421D0E9003213605A600023C0E9003341
:104F340030BD00BFA80000202DE9F84303464FF020
:104F44002002EFF3118482F31288BFF36F8F254F91
:104F5400DFF89490D9F80000DFF890C048453B6032
:104F64004FEAE375DCE9001E0CD058B1D0E90486A1
:104F7400434575EB060217DAB8EB030266EB050648
:104F8400C0E9042659184EEB0505CCE900150025A7
:104F94003D60FFF795FF2946FFF734F884F3118845
:104FA400BFF36F8FBDE8F88318EB01014EEBE87394
:104FB4000022CCE900130023C0E90423FFF7A0FF7B
:104FC40084F31188BFF36F8F836898474FF02003F1
:104FD400EFF3118483F31288BFF36F8F3B68A3EB65
:104FE4000803B7E730130020A8000020B801002010
:104FF400014801F079BF00BF9096000010B50A4C3B
:1050040023681BB101230020236010BD00F050F879
:105014000028F7D00138062803D8044B53F82000A1
:1050240010BD034810BD00BF341300207486000077
:10503400FE8FFFFFBFF34F8F0549064BCA6802F48A
:10504400E0621343CB60BFF34F8F00BFFDE700BFA7
:1050540000ED00E00400FA0530B44FF0FE32002504
:10506400074B084C08494968C3F80024C3F80424D2
:10507400C3F80824C3F80C24C4F8005530BC08470E
:105084000010845000008450B0000020024BD0E98E
:105094000012C3E900127047B000002038B131B1EA
:1050A400002201440346013088421A70FAD1704745
:1050B40038B500F02FF820B1032400F063F820463F
:1050C40038BD00F031F898B900F0ACF898B90F4D3C
:1050D400D5F828391B0EF02B08D1D5F8242A0C4B0F
:1050E4009A420AD0072400F017F8E6E70624FAE704
:1050F4000424204638BD0024F5E7012000F092F88E
:1051040004460028F7D1C5F80C0AD8E700108450EB
:105114000000E0200020704700207047014BC3F8D6
:10512400040A70470010845010B5114800F048F884
:1051340000B110BD0F4800F043F80028F9D10E4C1F
:10514400204600F03DF80028F3D10C4B0C481C60BD
:1051540000F036F801460028EBD100F02DF80446A3
:1051640008B1204610BD00F03FF82046FAE700BF22
:10517400C4000020B8000020C0000020C8000020A7
:10518400BC00002008B5084800F024F8074800F0E7
:1051940021F8074800F01EF8064800F01BF8BDE8A7
:1051A400084000F00BB800BFC4000020B800002085
:1051B400C0000020BC00002000207047704700BFE2
:1051C40008B5034B02681B6810689847002008BDA7
:1051D400D400002008B5034B02685B681068984748
:1051E400002008BDD400002070B5094C094D206989
:1051F400AB68984718B1084B08485B68984700218A
:10520400074AEB6811602069BDE87040184700BF89
:10521400E4000020D4000020B000002090860000AC
:1052240038130020F8B51A4D1A4E0446B26828699E
:105234009047E8B9184F3B684CB1A3B1012B19D082
:10524400013B3B602869F36898470020F8BD43B9E7
:105254000121124AC2F800151149D1F81029002A77
:10526400FBD101333B60F368286998470020F8BDFF
:105274000C48F8BD0A4AD2F81039002BFBD1074A72
:105284006FF07E40C2F80035FFF748FF3B68D7E770
:10529400E4000020D40000203813002000008450D3
:1052A40000108450E98FFFFF10B5044650B16368C5
:1052B40013F0685F05D0064A934202D0002362606F
:1052C400236010BD034B04485B689847EFE700BFB9
:1052D4002C5F5CA9B0000020B0860000C8B1436810
:1052E4000D4A934213D013F0685F0ED0012350E8A7
:1052F400002F194640E8001C9CF0000FF7D1012A4A
:10530400F5D0BFF35F8F002070470448704704480E
:1053140070476FF4E04070472C5F5CA9E98FFFFF92
:10532400EA8FFFFF034680B1426809498A420AD0E6
:1053340012F0685F05D0BFF35F8F002210461A6039
:10534400704704487047044870476FF4E040704762
:105354002C5F5CA9E98FFFFFEA8FFFFF10B50446BD
:1053640020B10023034A2360626010BD0248FFF7A6
:1053740073FEF6E73A00003AD886000030B10268BE
:10538400034B04489A4208BF002070470248704704
:10539400DD55AABB8208F0007108F00038B50D464F
:1053A4000446B0B1A0220021043002F0B0FE95B151
:1053B4000822294604F1640002F0AFFE082205F138
:1053C400200104F1840002F0A8FE0020034B2360B6
:1053D40038BD0348FCE70348FAE700BFDD55AABB24
:1053E4007108F0008308F0002DE9F74305460E46E6
:1053F40099461146FFF7C2FF0446002840F0848016
:10540400002E00F08580002900F08480B9F1200F7F
:1054140040F0828005F14404082205F10408204686
:1054240002F07BFE05F1240708223146404602F0D3
:1054340074FE06F120010822384602F06EFE02A92D
:1054440041F8049D4FF4807002F05BFE002865D1A2
:105454004FF48073324A0121136093600823314A68
:1054640000F034FB0121052308462F4A00F02EFBEF
:105474000823424601211C2000F028FB08233A4659
:105484000121032000F022FB2246082301210220EF
:1054940000F01CFB0823254A01211A2000F016FB0A
:1054A4000523234A01211B2000F010FB0823214A75
:1054B4000121142000F00AFB08231F4A01211520B2
:1054C40000F004FB082305F164020121162000F01A
:1054D400FDFA082305F184020121172000F0F6FAF1
:1054E4000823164A01210B2000F0F0FA00F04AFBD1
:1054F4000446019800F0D8FA114B002C18BF1C4642
:10550400A421284602F005FE204603B0BDE8F0833E
:105514000C4CF9E70C4CF7E70C4CF5E7084CEFE7BB
:10552400901084503C870000B4870000FC86000083
:10553400A087000060870000808700001C870000AF
:105544008408F0007608F0008008F0008108F0007C
:10555400C2690C4B1A60826943F8042C426943F80F
:10556400082C026943F80C2CC26843F8102C82689A
:1055740043F8142C426843F8182C026843F81C2C96
:10558400704700BF5C1684500C4B1B68C3610C4B06
:105594001B6883610B4B1B6843610B4B1B680361E6
:1055A4000A4B1B68C3600A4B1B688360094B1B686A
:1055B4004360094B1B680360704700BF5C1684504E
:1055C4005816845054168450501684504C168450E7
:1055D40048168450441684504016845030B10268F2
:1055E400034B04489A4208BF0020704702487047A2
:1055F400DD55AABB0202F0000002F00038B50446F3
:1056040068B1051D7021284602F083FD284620223A
:10561400044902F07AFD0020034B236038BD03489F
:10562400FCE700BFC8870000DD55AABB0002F000FC
:105634002DE9F04385B015466F46274B04460E46C8
:105644000FCB87E80F002DB94FF00009484605B08D
:10565400BDE8F0832046FFF7C1FF81460028F5D15D
:10566400231D0193636AA3BB236F8BB1C3F140086D
:10567400A84528BFA84604F13000314618444246E4
:1056840002F043FD236F464443442367A5EB08051A
:10569400226F402A06D104F13001384600F0B4FBF1
:1056A4000023236705F03F0835F03F0505D0314658
:1056B4002A46384600F0A8FB2E44B8F1000FC3D0A8
:1056C4004246314604F1300002F01FFDC4F87080F8
:1056D400BCE7DFF80890B9E7508400000C02F00042
:1056E4002DE9FF4104466F46134B0E460FCB87E866
:1056F4000F002046FFF772FF8046B0B9CEB1636A4F
:10570400251D01953BB90123226F636204F1300129
:10571400384600F079FB2B46043E243453F8042B1E
:1057240012BAA34246F8042FF8D1404604B0BDE8AB
:10573400F081DFF80880F8E7508400000502F000EB
:10574400084B1B681B0EF02B08D1074B1A68074B3C
:105754009A4205D10020064B186070470520704717
:105764000620704728198450241A84500000E02031
:105774000C1A8450002230B5134640F6FC754900DB
:10578400023802F1A15404F5823490424FEA8404B1
:1057940002F10102CABF236025605B181E2AF0D102
:1057A400034A13600B445360024B034A1A6030BD32
:1057B400781084508410845020F80F001E4B30B5AC
:1057C4001A4685B0196800910099CC07FAD500F102
:1057D400A15000F582308000016813680193019B99
:1057E400D807FAD5154B164C186820231F3090FBA8
:1057F400F3F0144D0138002810DA00230130400181
:1058040053B14FF00042A0F12001134204D10138FA
:1058140088424FEA5202F8D105B030BD13680393B1
:10582400039BDB07FAD5431823602B680293029B82
:10583400002BE3D10138DEE7B4108450AC1084505F
:10584400E4108450DC108450F0B51D6885B001F07C
:105854001F040DB91F2C28D1174D2E462F68019710
:10586400019FFF07FAD500F1A15000F582308000B6
:10587400006835680395039DED07FAD51F2C00EBEE
:10588400611018BFC9430D4D18BF01F01F012860F6
:105894000B480068029002981CBF00FA01F11160E5
:1058A4004FF0000108BF1060196010684300C00F7A
:1058B400136005B0F0BD00BFB4108450E4108450F0
:1058C400DC1084500C4B890118603F3020F03F00FD
:1058D4004030586099600948D960196159619961EB
:1058E4001C3382B0196002680192019AD207FAD57A
:1058F400196002B0704700BF90108450B4108450F7
:1059040038B5A0F12003B3F5426F05462CD88F2893
:1059140026D800F1470300F16604DB064FEA54146D
:1059240000D0013464013F34A409013411B1A1420F
:105934001AD30C464FF48050E300B0FBF3F0202858
:1059440028BF202002B110600122084B21461A60B2
:10595400FFF710FF28462146FFF7B4FF002038BDAB
:1059640000F11F046409DDE70148F8E71C188450BE
:105974002221F000464BF0B51D4689B01C68019405
:10598400019CE407FAD5434B002413449B001A6896
:105994000B181E2B88BFC0F11E011F320B185209B1
:1059A4005343B3F5806F84BF4FF48061B1FBF2F1D0
:1059B400274688BF091ADFF8E4E000F1A150DFF8B8
:1059C400E0C000F58230A14233DC2B680493049BD1
:1059D400DB07FAD5304B1B68296805910599CF0779
:1059E400FAD52E4C2E49236000231E46934203F120
:1059F400010040D11946002620F0010228488A42BD
:105A04003CD8296806910699CE07FAD52549096834
:105A1400286807900798C007FAD5216000210C4632
:105A24001F488B422DD100201D499A422CD809B021
:105A3400F0BD2B680293029BDB07FAD503199B0088
:105A44001B682E680396039EF607FAD5CEF800303D
:105A54000023934203F1010306D1164623F0010308
:105A6400B34204D80134AEE7CCF80070F1E7CCF8C7
:105A740000700136F4E70E600346B7E706600131B3
:105A8400BDE704600131CCE708600133CDE700BF16
:105A9400B4108450240421147C108450D4108450F5
:105AA400D81084507810845008B540B1202801469D
:105AB4004FF0070228BF20210020FFF75BFF0022E0
:105AC400014B1A6008BD00BF1C188450F0B5294D65
:105AD40085B02C462E680096009EF607FAD500F194
